{
  "_format": "hh-sol-artifact-1",
  "contractName": "DividendPayingToken",
  "sourceName": "contracts/BUSDC.sol",
  "abi": [
    {
      "inputs": [
        {
          "internalType": "string",
          "name": "_name",
          "type": "string"
        },
        {
          "internalType": "string",
          "name": "_symbol",
          "type": "string"
        }
      ],
      "stateMutability": "nonpayable",
      "type": "constructor"
    },
    {
      "anonymous": false,
      "inputs": [
        {
          "indexed": true,
          "internalType": "address",
          "name": "owner",
          "type": "address"
        },
        {
          "indexed": true,
          "internalType": "address",
          "name": "spender",
          "type": "address"
        },
        {
          "indexed": false,
          "internalType": "uint256",
          "name": "value",
          "type": "uint256"
        }
      ],
      "name": "Approval",
      "type": "event"
    },
    {
      "anonymous": false,
      "inputs": [
        {
          "indexed": true,
          "internalType": "address",
          "name": "to",
          "type": "address"
        },
        {
          "indexed": false,
          "internalType": "uint256",
          "name": "weiAmount",
          "type": "uint256"
        }
      ],
      "name": "DividendWithdrawn",
      "type": "event"
    },
    {
      "anonymous": false,
      "inputs": [
        {
          "indexed": true,
          "internalType": "address",
          "name": "from",
          "type": "address"
        },
        {
          "indexed": false,
          "internalType": "uint256",
          "name": "weiAmount",
          "type": "uint256"
        }
      ],
      "name": "DividendsDistributed",
      "type": "event"
    },
    {
      "anonymous": false,
      "inputs": [
        {
          "indexed": true,
          "internalType": "address",
          "name": "from",
          "type": "address"
        },
        {
          "indexed": true,
          "internalType": "address",
          "name": "to",
          "type": "address"
        },
        {
          "indexed": false,
          "internalType": "uint256",
          "name": "value",
          "type": "uint256"
        }
      ],
      "name": "Transfer",
      "type": "event"
    },
    {
      "inputs": [
        {
          "internalType": "address",
          "name": "_owner",
          "type": "address"
        }
      ],
      "name": "accumulativeDividendOf",
      "outputs": [
        {
          "internalType": "uint256",
          "name": "",
          "type": "uint256"
        }
      ],
      "stateMutability": "view",
      "type": "function"
    },
    {
      "inputs": [
        {
          "internalType": "address",
          "name": "owner",
          "type": "address"
        },
        {
          "internalType": "address",
          "name": "spender",
          "type": "address"
        }
      ],
      "name": "allowance",
      "outputs": [
        {
          "internalType": "uint256",
          "name": "",
          "type": "uint256"
        }
      ],
      "stateMutability": "view",
      "type": "function"
    },
    {
      "inputs": [
        {
          "internalType": "address",
          "name": "spender",
          "type": "address"
        },
        {
          "internalType": "uint256",
          "name": "amount",
          "type": "uint256"
        }
      ],
      "name": "approve",
      "outputs": [
        {
          "internalType": "bool",
          "name": "",
          "type": "bool"
        }
      ],
      "stateMutability": "nonpayable",
      "type": "function"
    },
    {
      "inputs": [
        {
          "internalType": "address",
          "name": "account",
          "type": "address"
        }
      ],
      "name": "balanceOf",
      "outputs": [
        {
          "internalType": "uint256",
          "name": "",
          "type": "uint256"
        }
      ],
      "stateMutability": "view",
      "type": "function"
    },
    {
      "inputs": [],
      "name": "decimals",
      "outputs": [
        {
          "internalType": "uint8",
          "name": "",
          "type": "uint8"
        }
      ],
      "stateMutability": "view",
      "type": "function"
    },
    {
      "inputs": [
        {
          "internalType": "address",
          "name": "spender",
          "type": "address"
        },
        {
          "internalType": "uint256",
          "name": "subtractedValue",
          "type": "uint256"
        }
      ],
      "name": "decreaseAllowance",
      "outputs": [
        {
          "internalType": "bool",
          "name": "",
          "type": "bool"
        }
      ],
      "stateMutability": "nonpayable",
      "type": "function"
    },
    {
      "inputs": [],
      "name": "distributeDividends",
      "outputs": [],
      "stateMutability": "payable",
      "type": "function"
    },
    {
      "inputs": [
        {
          "internalType": "uint256",
          "name": "amount",
          "type": "uint256"
        }
      ],
      "name": "distributeDividends",
      "outputs": [],
      "stateMutability": "nonpayable",
      "type": "function"
    },
    {
      "inputs": [
        {
          "internalType": "address",
          "name": "_owner",
          "type": "address"
        }
      ],
      "name": "dividendOf",
      "outputs": [
        {
          "internalType": "uint256",
          "name": "",
          "type": "uint256"
        }
      ],
      "stateMutability": "view",
      "type": "function"
    },
    {
      "inputs": [],
      "name": "dividendToken",
      "outputs": [
        {
          "internalType": "address",
          "name": "",
          "type": "address"
        }
      ],
      "stateMutability": "view",
      "type": "function"
    },
    {
      "inputs": [
        {
          "internalType": "address",
          "name": "spender",
          "type": "address"
        },
        {
          "internalType": "uint256",
          "name": "addedValue",
          "type": "uint256"
        }
      ],
      "name": "increaseAllowance",
      "outputs": [
        {
          "internalType": "bool",
          "name": "",
          "type": "bool"
        }
      ],
      "stateMutability": "nonpayable",
      "type": "function"
    },
    {
      "inputs": [],
      "name": "name",
      "outputs": [
        {
          "internalType": "string",
          "name": "",
          "type": "string"
        }
      ],
      "stateMutability": "view",
      "type": "function"
    },
    {
      "inputs": [
        {
          "internalType": "address",
          "name": "newToken",
          "type": "address"
        }
      ],
      "name": "setDividendTokenAddress",
      "outputs": [],
      "stateMutability": "nonpayable",
      "type": "function"
    },
    {
      "inputs": [],
      "name": "symbol",
      "outputs": [
        {
          "internalType": "string",
          "name": "",
          "type": "string"
        }
      ],
      "stateMutability": "view",
      "type": "function"
    },
    {
      "inputs": [],
      "name": "totalDividendsDistributed",
      "outputs": [
        {
          "internalType": "uint256",
          "name": "",
          "type": "uint256"
        }
      ],
      "stateMutability": "view",
      "type": "function"
    },
    {
      "inputs": [],
      "name": "totalSupply",
      "outputs": [
        {
          "internalType": "uint256",
          "name": "",
          "type": "uint256"
        }
      ],
      "stateMutability": "view",
      "type": "function"
    },
    {
      "inputs": [
        {
          "internalType": "address",
          "name": "recipient",
          "type": "address"
        },
        {
          "internalType": "uint256",
          "name": "amount",
          "type": "uint256"
        }
      ],
      "name": "transfer",
      "outputs": [
        {
          "internalType": "bool",
          "name": "",
          "type": "bool"
        }
      ],
      "stateMutability": "nonpayable",
      "type": "function"
    },
    {
      "inputs": [
        {
          "internalType": "address",
          "name": "sender",
          "type": "address"
        },
        {
          "internalType": "address",
          "name": "recipient",
          "type": "address"
        },
        {
          "internalType": "uint256",
          "name": "amount",
          "type": "uint256"
        }
      ],
      "name": "transferFrom",
      "outputs": [
        {
          "internalType": "bool",
          "name": "",
          "type": "bool"
        }
      ],
      "stateMutability": "nonpayable",
      "type": "function"
    },
    {
      "inputs": [],
      "name": "withdrawDividend",
      "outputs": [],
      "stateMutability": "nonpayable",
      "type": "function"
    },
    {
      "inputs": [
        {
          "internalType": "address",
          "name": "_owner",
          "type": "address"
        }
      ],
      "name": "withdrawableDividendOf",
      "outputs": [
        {
          "internalType": "uint256",
          "name": "",
          "type": "uint256"
        }
      ],
      "stateMutability": "view",
      "type": "function"
    },
    {
      "inputs": [
        {
          "internalType": "address",
          "name": "_owner",
          "type": "address"
        }
      ],
      "name": "withdrawnDividendOf",
      "outputs": [
        {
          "internalType": "uint256",
          "name": "",
          "type": "uint256"
        }
      ],
      "stateMutability": "view",
      "type": "function"
    },
    {
      "stateMutability": "payable",
      "type": "receive"
    }
  ],
  "bytecode": "0x608060405273e9e7cea3dedca5984780bafc599bd69add087d56600860006101000a81548173ffffffffffffffffffffffffffffffffffffffff021916908373ffffffffffffffffffffffffffffffffffffffff1602179055503480156200006657600080fd5b506040516200230a3803806200230a83398181016040528101906200008c919062000208565b81818160039080519060200190620000a6929190620000e6565b508060049080519060200190620000bf929190620000e6565b506009600560006101000a81548160ff021916908360ff16021790555050505050620003ac565b828054620000f49062000318565b90600052602060002090601f01602090048101928262000118576000855562000164565b82601f106200013357805160ff191683800117855562000164565b8280016001018555821562000164579182015b828111156200016357825182559160200191906001019062000146565b5b50905062000173919062000177565b5090565b5b808211156200019257600081600090555060010162000178565b5090565b6000620001ad620001a784620002af565b6200027b565b905082815260208101848484011115620001c657600080fd5b620001d3848285620002e2565b509392505050565b600082601f830112620001ed57600080fd5b8151620001ff84826020860162000196565b91505092915050565b600080604083850312156200021c57600080fd5b600083015167ffffffffffffffff8111156200023757600080fd5b6200024585828601620001db565b925050602083015167ffffffffffffffff8111156200026357600080fd5b6200027185828601620001db565b9150509250929050565b6000604051905081810181811067ffffffffffffffff82111715620002a557620002a46200037d565b5b8060405250919050565b600067ffffffffffffffff821115620002cd57620002cc6200037d565b5b601f19601f8301169050602081019050919050565b60005b8381101562000302578082015181840152602081019050620002e5565b8381111562000312576000848401525b50505050565b600060028204905060018216806200033157607f821691505b602082108114156200034857620003476200034e565b5b50919050565b7f4e487b7100000000000000000000000000000000000000000000000000000000600052602260045260246000fd5b7f4e487b7100000000000000000000000000000000000000000000000000000000600052604160045260246000fd5b611f4e80620003bc6000396000f3fe60806040526004361061012e5760003560e01c80636a474002116100ab57806395d89b411161006f57806395d89b41146103f2578063a457c2d71461041d578063a8b9d2401461045a578063a9059cbb14610497578063aafd847a146104d4578063dd62ed3e1461051157610135565b80636a4740021461030d57806370a08231146103245780637e3e7fd21461036157806385a6b3ae1461038a57806391b89fba146103b557610135565b806323b872dd116100f257806323b872dd1461020257806327ce01471461023f578063313ce5671461027c5780633243c791146102a757806339509351146102d057610135565b806303c833021461013a57806306fdde0314610144578063095ea7b31461016f5780631582358e146101ac57806318160ddd146101d757610135565b3661013557005b600080fd5b61014261054e565b005b34801561015057600080fd5b50610159610627565b604051610166919061199d565b60405180910390f35b34801561017b57600080fd5b506101966004803603810190610191919061167a565b6106b9565b6040516101a39190611982565b60405180910390f35b3480156101b857600080fd5b506101c16106d7565b6040516101ce919061193e565b60405180910390f35b3480156101e357600080fd5b506101ec6106fd565b6040516101f99190611a5f565b60405180910390f35b34801561020e57600080fd5b506102296004803603810190610224919061162b565b610707565b6040516102369190611982565b60405180910390f35b34801561024b57600080fd5b50610266600480360381019061026191906115c6565b6107e0565b6040516102739190611a5f565b60405180910390f35b34801561028857600080fd5b50610291610883565b60405161029e9190611a7a565b60405180910390f35b3480156102b357600080fd5b506102ce60048036038101906102c991906116df565b61089a565b005b3480156102dc57600080fd5b506102f760048036038101906102f2919061167a565b610974565b6040516103049190611982565b60405180910390f35b34801561031957600080fd5b50610322610a27565b005b34801561033057600080fd5b5061034b600480360381019061034691906115c6565b610a33565b6040516103589190611a5f565b60405180910390f35b34801561036d57600080fd5b50610388600480360381019061038391906115c6565b610a7b565b005b34801561039657600080fd5b5061039f610abf565b6040516103ac9190611a5f565b60405180910390f35b3480156103c157600080fd5b506103dc60048036038101906103d791906115c6565b610ac5565b6040516103e99190611a5f565b60405180910390f35b3480156103fe57600080fd5b50610407610ad7565b604051610414919061199d565b60405180910390f35b34801561042957600080fd5b50610444600480360381019061043f919061167a565b610b69565b6040516104519190611982565b60405180910390f35b34801561046657600080fd5b50610481600480360381019061047c91906115c6565b610c36565b60405161048e9190611a5f565b60405180910390f35b3480156104a357600080fd5b506104be60048036038101906104b9919061167a565b610c99565b6040516104cb9190611982565b60405180910390f35b3480156104e057600080fd5b506104fb60048036038101906104f691906115c6565b610cb7565b6040516105089190611a5f565b60405180910390f35b34801561051d57600080fd5b50610538600480360381019061053391906115ef565b610d00565b6040516105459190611a5f565b60405180910390f35b60006105586106fd565b1161056257600080fd5b6000341115610625576105b56105766106fd565b61059a70010000000000000000000000000000000034610d8790919063ffffffff16565b6105a49190611b9b565b600654610e0290919063ffffffff16565b6006819055503373ffffffffffffffffffffffffffffffffffffffff167fa493a9229478c3fcd73f66d2cdeb7f94fd0f341da924d1054236d78454116511346040516106019190611a5f565b60405180910390a261061e34600b54610e0290919063ffffffff16565b600b819055505b565b60606003805461063690611db6565b80601f016020809104026020016040519081016040528092919081815260200182805461066290611db6565b80156106af5780601f10610684576101008083540402835291602001916106af565b820191906000526020600020905b81548152906001019060200180831161069257829003601f168201915b5050505050905090565b60006106cd6106c6610e60565b8484610e68565b6001905092915050565b600860009054906101000a900473ffffffffffffffffffffffffffffffffffffffff1681565b6000600254905090565b6000610714848484611033565b6107d584610720610e60565b6107d085604051806060016040528060288152602001611ecc60289139600160008b73ffffffffffffffffffffffffffffffffffffffff1673ffffffffffffffffffffffffffffffffffffffff1681526020019081526020016000206000610786610e60565b73ffffffffffffffffffffffffffffffffffffffff1673ffffffffffffffffffffffffffffffffffffffff1681526020019081526020016000205461118f9092919063ffffffff16565b610e68565b600190509392505050565b600070010000000000000000000000000000000061087261086d600960008673ffffffffffffffffffffffffffffffffffffffff1673ffffffffffffffffffffffffffffffffffffffff1681526020019081526020016000205461085f61085a61084988610a33565b600654610d8790919063ffffffff16565b6111ed565b61120a90919063ffffffff16565b611255565b61087c9190611b9b565b9050919050565b6000600560009054906101000a900460ff16905090565b60006108a46106fd565b116108ae57600080fd5b6000811115610971576109016108c26106fd565b6108e670010000000000000000000000000000000084610d8790919063ffffffff16565b6108f09190611b9b565b600654610e0290919063ffffffff16565b6006819055503373ffffffffffffffffffffffffffffffffffffffff167fa493a9229478c3fcd73f66d2cdeb7f94fd0f341da924d1054236d784541165118260405161094d9190611a5f565b60405180910390a261096a81600b54610e0290919063ffffffff16565b600b819055505b50565b6000610a1d610981610e60565b84610a188560016000610992610e60565b73ffffffffffffffffffffffffffffffffffffffff1673ffffffffffffffffffffffffffffffffffffffff16815260200190815260200160002060008973ffffffffffffffffffffffffffffffffffffffff1673ffffffffffffffffffffffffffffffffffffffff16815260200190815260200160002054610e0290919063ffffffff16565b610e68565b6001905092915050565b610a303361126c565b50565b60008060008373ffffffffffffffffffffffffffffffffffffffff1673ffffffffffffffffffffffffffffffffffffffff168152602001908152602001600020549050919050565b80600860006101000a81548173ffffffffffffffffffffffffffffffffffffffff021916908373ffffffffffffffffffffffffffffffffffffffff16021790555050565b600b5481565b6000610ad082610c36565b9050919050565b606060048054610ae690611db6565b80601f0160208091040260200160405190810160405280929190818152602001828054610b1290611db6565b8015610b5f5780601f10610b3457610100808354040283529160200191610b5f565b820191906000526020600020905b815481529060010190602001808311610b4257829003601f168201915b5050505050905090565b6000610c2c610b76610e60565b84610c2785604051806060016040528060258152602001611ef46025913960016000610ba0610e60565b73ffffffffffffffffffffffffffffffffffffffff1673ffffffffffffffffffffffffffffffffffffffff16815260200190815260200160002060008a73ffffffffffffffffffffffffffffffffffffffff1673ffffffffffffffffffffffffffffffffffffffff1681526020019081526020016000205461118f9092919063ffffffff16565b610e68565b6001905092915050565b6000610c92600a60008473ffffffffffffffffffffffffffffffffffffffff1673ffffffffffffffffffffffffffffffffffffffff16815260200190815260200160002054610c84846107e0565b6114d390919063ffffffff16565b9050919050565b6000610cad610ca6610e60565b8484611033565b6001905092915050565b6000600a60008373ffffffffffffffffffffffffffffffffffffffff1673ffffffffffffffffffffffffffffffffffffffff168152602001908152602001600020549050919050565b6000600160008473ffffffffffffffffffffffffffffffffffffffff1673ffffffffffffffffffffffffffffffffffffffff16815260200190815260200160002060008373ffffffffffffffffffffffffffffffffffffffff1673ffffffffffffffffffffffffffffffffffffffff16815260200190815260200160002054905092915050565b600080831415610d9a5760009050610dfc565b60008284610da89190611bcc565b9050828482610db79190611b9b565b14610df7576040517f08c379a0000000000000000000000000000000000000000000000000000000008152600401610dee90611a1f565b60405180910390fd5b809150505b92915050565b6000808284610e119190611b45565b905083811015610e56576040517f08c379a0000000000000000000000000000000000000000000000000000000008152600401610e4d906119df565b60405180910390fd5b8091505092915050565b600033905090565b600073ffffffffffffffffffffffffffffffffffffffff168373ffffffffffffffffffffffffffffffffffffffff161415610ed8576040517f08c379a0000000000000000000000000000000000000000000000000000000008152600401610ecf90611a3f565b60405180910390fd5b600073ffffffffffffffffffffffffffffffffffffffff168273ffffffffffffffffffffffffffffffffffffffff161415610f48576040517f08c379a0000000000000000000000000000000000000000000000000000000008152600401610f3f906119bf565b60405180910390fd5b80600160008573ffffffffffffffffffffffffffffffffffffffff1673ffffffffffffffffffffffffffffffffffffffff16815260200190815260200160002060008473ffffffffffffffffffffffffffffffffffffffff1673ffffffffffffffffffffffffffffffffffffffff168152602001908152602001600020819055508173ffffffffffffffffffffffffffffffffffffffff168373ffffffffffffffffffffffffffffffffffffffff167f8c5be1e5ebec7d5bd14f71427d1e84f3dd0314c0f7b2291e5b200ac8c7c3b925836040516110269190611a5f565b60405180910390a3505050565b600061103e57600080fd5b600061105d61105883600654610d8790919063ffffffff16565b6111ed565b90506110b181600960008773ffffffffffffffffffffffffffffffffffffffff1673ffffffffffffffffffffffffffffffffffffffff1681526020019081526020016000205461120a90919063ffffffff16565b600960008673ffffffffffffffffffffffffffffffffffffffff1673ffffffffffffffffffffffffffffffffffffffff1681526020019081526020016000208190555061114681600960008673ffffffffffffffffffffffffffffffffffffffff1673ffffffffffffffffffffffffffffffffffffffff1681526020019081526020016000205461152c90919063ffffffff16565b600960008573ffffffffffffffffffffffffffffffffffffffff1673ffffffffffffffffffffffffffffffffffffffff1681526020019081526020016000208190555050505050565b60008383111582906111d7576040517f08c379a00000000000000000000000000000000000000000000000000000000081526004016111ce919061199d565b60405180910390fd5b5082846111e49190611cba565b90509392505050565b600080829050600081121561120157600080fd5b80915050919050565b60008082846112199190611ab1565b90506000831215801561122c5750838112155b80611242575060008312801561124157508381125b5b61124b57600080fd5b8091505092915050565b60008082121561126457600080fd5b819050919050565b60008061127883610c36565b905060008111156114c8576112d581600a60008673ffffffffffffffffffffffffffffffffffffffff1673ffffffffffffffffffffffffffffffffffffffff16815260200190815260200160002054610e0290919063ffffffff16565b600a60008573ffffffffffffffffffffffffffffffffffffffff1673ffffffffffffffffffffffffffffffffffffffff168152602001908152602001600020819055508273ffffffffffffffffffffffffffffffffffffffff167fee503bee2bb6a87e57bc57db795f98137327401a0e7b7ce42e37926cc1a9ca4d8260405161135e9190611a5f565b60405180910390a26000600860009054906101000a900473ffffffffffffffffffffffffffffffffffffffff1673ffffffffffffffffffffffffffffffffffffffff1663a9059cbb85846040518363ffffffff1660e01b81526004016113c5929190611959565b602060405180830381600087803b1580156113df57600080fd5b505af11580156113f3573d6000803e3d6000fd5b505050506040513d601f19601f8201168201806040525081019061141791906116b6565b9050806114be5761147082600a60008773ffffffffffffffffffffffffffffffffffffffff1673ffffffffffffffffffffffffffffffffffffffff168152602001908152602001600020546114d390919063ffffffff16565b600a60008673ffffffffffffffffffffffffffffffffffffffff1673ffffffffffffffffffffffffffffffffffffffff168152602001908152602001600020819055506000925050506114ce565b81925050506114ce565b60009150505b919050565b600082821115611518576040517f08c379a000000000000000000000000000000000000000000000000000000000815260040161150f906119ff565b60405180910390fd5b81836115249190611cba565b905092915050565b600080821215801561154957508282846115469190611c26565b13155b8061156a575060008212801561156957508282846115679190611c26565b135b5b61157357600080fd5b818361157f9190611c26565b905092915050565b60008135905061159681611e86565b92915050565b6000815190506115ab81611e9d565b92915050565b6000813590506115c081611eb4565b92915050565b6000602082840312156115d857600080fd5b60006115e684828501611587565b91505092915050565b6000806040838503121561160257600080fd5b600061161085828601611587565b925050602061162185828601611587565b9150509250929050565b60008060006060848603121561164057600080fd5b600061164e86828701611587565b935050602061165f86828701611587565b9250506040611670868287016115b1565b9150509250925092565b6000806040838503121561168d57600080fd5b600061169b85828601611587565b92505060206116ac858286016115b1565b9150509250929050565b6000602082840312156116c857600080fd5b60006116d68482850161159c565b91505092915050565b6000602082840312156116f157600080fd5b60006116ff848285016115b1565b91505092915050565b61171181611d4d565b82525050565b61172081611cee565b82525050565b61172f81611d00565b82525050565b600061174082611a95565b61174a8185611aa0565b935061175a818560208601611d83565b61176381611e75565b840191505092915050565b600061177b602283611aa0565b91507f45524332303a20617070726f766520746f20746865207a65726f20616464726560008301527f73730000000000000000000000000000000000000000000000000000000000006020830152604082019050919050565b60006117e1601b83611aa0565b91507f536166654d6174683a206164646974696f6e206f766572666c6f7700000000006000830152602082019050919050565b6000611821601e83611aa0565b91507f536166654d6174683a207375627472616374696f6e206f766572666c6f7700006000830152602082019050919050565b6000611861602183611aa0565b91507f536166654d6174683a206d756c7469706c69636174696f6e206f766572666c6f60008301527f77000000000000000000000000000000000000000000000000000000000000006020830152604082019050919050565b60006118c7602483611aa0565b91507f45524332303a20617070726f76652066726f6d20746865207a65726f2061646460008301527f72657373000000000000000000000000000000000000000000000000000000006020830152604082019050919050565b61192981611d36565b82525050565b61193881611d40565b82525050565b60006020820190506119536000830184611717565b92915050565b600060408201905061196e6000830185611708565b61197b6020830184611920565b9392505050565b60006020820190506119976000830184611726565b92915050565b600060208201905081810360008301526119b78184611735565b905092915050565b600060208201905081810360008301526119d88161176e565b9050919050565b600060208201905081810360008301526119f8816117d4565b9050919050565b60006020820190508181036000830152611a1881611814565b9050919050565b60006020820190508181036000830152611a3881611854565b9050919050565b60006020820190508181036000830152611a58816118ba565b9050919050565b6000602082019050611a746000830184611920565b92915050565b6000602082019050611a8f600083018461192f565b92915050565b600081519050919050565b600082825260208201905092915050565b6000611abc82611d0c565b9150611ac783611d0c565b9250817f7fffffffffffffffffffffffffffffffffffffffffffffffffffffffffffffff03831360008312151615611b0257611b01611de8565b5b817f8000000000000000000000000000000000000000000000000000000000000000038312600083121615611b3a57611b39611de8565b5b828201905092915050565b6000611b5082611d36565b9150611b5b83611d36565b9250827fffffffffffffffffffffffffffffffffffffffffffffffffffffffffffffffff03821115611b9057611b8f611de8565b5b828201905092915050565b6000611ba682611d36565b9150611bb183611d36565b925082611bc157611bc0611e17565b5b828204905092915050565b6000611bd782611d36565b9150611be283611d36565b9250817fffffffffffffffffffffffffffffffffffffffffffffffffffffffffffffffff0483118215151615611c1b57611c1a611de8565b5b828202905092915050565b6000611c3182611d0c565b9150611c3c83611d0c565b9250827f800000000000000000000000000000000000000000000000000000000000000001821260008412151615611c7757611c76611de8565b5b827f7fffffffffffffffffffffffffffffffffffffffffffffffffffffffffffffff018213600084121615611caf57611cae611de8565b5b828203905092915050565b6000611cc582611d36565b9150611cd083611d36565b925082821015611ce357611ce2611de8565b5b828203905092915050565b6000611cf982611d16565b9050919050565b60008115159050919050565b6000819050919050565b600073ffffffffffffffffffffffffffffffffffffffff82169050919050565b6000819050919050565b600060ff82169050919050565b6000611d5882611d5f565b9050919050565b6000611d6a82611d71565b9050919050565b6000611d7c82611d16565b9050919050565b60005b83811015611da1578082015181840152602081019050611d86565b83811115611db0576000848401525b50505050565b60006002820490506001821680611dce57607f821691505b60208210811415611de257611de1611e46565b5b50919050565b7f4e487b7100000000000000000000000000000000000000000000000000000000600052601160045260246000fd5b7f4e487b7100000000000000000000000000000000000000000000000000000000600052601260045260246000fd5b7f4e487b7100000000000000000000000000000000000000000000000000000000600052602260045260246000fd5b6000601f19601f8301169050919050565b611e8f81611cee565b8114611e9a57600080fd5b50565b611ea681611d00565b8114611eb157600080fd5b50565b611ebd81611d36565b8114611ec857600080fd5b5056fe45524332303a207472616e7366657220616d6f756e74206578636565647320616c6c6f77616e636545524332303a2064656372656173656420616c6c6f77616e63652062656c6f77207a65726fa26469706673582212206512cc336fb8441be84e8adce427704cff3745cc268bf03ce1f6975fce3478be64736f6c63430008000033",
  "linkReferences": {},
  "deployedLinkReferences": {}
}