{
  "_format": "hh-sol-artifact-1",
  "contractName": "TokenDividendTracker",
  "sourceName": "contracts/BUSDC.sol",
  "abi": [
    {
      "inputs": [],
      "stateMutability": "nonpayable",
      "type": "constructor"
    },
    {
      "anonymous": false,
      "inputs": [
        {
          "indexed": true,
          "internalType": "address",
          "name": "owner",
          "type": "address"
        },
        {
          "indexed": true,
          "internalType": "address",
          "name": "spender",
          "type": "address"
        },
        {
          "indexed": false,
          "internalType": "uint256",
          "name": "value",
          "type": "uint256"
        }
      ],
      "name": "Approval",
      "type": "event"
    },
    {
      "anonymous": false,
      "inputs": [
        {
          "indexed": true,
          "internalType": "address",
          "name": "account",
          "type": "address"
        },
        {
          "indexed": false,
          "internalType": "uint256",
          "name": "amount",
          "type": "uint256"
        },
        {
          "indexed": true,
          "internalType": "bool",
          "name": "automatic",
          "type": "bool"
        }
      ],
      "name": "Claim",
      "type": "event"
    },
    {
      "anonymous": false,
      "inputs": [
        {
          "indexed": true,
          "internalType": "uint256",
          "name": "newValue",
          "type": "uint256"
        },
        {
          "indexed": true,
          "internalType": "uint256",
          "name": "oldValue",
          "type": "uint256"
        }
      ],
      "name": "ClaimWaitUpdated",
      "type": "event"
    },
    {
      "anonymous": false,
      "inputs": [
        {
          "indexed": true,
          "internalType": "address",
          "name": "to",
          "type": "address"
        },
        {
          "indexed": false,
          "internalType": "uint256",
          "name": "weiAmount",
          "type": "uint256"
        }
      ],
      "name": "DividendWithdrawn",
      "type": "event"
    },
    {
      "anonymous": false,
      "inputs": [
        {
          "indexed": true,
          "internalType": "address",
          "name": "from",
          "type": "address"
        },
        {
          "indexed": false,
          "internalType": "uint256",
          "name": "weiAmount",
          "type": "uint256"
        }
      ],
      "name": "DividendsDistributed",
      "type": "event"
    },
    {
      "anonymous": false,
      "inputs": [
        {
          "indexed": true,
          "internalType": "address",
          "name": "account",
          "type": "address"
        }
      ],
      "name": "ExcludeFromDividends",
      "type": "event"
    },
    {
      "anonymous": false,
      "inputs": [
        {
          "indexed": true,
          "internalType": "address",
          "name": "account",
          "type": "address"
        }
      ],
      "name": "IncludeInDividends",
      "type": "event"
    },
    {
      "anonymous": false,
      "inputs": [
        {
          "indexed": true,
          "internalType": "address",
          "name": "previousOwner",
          "type": "address"
        },
        {
          "indexed": true,
          "internalType": "address",
          "name": "newOwner",
          "type": "address"
        }
      ],
      "name": "OwnershipTransferred",
      "type": "event"
    },
    {
      "anonymous": false,
      "inputs": [
        {
          "indexed": true,
          "internalType": "address",
          "name": "from",
          "type": "address"
        },
        {
          "indexed": true,
          "internalType": "address",
          "name": "to",
          "type": "address"
        },
        {
          "indexed": false,
          "internalType": "uint256",
          "name": "value",
          "type": "uint256"
        }
      ],
      "name": "Transfer",
      "type": "event"
    },
    {
      "inputs": [
        {
          "internalType": "address",
          "name": "_owner",
          "type": "address"
        }
      ],
      "name": "accumulativeDividendOf",
      "outputs": [
        {
          "internalType": "uint256",
          "name": "",
          "type": "uint256"
        }
      ],
      "stateMutability": "view",
      "type": "function"
    },
    {
      "inputs": [
        {
          "internalType": "address",
          "name": "owner",
          "type": "address"
        },
        {
          "internalType": "address",
          "name": "spender",
          "type": "address"
        }
      ],
      "name": "allowance",
      "outputs": [
        {
          "internalType": "uint256",
          "name": "",
          "type": "uint256"
        }
      ],
      "stateMutability": "view",
      "type": "function"
    },
    {
      "inputs": [
        {
          "internalType": "address",
          "name": "spender",
          "type": "address"
        },
        {
          "internalType": "uint256",
          "name": "amount",
          "type": "uint256"
        }
      ],
      "name": "approve",
      "outputs": [
        {
          "internalType": "bool",
          "name": "",
          "type": "bool"
        }
      ],
      "stateMutability": "nonpayable",
      "type": "function"
    },
    {
      "inputs": [
        {
          "internalType": "address",
          "name": "account",
          "type": "address"
        }
      ],
      "name": "balanceOf",
      "outputs": [
        {
          "internalType": "uint256",
          "name": "",
          "type": "uint256"
        }
      ],
      "stateMutability": "view",
      "type": "function"
    },
    {
      "inputs": [],
      "name": "claimWait",
      "outputs": [
        {
          "internalType": "uint256",
          "name": "",
          "type": "uint256"
        }
      ],
      "stateMutability": "view",
      "type": "function"
    },
    {
      "inputs": [],
      "name": "decimals",
      "outputs": [
        {
          "internalType": "uint8",
          "name": "",
          "type": "uint8"
        }
      ],
      "stateMutability": "view",
      "type": "function"
    },
    {
      "inputs": [
        {
          "internalType": "address",
          "name": "spender",
          "type": "address"
        },
        {
          "internalType": "uint256",
          "name": "subtractedValue",
          "type": "uint256"
        }
      ],
      "name": "decreaseAllowance",
      "outputs": [
        {
          "internalType": "bool",
          "name": "",
          "type": "bool"
        }
      ],
      "stateMutability": "nonpayable",
      "type": "function"
    },
    {
      "inputs": [],
      "name": "distributeDividends",
      "outputs": [],
      "stateMutability": "payable",
      "type": "function"
    },
    {
      "inputs": [
        {
          "internalType": "uint256",
          "name": "amount",
          "type": "uint256"
        }
      ],
      "name": "distributeDividends",
      "outputs": [],
      "stateMutability": "nonpayable",
      "type": "function"
    },
    {
      "inputs": [
        {
          "internalType": "address",
          "name": "_owner",
          "type": "address"
        }
      ],
      "name": "dividendOf",
      "outputs": [
        {
          "internalType": "uint256",
          "name": "",
          "type": "uint256"
        }
      ],
      "stateMutability": "view",
      "type": "function"
    },
    {
      "inputs": [],
      "name": "dividendToken",
      "outputs": [
        {
          "internalType": "address",
          "name": "",
          "type": "address"
        }
      ],
      "stateMutability": "view",
      "type": "function"
    },
    {
      "inputs": [
        {
          "internalType": "address",
          "name": "account",
          "type": "address"
        }
      ],
      "name": "excludeFromDividends",
      "outputs": [],
      "stateMutability": "nonpayable",
      "type": "function"
    },
    {
      "inputs": [
        {
          "internalType": "address",
          "name": "",
          "type": "address"
        }
      ],
      "name": "excludedFromDividends",
      "outputs": [
        {
          "internalType": "bool",
          "name": "",
          "type": "bool"
        }
      ],
      "stateMutability": "view",
      "type": "function"
    },
    {
      "inputs": [
        {
          "internalType": "address",
          "name": "_account",
          "type": "address"
        }
      ],
      "name": "getAccount",
      "outputs": [
        {
          "internalType": "address",
          "name": "account",
          "type": "address"
        },
        {
          "internalType": "int256",
          "name": "index",
          "type": "int256"
        },
        {
          "internalType": "int256",
          "name": "iterationsUntilProcessed",
          "type": "int256"
        },
        {
          "internalType": "uint256",
          "name": "withdrawableDividends",
          "type": "uint256"
        },
        {
          "internalType": "uint256",
          "name": "totalDividends",
          "type": "uint256"
        },
        {
          "internalType": "uint256",
          "name": "lastClaimTime",
          "type": "uint256"
        },
        {
          "internalType": "uint256",
          "name": "nextClaimTime",
          "type": "uint256"
        },
        {
          "internalType": "uint256",
          "name": "secondsUntilAutoClaimAvailable",
          "type": "uint256"
        }
      ],
      "stateMutability": "view",
      "type": "function"
    },
    {
      "inputs": [
        {
          "internalType": "uint256",
          "name": "index",
          "type": "uint256"
        }
      ],
      "name": "getAccountAtIndex",
      "outputs": [
        {
          "internalType": "address",
          "name": "",
          "type": "address"
        },
        {
          "internalType": "int256",
          "name": "",
          "type": "int256"
        },
        {
          "internalType": "int256",
          "name": "",
          "type": "int256"
        },
        {
          "internalType": "uint256",
          "name": "",
          "type": "uint256"
        },
        {
          "internalType": "uint256",
          "name": "",
          "type": "uint256"
        },
        {
          "internalType": "uint256",
          "name": "",
          "type": "uint256"
        },
        {
          "internalType": "uint256",
          "name": "",
          "type": "uint256"
        },
        {
          "internalType": "uint256",
          "name": "",
          "type": "uint256"
        }
      ],
      "stateMutability": "view",
      "type": "function"
    },
    {
      "inputs": [],
      "name": "getLastProcessedIndex",
      "outputs": [
        {
          "internalType": "uint256",
          "name": "",
          "type": "uint256"
        }
      ],
      "stateMutability": "view",
      "type": "function"
    },
    {
      "inputs": [],
      "name": "getNumberOfTokenHolders",
      "outputs": [
        {
          "internalType": "uint256",
          "name": "",
          "type": "uint256"
        }
      ],
      "stateMutability": "view",
      "type": "function"
    },
    {
      "inputs": [
        {
          "internalType": "address",
          "name": "account",
          "type": "address"
        },
        {
          "internalType": "uint256",
          "name": "balance",
          "type": "uint256"
        }
      ],
      "name": "includeInDividends",
      "outputs": [],
      "stateMutability": "nonpayable",
      "type": "function"
    },
    {
      "inputs": [
        {
          "internalType": "address",
          "name": "spender",
          "type": "address"
        },
        {
          "internalType": "uint256",
          "name": "addedValue",
          "type": "uint256"
        }
      ],
      "name": "increaseAllowance",
      "outputs": [
        {
          "internalType": "bool",
          "name": "",
          "type": "bool"
        }
      ],
      "stateMutability": "nonpayable",
      "type": "function"
    },
    {
      "inputs": [
        {
          "internalType": "address",
          "name": "",
          "type": "address"
        }
      ],
      "name": "lastClaimTimes",
      "outputs": [
        {
          "internalType": "uint256",
          "name": "",
          "type": "uint256"
        }
      ],
      "stateMutability": "view",
      "type": "function"
    },
    {
      "inputs": [],
      "name": "lastProcessedIndex",
      "outputs": [
        {
          "internalType": "uint256",
          "name": "",
          "type": "uint256"
        }
      ],
      "stateMutability": "view",
      "type": "function"
    },
    {
      "inputs": [],
      "name": "minimumTokenBalanceForDividends",
      "outputs": [
        {
          "internalType": "uint256",
          "name": "",
          "type": "uint256"
        }
      ],
      "stateMutability": "view",
      "type": "function"
    },
    {
      "inputs": [],
      "name": "name",
      "outputs": [
        {
          "internalType": "string",
          "name": "",
          "type": "string"
        }
      ],
      "stateMutability": "view",
      "type": "function"
    },
    {
      "inputs": [],
      "name": "owner",
      "outputs": [
        {
          "internalType": "address",
          "name": "",
          "type": "address"
        }
      ],
      "stateMutability": "view",
      "type": "function"
    },
    {
      "inputs": [
        {
          "internalType": "uint256",
          "name": "gas",
          "type": "uint256"
        }
      ],
      "name": "process",
      "outputs": [
        {
          "internalType": "uint256",
          "name": "",
          "type": "uint256"
        },
        {
          "internalType": "uint256",
          "name": "",
          "type": "uint256"
        },
        {
          "internalType": "uint256",
          "name": "",
          "type": "uint256"
        }
      ],
      "stateMutability": "nonpayable",
      "type": "function"
    },
    {
      "inputs": [
        {
          "internalType": "address payable",
          "name": "account",
          "type": "address"
        },
        {
          "internalType": "bool",
          "name": "automatic",
          "type": "bool"
        }
      ],
      "name": "processAccount",
      "outputs": [
        {
          "internalType": "bool",
          "name": "",
          "type": "bool"
        }
      ],
      "stateMutability": "nonpayable",
      "type": "function"
    },
    {
      "inputs": [],
      "name": "renounceOwnership",
      "outputs": [],
      "stateMutability": "nonpayable",
      "type": "function"
    },
    {
      "inputs": [
        {
          "internalType": "address payable",
          "name": "account",
          "type": "address"
        },
        {
          "internalType": "uint256",
          "name": "newBalance",
          "type": "uint256"
        }
      ],
      "name": "setBalance",
      "outputs": [],
      "stateMutability": "nonpayable",
      "type": "function"
    },
    {
      "inputs": [
        {
          "internalType": "address",
          "name": "newToken",
          "type": "address"
        }
      ],
      "name": "setDividendTokenAddress",
      "outputs": [],
      "stateMutability": "nonpayable",
      "type": "function"
    },
    {
      "inputs": [],
      "name": "symbol",
      "outputs": [
        {
          "internalType": "string",
          "name": "",
          "type": "string"
        }
      ],
      "stateMutability": "view",
      "type": "function"
    },
    {
      "inputs": [],
      "name": "totalDividendsDistributed",
      "outputs": [
        {
          "internalType": "uint256",
          "name": "",
          "type": "uint256"
        }
      ],
      "stateMutability": "view",
      "type": "function"
    },
    {
      "inputs": [],
      "name": "totalSupply",
      "outputs": [
        {
          "internalType": "uint256",
          "name": "",
          "type": "uint256"
        }
      ],
      "stateMutability": "view",
      "type": "function"
    },
    {
      "inputs": [
        {
          "internalType": "address",
          "name": "recipient",
          "type": "address"
        },
        {
          "internalType": "uint256",
          "name": "amount",
          "type": "uint256"
        }
      ],
      "name": "transfer",
      "outputs": [
        {
          "internalType": "bool",
          "name": "",
          "type": "bool"
        }
      ],
      "stateMutability": "nonpayable",
      "type": "function"
    },
    {
      "inputs": [
        {
          "internalType": "address",
          "name": "sender",
          "type": "address"
        },
        {
          "internalType": "address",
          "name": "recipient",
          "type": "address"
        },
        {
          "internalType": "uint256",
          "name": "amount",
          "type": "uint256"
        }
      ],
      "name": "transferFrom",
      "outputs": [
        {
          "internalType": "bool",
          "name": "",
          "type": "bool"
        }
      ],
      "stateMutability": "nonpayable",
      "type": "function"
    },
    {
      "inputs": [
        {
          "internalType": "address",
          "name": "newOwner",
          "type": "address"
        }
      ],
      "name": "transferOwnership",
      "outputs": [],
      "stateMutability": "nonpayable",
      "type": "function"
    },
    {
      "inputs": [
        {
          "internalType": "uint256",
          "name": "newClaimWait",
          "type": "uint256"
        }
      ],
      "name": "updateClaimWait",
      "outputs": [],
      "stateMutability": "nonpayable",
      "type": "function"
    },
    {
      "inputs": [],
      "name": "withdrawDividend",
      "outputs": [],
      "stateMutability": "pure",
      "type": "function"
    },
    {
      "inputs": [
        {
          "internalType": "address",
          "name": "_owner",
          "type": "address"
        }
      ],
      "name": "withdrawableDividendOf",
      "outputs": [
        {
          "internalType": "uint256",
          "name": "",
          "type": "uint256"
        }
      ],
      "stateMutability": "view",
      "type": "function"
    },
    {
      "inputs": [
        {
          "internalType": "address",
          "name": "_owner",
          "type": "address"
        }
      ],
      "name": "withdrawnDividendOf",
      "outputs": [
        {
          "internalType": "uint256",
          "name": "",
          "type": "uint256"
        }
      ],
      "stateMutability": "view",
      "type": "function"
    },
    {
      "stateMutability": "payable",
      "type": "receive"
    }
  ],
  "bytecode": "0x60a060405273e9e7cea3dedca5984780bafc599bd69add087d56600860006101000a81548173ffffffffffffffffffffffffffffffffffffffff021916908373ffffffffffffffffffffffffffffffffffffffff1602179055503480156200006657600080fd5b506040518060400160405280601681526020017f42555344435f4469766964656e645f547261636b6572000000000000000000008152506040518060400160405280601681526020017f42555344435f4469766964656e645f547261636b65720000000000000000000081525081818160039080519060200190620000ed929190620001fd565b50806004908051906020019062000106929190620001fd565b506009600560006101000a81548160ff021916908360ff16021790555050505050600062000139620001f560201b60201c565b905080600c60006101000a81548173ffffffffffffffffffffffffffffffffffffffff021916908373ffffffffffffffffffffffffffffffffffffffff1602179055508073ffffffffffffffffffffffffffffffffffffffff16600073ffffffffffffffffffffffffffffffffffffffff167f8be0079c531659141344cd1fd0a4f28419497f9722a3daafe3b4186f6b6457e060405160405180910390a350610e106014819055506509184e72a0006080818152505062000312565b600033905090565b8280546200020b90620002ad565b90600052602060002090601f0160209004810192826200022f57600085556200027b565b82601f106200024a57805160ff19168380011785556200027b565b828001600101855582156200027b579182015b828111156200027a5782518255916020019190600101906200025d565b5b5090506200028a91906200028e565b5090565b5b80821115620002a95760008160009055506001016200028f565b5090565b60006002820490506001821680620002c657607f821691505b60208210811415620002dd57620002dc620002e3565b5b50919050565b7f4e487b7100000000000000000000000000000000000000000000000000000000600052602260045260246000fd5b60805161411f62000335600039600081816119930152611b11015261411f6000f3fe6080604052600436106102345760003560e01c8063715018a61161012e578063b817d725116100ab578063e7841ec01161006f578063e7841ec0146108b8578063e98030c7146108e3578063f2fde38b1461090c578063fbcbc0f114610935578063ffb2c479146109795761023b565b8063b817d725146107c1578063bc4c4b37146107ea578063be10b61414610827578063dd62ed3e14610852578063e30443bc1461088f5761023b565b806395d89b41116100f257806395d89b41146106a2578063a457c2d7146106cd578063a8b9d2401461070a578063a9059cbb14610747578063aafd847a146107845761023b565b8063715018a6146105cf5780637e3e7fd2146105e657806385a6b3ae1461060f5780638da5cb5b1461063a57806391b89fba146106655761023b565b80633009a609116101bc5780634e7b827f116101805780634e7b827f146104cf5780635183d6fd1461050c5780636a474002146105505780636f2789ec1461056757806370a08231146105925761023b565b80633009a609146103ea578063313ce5671461041557806331e79db0146104405780633243c7911461046957806339509351146104925761023b565b80631582358e116102035780631582358e146102dd57806318160ddd14610308578063226cfa3d1461033357806323b872dd1461037057806327ce0147146103ad5761023b565b806303c833021461024057806306fdde031461024a578063095ea7b31461027557806309bbedde146102b25761023b565b3661023b57005b600080fd5b6102486109b8565b005b34801561025657600080fd5b5061025f610a91565b60405161026c91906138bf565b60405180910390f35b34801561028157600080fd5b5061029c60048036038101906102979190613133565b610b23565b6040516102a991906138a4565b60405180910390f35b3480156102be57600080fd5b506102c7610b41565b6040516102d49190613b4e565b60405180910390f35b3480156102e957600080fd5b506102f2610b51565b6040516102ff91906137e2565b60405180910390f35b34801561031457600080fd5b5061031d610b77565b60405161032a9190613b4e565b60405180910390f35b34801561033f57600080fd5b5061035a60048036038101906103559190612fde565b610b81565b6040516103679190613b4e565b60405180910390f35b34801561037c57600080fd5b50610397600480360381019061039291906130e4565b610b99565b6040516103a491906138a4565b60405180910390f35b3480156103b957600080fd5b506103d460048036038101906103cf9190612fde565b610c72565b6040516103e19190613b4e565b60405180910390f35b3480156103f657600080fd5b506103ff610d15565b60405161040c9190613b4e565b60405180910390f35b34801561042157600080fd5b5061042a610d1b565b6040516104379190613ba0565b60405180910390f35b34801561044c57600080fd5b5061046760048036038101906104629190612fde565b610d32565b005b34801561047557600080fd5b50610490600480360381019061048b91906131c1565b610f1a565b005b34801561049e57600080fd5b506104b960048036038101906104b49190613133565b610ff4565b6040516104c691906138a4565b60405180910390f35b3480156104db57600080fd5b506104f660048036038101906104f19190612fde565b6110a7565b60405161050391906138a4565b60405180910390f35b34801561051857600080fd5b50610533600480360381019061052e91906131c1565b6110c7565b604051610547989796959493929190613826565b60405180910390f35b34801561055c57600080fd5b5061056561125a565b005b34801561057357600080fd5b5061057c61129d565b6040516105899190613b4e565b60405180910390f35b34801561059e57600080fd5b506105b960048036038101906105b49190612fde565b6112a3565b6040516105c69190613b4e565b60405180910390f35b3480156105db57600080fd5b506105e46112eb565b005b3480156105f257600080fd5b5061060d60048036038101906106089190612fde565b611428565b005b34801561061b57600080fd5b5061062461146c565b6040516106319190613b4e565b60405180910390f35b34801561064657600080fd5b5061064f611472565b60405161065c91906137e2565b60405180910390f35b34801561067157600080fd5b5061068c60048036038101906106879190612fde565b61149c565b6040516106999190613b4e565b60405180910390f35b3480156106ae57600080fd5b506106b76114ae565b6040516106c491906138bf565b60405180910390f35b3480156106d957600080fd5b506106f460048036038101906106ef9190613133565b611540565b60405161070191906138a4565b60405180910390f35b34801561071657600080fd5b50610731600480360381019061072c9190612fde565b61160d565b60405161073e9190613b4e565b60405180910390f35b34801561075357600080fd5b5061076e60048036038101906107699190613133565b611670565b60405161077b91906138a4565b60405180910390f35b34801561079057600080fd5b506107ab60048036038101906107a69190612fde565b61168e565b6040516107b89190613b4e565b60405180910390f35b3480156107cd57600080fd5b506107e860048036038101906107e39190613133565b6116d7565b005b3480156107f657600080fd5b50610811600480360381019061080c9190613030565b611852565b60405161081e91906138a4565b60405180910390f35b34801561083357600080fd5b5061083c611991565b6040516108499190613b4e565b60405180910390f35b34801561085e57600080fd5b50610879600480360381019061087491906130a8565b6119b5565b6040516108869190613b4e565b60405180910390f35b34801561089b57600080fd5b506108b660048036038101906108b1919061306c565b611a3c565b005b3480156108c457600080fd5b506108cd611c3c565b6040516108da9190613b4e565b60405180910390f35b3480156108ef57600080fd5b5061090a600480360381019061090591906131c1565b611c46565b005b34801561091857600080fd5b50610933600480360381019061092e9190612fde565b611d95565b005b34801561094157600080fd5b5061095c60048036038101906109579190612fde565b611f41565b604051610970989796959493929190613826565b60405180910390f35b34801561098557600080fd5b506109a0600480360381019061099b91906131c1565b61212f565b6040516109af93929190613b69565b60405180910390f35b60006109c2610b77565b116109cc57600080fd5b6000341115610a8f57610a1f6109e0610b77565b610a04700100000000000000000000000000000000346122e790919063ffffffff16565b610a0e9190613cc1565b60065461236290919063ffffffff16565b6006819055503373ffffffffffffffffffffffffffffffffffffffff167fa493a9229478c3fcd73f66d2cdeb7f94fd0f341da924d1054236d7845411651134604051610a6b9190613b4e565b60405180910390a2610a8834600b5461236290919063ffffffff16565b600b819055505b565b606060038054610aa090613eee565b80601f0160208091040260200160405190810160405280929190818152602001828054610acc90613eee565b8015610b195780601f10610aee57610100808354040283529160200191610b19565b820191906000526020600020905b815481529060010190602001808311610afc57829003601f168201915b5050505050905090565b6000610b37610b306123c0565b84846123c8565b6001905092915050565b6000600d60000180549050905090565b600860009054906101000a900473ffffffffffffffffffffffffffffffffffffffff1681565b6000600254905090565b60136020528060005260406000206000915090505481565b6000610ba6848484612593565b610c6784610bb26123c0565b610c628560405180606001604052806028815260200161409d60289139600160008b73ffffffffffffffffffffffffffffffffffffffff1673ffffffffffffffffffffffffffffffffffffffff1681526020019081526020016000206000610c186123c0565b73ffffffffffffffffffffffffffffffffffffffff1673ffffffffffffffffffffffffffffffffffffffff168152602001908152602001600020546125d99092919063ffffffff16565b6123c8565b600190509392505050565b6000700100000000000000000000000000000000610d04610cff600960008673ffffffffffffffffffffffffffffffffffffffff1673ffffffffffffffffffffffffffffffffffffffff16815260200190815260200160002054610cf1610cec610cdb886112a3565b6006546122e790919063ffffffff16565b612637565b61265490919063ffffffff16565b61269f565b610d0e9190613cc1565b9050919050565b60115481565b6000600560009054906101000a900460ff16905090565b610d3a6123c0565b73ffffffffffffffffffffffffffffffffffffffff16610d58611472565b73ffffffffffffffffffffffffffffffffffffffff1614610dae576040517f08c379a0000000000000000000000000000000000000000000000000000000008152600401610da5906139e1565b60405180910390fd5b601260008273ffffffffffffffffffffffffffffffffffffffff1673ffffffffffffffffffffffffffffffffffffffff16815260200190815260200160002060009054906101000a900460ff1615610e0557600080fd5b6001601260008373ffffffffffffffffffffffffffffffffffffffff1673ffffffffffffffffffffffffffffffffffffffff16815260200190815260200160002060006101000a81548160ff021916908315150217905550610e688160006126b6565b600d73__$1fd1db2ca5c56cd92243d2bef90abc7401$__634c60db9c9091836040518363ffffffff1660e01b8152600401610ea4929190613a9c565b60006040518083038186803b158015610ebc57600080fd5b505af4158015610ed0573d6000803e3d6000fd5b505050508073ffffffffffffffffffffffffffffffffffffffff167fa878b31040b2e6d0a9a3d3361209db3908ba62014b0dca52adbaee451d128b2560405160405180910390a250565b6000610f24610b77565b11610f2e57600080fd5b6000811115610ff157610f81610f42610b77565b610f66700100000000000000000000000000000000846122e790919063ffffffff16565b610f709190613cc1565b60065461236290919063ffffffff16565b6006819055503373ffffffffffffffffffffffffffffffffffffffff167fa493a9229478c3fcd73f66d2cdeb7f94fd0f341da924d1054236d7845411651182604051610fcd9190613b4e565b60405180910390a2610fea81600b5461236290919063ffffffff16565b600b819055505b50565b600061109d6110016123c0565b8461109885600160006110126123c0565b73ffffffffffffffffffffffffffffffffffffffff1673ffffffffffffffffffffffffffffffffffffffff16815260200190815260200160002060008973ffffffffffffffffffffffffffffffffffffffff1673ffffffffffffffffffffffffffffffffffffffff1681526020019081526020016000205461236290919063ffffffff16565b6123c8565b6001905092915050565b60126020528060005260406000206000915054906101000a900460ff1681565b600080600080600080600080600d73__$1fd1db2ca5c56cd92243d2bef90abc7401$__63deb3d89690916040518263ffffffff1660e01b815260040161110d9190613a81565b60206040518083038186803b15801561112557600080fd5b505af4158015611139573d6000803e3d6000fd5b505050506040513d601f19601f8201168201806040525081019061115d91906131ea565b89106111a45760007fffffffffffffffffffffffffffffffffffffffffffffffffffffffffffffffff8060008060008060009750975097509750975097509750975061124f565b6000600d73__$1fd1db2ca5c56cd92243d2bef90abc7401$__63d1aa9e7e90918c6040518363ffffffff1660e01b81526004016111e2929190613b25565b60206040518083038186803b1580156111fa57600080fd5b505af415801561120e573d6000803e3d6000fd5b505050506040513d601f19601f820116820180604052508101906112329190613007565b905061123d81611f41565b98509850985098509850985098509850505b919395975091939597565b600061129b576040517f08c379a0000000000000000000000000000000000000000000000000000000008152600401611292906139a1565b60405180910390fd5b565b60145481565b60008060008373ffffffffffffffffffffffffffffffffffffffff1673ffffffffffffffffffffffffffffffffffffffff168152602001908152602001600020549050919050565b6112f36123c0565b73ffffffffffffffffffffffffffffffffffffffff16611311611472565b73ffffffffffffffffffffffffffffffffffffffff1614611367576040517f08c379a000000000000000000000000000000000000000000000000000000000815260040161135e906139e1565b60405180910390fd5b600073ffffffffffffffffffffffffffffffffffffffff16600c60009054906101000a900473ffffffffffffffffffffffffffffffffffffffff1673ffffffffffffffffffffffffffffffffffffffff167f8be0079c531659141344cd1fd0a4f28419497f9722a3daafe3b4186f6b6457e060405160405180910390a36000600c60006101000a81548173ffffffffffffffffffffffffffffffffffffffff021916908373ffffffffffffffffffffffffffffffffffffffff160217905550565b80600860006101000a81548173ffffffffffffffffffffffffffffffffffffffff021916908373ffffffffffffffffffffffffffffffffffffffff16021790555050565b600b5481565b6000600c60009054906101000a900473ffffffffffffffffffffffffffffffffffffffff16905090565b60006114a78261160d565b9050919050565b6060600480546114bd90613eee565b80601f01602080910402602001604051908101604052809291908181526020018280546114e990613eee565b80156115365780601f1061150b57610100808354040283529160200191611536565b820191906000526020600020905b81548152906001019060200180831161151957829003601f168201915b5050505050905090565b600061160361154d6123c0565b846115fe856040518060600160405280602581526020016140c560259139600160006115776123c0565b73ffffffffffffffffffffffffffffffffffffffff1673ffffffffffffffffffffffffffffffffffffffff16815260200190815260200160002060008a73ffffffffffffffffffffffffffffffffffffffff1673ffffffffffffffffffffffffffffffffffffffff168152602001908152602001600020546125d99092919063ffffffff16565b6123c8565b6001905092915050565b6000611669600a60008473ffffffffffffffffffffffffffffffffffffffff1673ffffffffffffffffffffffffffffffffffffffff1681526020019081526020016000205461165b84610c72565b61272390919063ffffffff16565b9050919050565b600061168461167d6123c0565b8484612593565b6001905092915050565b6000600a60008373ffffffffffffffffffffffffffffffffffffffff1673ffffffffffffffffffffffffffffffffffffffff168152602001908152602001600020549050919050565b6116df6123c0565b73ffffffffffffffffffffffffffffffffffffffff166116fd611472565b73ffffffffffffffffffffffffffffffffffffffff1614611753576040517f08c379a000000000000000000000000000000000000000000000000000000000815260040161174a906139e1565b60405180910390fd5b601260008373ffffffffffffffffffffffffffffffffffffffff1673ffffffffffffffffffffffffffffffffffffffff16815260200190815260200160002060009054906101000a900460ff166117a957600080fd5b6000601260008473ffffffffffffffffffffffffffffffffffffffff1673ffffffffffffffffffffffffffffffffffffffff16815260200190815260200160002060006101000a81548160ff02191690831515021790555061180b82826126b6565b8173ffffffffffffffffffffffffffffffffffffffff167f40a78dcf8526b72f2eaf598af1c7e49c8d5fc577f6c8f1bed887f3e4dfa2893260405160405180910390a25050565b600061185c6123c0565b73ffffffffffffffffffffffffffffffffffffffff1661187a611472565b73ffffffffffffffffffffffffffffffffffffffff16146118d0576040517f08c379a00000000000000000000000000000000000000000000000000000000081526004016118c7906139e1565b60405180910390fd5b60006118db8461277c565b905060008111156119855742601360008673ffffffffffffffffffffffffffffffffffffffff1673ffffffffffffffffffffffffffffffffffffffff168152602001908152602001600020819055508215158473ffffffffffffffffffffffffffffffffffffffff167fa2c38e2d2fb7e3e1912d937fd1ca11ed6d51864dee4cfa7a7bf02becd7acf092836040516119739190613b4e565b60405180910390a3600191505061198b565b60009150505b92915050565b7f000000000000000000000000000000000000000000000000000000000000000081565b6000600160008473ffffffffffffffffffffffffffffffffffffffff1673ffffffffffffffffffffffffffffffffffffffff16815260200190815260200160002060008373ffffffffffffffffffffffffffffffffffffffff1673ffffffffffffffffffffffffffffffffffffffff16815260200190815260200160002054905092915050565b611a446123c0565b73ffffffffffffffffffffffffffffffffffffffff16611a62611472565b73ffffffffffffffffffffffffffffffffffffffff1614611ab8576040517f08c379a0000000000000000000000000000000000000000000000000000000008152600401611aaf906139e1565b60405180910390fd5b601260008373ffffffffffffffffffffffffffffffffffffffff1673ffffffffffffffffffffffffffffffffffffffff16815260200190815260200160002060009054906101000a900460ff1615611b0f57611c38565b7f00000000000000000000000000000000000000000000000000000000000000008110611bb357611b4082826126b6565b600d73__$1fd1db2ca5c56cd92243d2bef90abc7401$__63bc2b405c909184846040518463ffffffff1660e01b8152600401611b7e93929190613aee565b60006040518083038186803b158015611b9657600080fd5b505af4158015611baa573d6000803e3d6000fd5b50505050611c2b565b611bbe8260006126b6565b600d73__$1fd1db2ca5c56cd92243d2bef90abc7401$__634c60db9c9091846040518363ffffffff1660e01b8152600401611bfa929190613ac5565b60006040518083038186803b158015611c1257600080fd5b505af4158015611c26573d6000803e3d6000fd5b505050505b611c36826001611852565b505b5050565b6000601154905090565b611c4e6123c0565b73ffffffffffffffffffffffffffffffffffffffff16611c6c611472565b73ffffffffffffffffffffffffffffffffffffffff1614611cc2576040517f08c379a0000000000000000000000000000000000000000000000000000000008152600401611cb9906139e1565b60405180910390fd5b610e108110158015611cd75750620151808111155b611d16576040517f08c379a0000000000000000000000000000000000000000000000000000000008152600401611d0d90613a41565b60405180910390fd5b601454811415611d5b576040517f08c379a0000000000000000000000000000000000000000000000000000000008152600401611d5290613981565b60405180910390fd5b601454817f474ea64804364a1e29a4487ddb63c3342a2dd826ccd8acf48825e680a0e6f20f60405160405180910390a38060148190555050565b611d9d6123c0565b73ffffffffffffffffffffffffffffffffffffffff16611dbb611472565b73ffffffffffffffffffffffffffffffffffffffff1614611e11576040517f08c379a0000000000000000000000000000000000000000000000000000000008152600401611e08906139e1565b60405180910390fd5b600073ffffffffffffffffffffffffffffffffffffffff168173ffffffffffffffffffffffffffffffffffffffff161415611e81576040517f08c379a0000000000000000000000000000000000000000000000000000000008152600401611e78906138e1565b60405180910390fd5b8073ffffffffffffffffffffffffffffffffffffffff16600c60009054906101000a900473ffffffffffffffffffffffffffffffffffffffff1673ffffffffffffffffffffffffffffffffffffffff167f8be0079c531659141344cd1fd0a4f28419497f9722a3daafe3b4186f6b6457e060405160405180910390a380600c60006101000a81548173ffffffffffffffffffffffffffffffffffffffff021916908373ffffffffffffffffffffffffffffffffffffffff16021790555050565b600080600080600080600080889750600d73__$1fd1db2ca5c56cd92243d2bef90abc7401$__6317e142d190918a6040518363ffffffff1660e01b8152600401611f8c929190613a9c565b60206040518083038186803b158015611fa457600080fd5b505af4158015611fb8573d6000803e3d6000fd5b505050506040513d601f19601f82011682018060405250810190611fdc9190613198565b96507fffffffffffffffffffffffffffffffffffffffffffffffffffffffffffffffff9550600087126120815760115487111561202f57612028601154886129e390919063ffffffff16565b9550612080565b6000601154600d6000018054905011612049576000612067565b612066601154600d6000018054905061272390919063ffffffff16565b5b905061207c818961265490919063ffffffff16565b9650505b5b61208a8861160d565b945061209588610c72565b9350601360008973ffffffffffffffffffffffffffffffffffffffff1673ffffffffffffffffffffffffffffffffffffffff168152602001908152602001600020549250600083116120e85760006120fe565b6120fd6014548461236290919063ffffffff16565b5b915042821161210e576000612122565b612121428361272390919063ffffffff16565b5b9050919395975091939597565b600080600080600d600001805490509050600081141561215b57600080601154935093509350506122e0565b600060115490506000805a90506000805b898410801561217a57508582105b156122c757848061218a90613f20565b955050600d6000018054905085106121a157600094505b6000600d60000186815481106121e0577f4e487b7100000000000000000000000000000000000000000000000000000000600052603260045260246000fd5b9060005260206000200160009054906101000a900473ffffffffffffffffffffffffffffffffffffffff169050612255601360008373ffffffffffffffffffffffffffffffffffffffff1673ffffffffffffffffffffffffffffffffffffffff16815260200190815260200160002054612a3e565b1561227a57612265816001611852565b1561227957818061227590613f20565b9250505b5b828061228590613f20565b93505060005a9050808511156122bd576122ba6122ab828761272390919063ffffffff16565b8761236290919063ffffffff16565b95505b809450505061216c565b8460118190555081816011549850985098505050505050505b9193909250565b6000808314156122fa576000905061235c565b600082846123089190613cf2565b90508284826123179190613cc1565b14612357576040517f08c379a000000000000000000000000000000000000000000000000000000000815260040161234e906139c1565b60405180910390fd5b809150505b92915050565b60008082846123719190613c6b565b9050838110156123b6576040517f08c379a00000000000000000000000000000000000000000000000000000000081526004016123ad90613921565b60405180910390fd5b8091505092915050565b600033905090565b600073ffffffffffffffffffffffffffffffffffffffff168373ffffffffffffffffffffffffffffffffffffffff161415612438576040517f08c379a000000000000000000000000000000000000000000000000000000000815260040161242f90613a21565b60405180910390fd5b600073ffffffffffffffffffffffffffffffffffffffff168273ffffffffffffffffffffffffffffffffffffffff1614156124a8576040517f08c379a000000000000000000000000000000000000000000000000000000000815260040161249f90613901565b60405180910390fd5b80600160008573ffffffffffffffffffffffffffffffffffffffff1673ffffffffffffffffffffffffffffffffffffffff16815260200190815260200160002060008473ffffffffffffffffffffffffffffffffffffffff1673ffffffffffffffffffffffffffffffffffffffff168152602001908152602001600020819055508173ffffffffffffffffffffffffffffffffffffffff168373ffffffffffffffffffffffffffffffffffffffff167f8c5be1e5ebec7d5bd14f71427d1e84f3dd0314c0f7b2291e5b200ac8c7c3b925836040516125869190613b4e565b60405180910390a3505050565b60006125d4576040517f08c379a00000000000000000000000000000000000000000000000000000000081526004016125cb90613941565b60405180910390fd5b505050565b6000838311158290612621576040517f08c379a000000000000000000000000000000000000000000000000000000000815260040161261891906138bf565b60405180910390fd5b50828461262e9190613de0565b90509392505050565b600080829050600081121561264b57600080fd5b80915050919050565b60008082846126639190613bd7565b9050600083121580156126765750838112155b8061268c575060008312801561268b57508381125b5b61269557600080fd5b8091505092915050565b6000808212156126ae57600080fd5b819050919050565b60006126c1836112a3565b9050808211156126f25760006126e0828461272390919063ffffffff16565b90506126ec8482612a71565b5061271e565b8082101561271d57600061270f838361272390919063ffffffff16565b905061271b8482612b30565b505b5b505050565b600082821115612768576040517f08c379a000000000000000000000000000000000000000000000000000000000815260040161275f90613961565b60405180910390fd5b81836127749190613de0565b905092915050565b6000806127888361160d565b905060008111156129d8576127e581600a60008673ffffffffffffffffffffffffffffffffffffffff1673ffffffffffffffffffffffffffffffffffffffff1681526020019081526020016000205461236290919063ffffffff16565b600a60008573ffffffffffffffffffffffffffffffffffffffff1673ffffffffffffffffffffffffffffffffffffffff168152602001908152602001600020819055508273ffffffffffffffffffffffffffffffffffffffff167fee503bee2bb6a87e57bc57db795f98137327401a0e7b7ce42e37926cc1a9ca4d8260405161286e9190613b4e565b60405180910390a26000600860009054906101000a900473ffffffffffffffffffffffffffffffffffffffff1673ffffffffffffffffffffffffffffffffffffffff1663a9059cbb85846040518363ffffffff1660e01b81526004016128d59291906137fd565b602060405180830381600087803b1580156128ef57600080fd5b505af1158015612903573d6000803e3d6000fd5b505050506040513d601f19601f82011682018060405250810190612927919061316f565b9050806129ce5761298082600a60008773ffffffffffffffffffffffffffffffffffffffff1673ffffffffffffffffffffffffffffffffffffffff1681526020019081526020016000205461272390919063ffffffff16565b600a60008673ffffffffffffffffffffffffffffffffffffffff1673ffffffffffffffffffffffffffffffffffffffff168152602001908152602001600020819055506000925050506129de565b81925050506129de565b60009150505b919050565b6000808212158015612a0057508282846129fd9190613d4c565b13155b80612a215750600082128015612a205750828284612a1e9190613d4c565b135b5b612a2a57600080fd5b8183612a369190613d4c565b905092915050565b600042821115612a515760009050612a6c565b601454612a67834261272390919063ffffffff16565b101590505b919050565b612a7b8282612bef565b612ae9612a9b612a96836006546122e790919063ffffffff16565b612637565b600960008573ffffffffffffffffffffffffffffffffffffffff1673ffffffffffffffffffffffffffffffffffffffff168152602001908152602001600020546129e390919063ffffffff16565b600960008473ffffffffffffffffffffffffffffffffffffffff1673ffffffffffffffffffffffffffffffffffffffff168152602001908152602001600020819055505050565b612b3a8282612d83565b612ba8612b5a612b55836006546122e790919063ffffffff16565b612637565b600960008573ffffffffffffffffffffffffffffffffffffffff1673ffffffffffffffffffffffffffffffffffffffff1681526020019081526020016000205461265490919063ffffffff16565b600960008473ffffffffffffffffffffffffffffffffffffffff1673ffffffffffffffffffffffffffffffffffffffff168152602001908152602001600020819055505050565b600073ffffffffffffffffffffffffffffffffffffffff168273ffffffffffffffffffffffffffffffffffffffff161415612c5f576040517f08c379a0000000000000000000000000000000000000000000000000000000008152600401612c5690613a61565b60405180910390fd5b612c6b60008383612f31565b612c808160025461236290919063ffffffff16565b600281905550612cd7816000808573ffffffffffffffffffffffffffffffffffffffff1673ffffffffffffffffffffffffffffffffffffffff1681526020019081526020016000205461236290919063ffffffff16565b6000808473ffffffffffffffffffffffffffffffffffffffff1673ffffffffffffffffffffffffffffffffffffffff168152602001908152602001600020819055508173ffffffffffffffffffffffffffffffffffffffff16600073ffffffffffffffffffffffffffffffffffffffff167fddf252ad1be2c89b69c2b068fc378daa952ba7f163c4a11628f55a4df523b3ef83604051612d779190613b4e565b60405180910390a35050565b600073ffffffffffffffffffffffffffffffffffffffff168273ffffffffffffffffffffffffffffffffffffffff161415612df3576040517f08c379a0000000000000000000000000000000000000000000000000000000008152600401612dea90613a01565b60405180910390fd5b612dff82600083612f31565b612e6a8160405180606001604052806022815260200161407b602291396000808673ffffffffffffffffffffffffffffffffffffffff1673ffffffffffffffffffffffffffffffffffffffff168152602001908152602001600020546125d99092919063ffffffff16565b6000808473ffffffffffffffffffffffffffffffffffffffff1673ffffffffffffffffffffffffffffffffffffffff16815260200190815260200160002081905550612ec18160025461272390919063ffffffff16565b600281905550600073ffffffffffffffffffffffffffffffffffffffff168273ffffffffffffffffffffffffffffffffffffffff167fddf252ad1be2c89b69c2b068fc378daa952ba7f163c4a11628f55a4df523b3ef83604051612f259190613b4e565b60405180910390a35050565b505050565b600081359050612f4581614007565b92915050565b600081519050612f5a81614007565b92915050565b600081359050612f6f8161401e565b92915050565b600081359050612f8481614035565b92915050565b600081519050612f9981614035565b92915050565b600081519050612fae8161404c565b92915050565b600081359050612fc381614063565b92915050565b600081519050612fd881614063565b92915050565b600060208284031215612ff057600080fd5b6000612ffe84828501612f36565b91505092915050565b60006020828403121561301957600080fd5b600061302784828501612f4b565b91505092915050565b6000806040838503121561304357600080fd5b600061305185828601612f60565b925050602061306285828601612f75565b9150509250929050565b6000806040838503121561307f57600080fd5b600061308d85828601612f60565b925050602061309e85828601612fb4565b9150509250929050565b600080604083850312156130bb57600080fd5b60006130c985828601612f36565b92505060206130da85828601612f36565b9150509250929050565b6000806000606084860312156130f957600080fd5b600061310786828701612f36565b935050602061311886828701612f36565b925050604061312986828701612fb4565b9150509250925092565b6000806040838503121561314657600080fd5b600061315485828601612f36565b925050602061316585828601612fb4565b9150509250929050565b60006020828403121561318157600080fd5b600061318f84828501612f8a565b91505092915050565b6000602082840312156131aa57600080fd5b60006131b884828501612f9f565b91505092915050565b6000602082840312156131d357600080fd5b60006131e184828501612fb4565b91505092915050565b6000602082840312156131fc57600080fd5b600061320a84828501612fc9565b91505092915050565b61321c81613e85565b82525050565b61322b81613e85565b82525050565b61323a81613e14565b82525050565b61324981613e14565b82525050565b61325881613e38565b82525050565b61326781613e44565b82525050565b600061327882613bbb565b6132828185613bc6565b9350613292818560208601613ebb565b61329b81613ff6565b840191505092915050565b60006132b3602683613bc6565b91507f4f776e61626c653a206e6577206f776e657220697320746865207a65726f206160008301527f64647265737300000000000000000000000000000000000000000000000000006020830152604082019050919050565b6000613319602283613bc6565b91507f45524332303a20617070726f766520746f20746865207a65726f20616464726560008301527f73730000000000000000000000000000000000000000000000000000000000006020830152604082019050919050565b600061337f601b83613bc6565b91507f536166654d6174683a206164646974696f6e206f766572666c6f7700000000006000830152602082019050919050565b60006133bf602c83613bc6565b91507f42555344435f4469766964656e645f547261636b65723a204e6f207472616e7360008301527f6665727320616c6c6f77656400000000000000000000000000000000000000006020830152604082019050919050565b6000613425601e83613bc6565b91507f536166654d6174683a207375627472616374696f6e206f766572666c6f7700006000830152602082019050919050565b6000613465603d83613bc6565b91507f42555344435f4469766964656e645f547261636b65723a2043616e6e6f74207560008301527f706461746520636c61696d5761697420746f2073616d652076616c75650000006020830152604082019050919050565b60006134cb606783613bc6565b91507f42555344435f4469766964656e645f547261636b65723a20776974686472617760008301527f4469766964656e642064697361626c65642e20557365207468652027636c616960208301527f6d272066756e6374696f6e206f6e20746865206d61696e20425553444320636f60408301527f6e74726163742e000000000000000000000000000000000000000000000000006060830152608082019050919050565b600061357d602183613bc6565b91507f536166654d6174683a206d756c7469706c69636174696f6e206f766572666c6f60008301527f77000000000000000000000000000000000000000000000000000000000000006020830152604082019050919050565b60006135e3602083613bc6565b91507f4f776e61626c653a2063616c6c6572206973206e6f7420746865206f776e65726000830152602082019050919050565b6000613623602183613bc6565b91507f45524332303a206275726e2066726f6d20746865207a65726f2061646472657360008301527f73000000000000000000000000000000000000000000000000000000000000006020830152604082019050919050565b6000613689602483613bc6565b91507f45524332303a20617070726f76652066726f6d20746865207a65726f2061646460008301527f72657373000000000000000000000000000000000000000000000000000000006020830152604082019050919050565b60006136ef604b83613bc6565b91507f42555344435f4469766964656e645f547261636b65723a20636c61696d57616960008301527f74206d757374206265207570646174656420746f206265747765656e2031206160208301527f6e6420323420686f7572730000000000000000000000000000000000000000006040830152606082019050919050565b600061377b601f83613bc6565b91507f45524332303a206d696e7420746f20746865207a65726f2061646472657373006000830152602082019050919050565b8082525050565b6137be81613e6e565b82525050565b6137cd81613e6e565b82525050565b6137dc81613e78565b82525050565b60006020820190506137f76000830184613231565b92915050565b60006040820190506138126000830185613213565b61381f60208301846137b5565b9392505050565b60006101008201905061383c600083018b613231565b613849602083018a61325e565b613856604083018961325e565b61386360608301886137b5565b61387060808301876137b5565b61387d60a08301866137b5565b61388a60c08301856137b5565b61389760e08301846137b5565b9998505050505050505050565b60006020820190506138b9600083018461324f565b92915050565b600060208201905081810360008301526138d9818461326d565b905092915050565b600060208201905081810360008301526138fa816132a6565b9050919050565b6000602082019050818103600083015261391a8161330c565b9050919050565b6000602082019050818103600083015261393a81613372565b9050919050565b6000602082019050818103600083015261395a816133b2565b9050919050565b6000602082019050818103600083015261397a81613418565b9050919050565b6000602082019050818103600083015261399a81613458565b9050919050565b600060208201905081810360008301526139ba816134be565b9050919050565b600060208201905081810360008301526139da81613570565b9050919050565b600060208201905081810360008301526139fa816135d6565b9050919050565b60006020820190508181036000830152613a1a81613616565b9050919050565b60006020820190508181036000830152613a3a8161367c565b9050919050565b60006020820190508181036000830152613a5a816136e2565b9050919050565b60006020820190508181036000830152613a7a8161376e565b9050919050565b6000602082019050613a9660008301846137ae565b92915050565b6000604082019050613ab160008301856137ae565b613abe6020830184613240565b9392505050565b6000604082019050613ada60008301856137ae565b613ae76020830184613222565b9392505050565b6000606082019050613b0360008301866137ae565b613b106020830185613222565b613b1d60408301846137c4565b949350505050565b6000604082019050613b3a60008301856137ae565b613b4760208301846137c4565b9392505050565b6000602082019050613b6360008301846137b5565b92915050565b6000606082019050613b7e60008301866137b5565b613b8b60208301856137b5565b613b9860408301846137b5565b949350505050565b6000602082019050613bb560008301846137d3565b92915050565b600081519050919050565b600082825260208201905092915050565b6000613be282613e44565b9150613bed83613e44565b9250817f7fffffffffffffffffffffffffffffffffffffffffffffffffffffffffffffff03831360008312151615613c2857613c27613f69565b5b817f8000000000000000000000000000000000000000000000000000000000000000038312600083121615613c6057613c5f613f69565b5b828201905092915050565b6000613c7682613e6e565b9150613c8183613e6e565b9250827fffffffffffffffffffffffffffffffffffffffffffffffffffffffffffffffff03821115613cb657613cb5613f69565b5b828201905092915050565b6000613ccc82613e6e565b9150613cd783613e6e565b925082613ce757613ce6613f98565b5b828204905092915050565b6000613cfd82613e6e565b9150613d0883613e6e565b9250817fffffffffffffffffffffffffffffffffffffffffffffffffffffffffffffffff0483118215151615613d4157613d40613f69565b5b828202905092915050565b6000613d5782613e44565b9150613d6283613e44565b9250827f800000000000000000000000000000000000000000000000000000000000000001821260008412151615613d9d57613d9c613f69565b5b827f7fffffffffffffffffffffffffffffffffffffffffffffffffffffffffffffff018213600084121615613dd557613dd4613f69565b5b828203905092915050565b6000613deb82613e6e565b9150613df683613e6e565b925082821015613e0957613e08613f69565b5b828203905092915050565b6000613e1f82613e4e565b9050919050565b6000613e3182613e4e565b9050919050565b60008115159050919050565b6000819050919050565b600073ffffffffffffffffffffffffffffffffffffffff82169050919050565b6000819050919050565b600060ff82169050919050565b6000613e9082613e97565b9050919050565b6000613ea282613ea9565b9050919050565b6000613eb482613e4e565b9050919050565b60005b83811015613ed9578082015181840152602081019050613ebe565b83811115613ee8576000848401525b50505050565b60006002820490506001821680613f0657607f821691505b60208210811415613f1a57613f19613fc7565b5b50919050565b6000613f2b82613e6e565b91507fffffffffffffffffffffffffffffffffffffffffffffffffffffffffffffffff821415613f5e57613f5d613f69565b5b600182019050919050565b7f4e487b7100000000000000000000000000000000000000000000000000000000600052601160045260246000fd5b7f4e487b7100000000000000000000000000000000000000000000000000000000600052601260045260246000fd5b7f4e487b7100000000000000000000000000000000000000000000000000000000600052602260045260246000fd5b6000601f19601f8301169050919050565b61401081613e14565b811461401b57600080fd5b50565b61402781613e26565b811461403257600080fd5b50565b61403e81613e38565b811461404957600080fd5b50565b61405581613e44565b811461406057600080fd5b50565b61406c81613e6e565b811461407757600080fd5b5056fe45524332303a206275726e20616d6f756e7420657863656564732062616c616e636545524332303a207472616e7366657220616d6f756e74206578636565647320616c6c6f77616e636545524332303a2064656372656173656420616c6c6f77616e63652062656c6f77207a65726fa264697066735822122080fb114974eee00c09d0f7f886ee5501b8f1470a4b1e304ef6e4dcf02ad5dd7664736f6c63430008000033",
  "linkReferences": {
    "contracts/BUSDC.sol": {
      "IterableMapping": [
        {
          "length": 20,
          "start": 4513
        },
        {
          "length": 20,
          "start": 5132
        },
        {
          "length": 20,
          "start": 5343
        },
        {
          "length": 20,
          "start": 7801
        },
        {
          "length": 20,
          "start": 7927
        },
        {
          "length": 20,
          "start": 8841
        }
      ]
    }
  },
  "deployedLinkReferences": {
    "contracts/BUSDC.sol": {
      "IterableMapping": [
        {
          "length": 20,
          "start": 3692
        },
        {
          "length": 20,
          "start": 4311
        },
        {
          "length": 20,
          "start": 4522
        },
        {
          "length": 20,
          "start": 6980
        },
        {
          "length": 20,
          "start": 7106
        },
        {
          "length": 20,
          "start": 8020
        }
      ]
    }
  }
}