{
  "contracts/FREE.sol": {
    "FREE": {
      "abi": [
        {
          "constant": true,
          "inputs": [
            {
              "name": "_customerAddress",
              "type": "address"
            }
          ],
          "name": "dividendsOf",
          "outputs": [
            {
              "name": "",
              "type": "uint256"
            }
          ],
          "payable": false,
          "stateMutability": "view",
          "type": "function"
        },
        {
          "constant": true,
          "inputs": [],
          "name": "name",
          "outputs": [
            {
              "name": "",
              "type": "string"
            }
          ],
          "payable": false,
          "stateMutability": "view",
          "type": "function"
        },
        {
          "constant": true,
          "inputs": [
            {
              "name": "_ethereumToSpend",
              "type": "uint256"
            }
          ],
          "name": "calculateTokensReceived",
          "outputs": [
            {
              "name": "",
              "type": "uint256"
            }
          ],
          "payable": false,
          "stateMutability": "view",
          "type": "function"
        },
        {
          "constant": true,
          "inputs": [],
          "name": "totalSupply",
          "outputs": [
            {
              "name": "",
              "type": "uint256"
            }
          ],
          "payable": false,
          "stateMutability": "view",
          "type": "function"
        },
        {
          "constant": true,
          "inputs": [
            {
              "name": "_tokensToSell",
              "type": "uint256"
            }
          ],
          "name": "calculateEthereumReceived",
          "outputs": [
            {
              "name": "",
              "type": "uint256"
            }
          ],
          "payable": false,
          "stateMutability": "view",
          "type": "function"
        },
        {
          "constant": true,
          "inputs": [],
          "name": "onlyAmbassadors",
          "outputs": [
            {
              "name": "",
              "type": "bool"
            }
          ],
          "payable": false,
          "stateMutability": "view",
          "type": "function"
        },
        {
          "constant": true,
          "inputs": [],
          "name": "decimals",
          "outputs": [
            {
              "name": "",
              "type": "uint8"
            }
          ],
          "payable": false,
          "stateMutability": "view",
          "type": "function"
        },
        {
          "constant": true,
          "inputs": [
            {
              "name": "",
              "type": "bytes32"
            }
          ],
          "name": "administrators",
          "outputs": [
            {
              "name": "",
              "type": "bool"
            }
          ],
          "payable": false,
          "stateMutability": "view",
          "type": "function"
        },
        {
          "constant": false,
          "inputs": [],
          "name": "withdraw",
          "outputs": [],
          "payable": false,
          "stateMutability": "nonpayable",
          "type": "function"
        },
        {
          "constant": true,
          "inputs": [],
          "name": "sellPrice",
          "outputs": [
            {
              "name": "",
              "type": "uint256"
            }
          ],
          "payable": false,
          "stateMutability": "view",
          "type": "function"
        },
        {
          "constant": true,
          "inputs": [],
          "name": "stakingRequirement",
          "outputs": [
            {
              "name": "",
              "type": "uint256"
            }
          ],
          "payable": false,
          "stateMutability": "view",
          "type": "function"
        },
        {
          "constant": false,
          "inputs": [],
          "name": "GandhiJi",
          "outputs": [],
          "payable": false,
          "stateMutability": "nonpayable",
          "type": "function"
        },
        {
          "constant": true,
          "inputs": [
            {
              "name": "_includeReferralBonus",
              "type": "bool"
            }
          ],
          "name": "myDividends",
          "outputs": [
            {
              "name": "",
              "type": "uint256"
            }
          ],
          "payable": false,
          "stateMutability": "view",
          "type": "function"
        },
        {
          "constant": true,
          "inputs": [],
          "name": "totalEthereumBalance",
          "outputs": [
            {
              "name": "",
              "type": "uint256"
            }
          ],
          "payable": false,
          "stateMutability": "view",
          "type": "function"
        },
        {
          "constant": true,
          "inputs": [
            {
              "name": "_customerAddress",
              "type": "address"
            }
          ],
          "name": "balanceOf",
          "outputs": [
            {
              "name": "",
              "type": "uint256"
            }
          ],
          "payable": false,
          "stateMutability": "view",
          "type": "function"
        },
        {
          "constant": false,
          "inputs": [
            {
              "name": "_amountOfTokens",
              "type": "uint256"
            }
          ],
          "name": "setStakingRequirement",
          "outputs": [],
          "payable": false,
          "stateMutability": "nonpayable",
          "type": "function"
        },
        {
          "constant": true,
          "inputs": [],
          "name": "buyPrice",
          "outputs": [
            {
              "name": "",
              "type": "uint256"
            }
          ],
          "payable": false,
          "stateMutability": "view",
          "type": "function"
        },
        {
          "constant": false,
          "inputs": [
            {
              "name": "_identifier",
              "type": "bytes32"
            },
            {
              "name": "_status",
              "type": "bool"
            }
          ],
          "name": "setAdministrator",
          "outputs": [],
          "payable": false,
          "stateMutability": "nonpayable",
          "type": "function"
        },
        {
          "constant": true,
          "inputs": [],
          "name": "myTokens",
          "outputs": [
            {
              "name": "",
              "type": "uint256"
            }
          ],
          "payable": false,
          "stateMutability": "view",
          "type": "function"
        },
        {
          "constant": true,
          "inputs": [],
          "name": "symbol",
          "outputs": [
            {
              "name": "",
              "type": "string"
            }
          ],
          "payable": false,
          "stateMutability": "view",
          "type": "function"
        },
        {
          "constant": false,
          "inputs": [],
          "name": "disableInitialStage",
          "outputs": [],
          "payable": false,
          "stateMutability": "nonpayable",
          "type": "function"
        },
        {
          "constant": false,
          "inputs": [
            {
              "name": "_toAddress",
              "type": "address"
            },
            {
              "name": "_amountOfTokens",
              "type": "uint256"
            }
          ],
          "name": "transfer",
          "outputs": [
            {
              "name": "",
              "type": "bool"
            }
          ],
          "payable": false,
          "stateMutability": "nonpayable",
          "type": "function"
        },
        {
          "constant": false,
          "inputs": [
            {
              "name": "_symbol",
              "type": "string"
            }
          ],
          "name": "setSymbol",
          "outputs": [],
          "payable": false,
          "stateMutability": "nonpayable",
          "type": "function"
        },
        {
          "constant": false,
          "inputs": [
            {
              "name": "_name",
              "type": "string"
            }
          ],
          "name": "setName",
          "outputs": [],
          "payable": false,
          "stateMutability": "nonpayable",
          "type": "function"
        },
        {
          "constant": false,
          "inputs": [
            {
              "name": "_amountOfTokens",
              "type": "uint256"
            }
          ],
          "name": "sell",
          "outputs": [],
          "payable": false,
          "stateMutability": "nonpayable",
          "type": "function"
        },
        {
          "constant": false,
          "inputs": [],
          "name": "exit",
          "outputs": [],
          "payable": false,
          "stateMutability": "nonpayable",
          "type": "function"
        },
        {
          "constant": false,
          "inputs": [
            {
              "name": "_referredBy",
              "type": "address"
            }
          ],
          "name": "buy",
          "outputs": [
            {
              "name": "",
              "type": "uint256"
            }
          ],
          "payable": true,
          "stateMutability": "payable",
          "type": "function"
        },
        {
          "constant": false,
          "inputs": [],
          "name": "reinvest",
          "outputs": [],
          "payable": false,
          "stateMutability": "nonpayable",
          "type": "function"
        },
        {
          "payable": true,
          "stateMutability": "payable",
          "type": "fallback"
        },
        {
          "anonymous": false,
          "inputs": [
            {
              "indexed": true,
              "name": "customerAddress",
              "type": "address"
            },
            {
              "indexed": false,
              "name": "incomingEthereum",
              "type": "uint256"
            },
            {
              "indexed": false,
              "name": "tokensMinted",
              "type": "uint256"
            },
            {
              "indexed": true,
              "name": "referredBy",
              "type": "address"
            }
          ],
          "name": "onTokenPurchase",
          "type": "event"
        },
        {
          "anonymous": false,
          "inputs": [
            {
              "indexed": true,
              "name": "customerAddress",
              "type": "address"
            },
            {
              "indexed": false,
              "name": "tokensBurned",
              "type": "uint256"
            },
            {
              "indexed": false,
              "name": "ethereumEarned",
              "type": "uint256"
            }
          ],
          "name": "onTokenSell",
          "type": "event"
        },
        {
          "anonymous": false,
          "inputs": [
            {
              "indexed": true,
              "name": "customerAddress",
              "type": "address"
            },
            {
              "indexed": false,
              "name": "ethereumReinvested",
              "type": "uint256"
            },
            {
              "indexed": false,
              "name": "tokensMinted",
              "type": "uint256"
            }
          ],
          "name": "onReinvestment",
          "type": "event"
        },
        {
          "anonymous": false,
          "inputs": [
            {
              "indexed": true,
              "name": "customerAddress",
              "type": "address"
            },
            {
              "indexed": false,
              "name": "ethereumWithdrawn",
              "type": "uint256"
            }
          ],
          "name": "onWithdraw",
          "type": "event"
        },
        {
          "anonymous": false,
          "inputs": [
            {
              "indexed": true,
              "name": "from",
              "type": "address"
            },
            {
              "indexed": true,
              "name": "to",
              "type": "address"
            },
            {
              "indexed": false,
              "name": "tokens",
              "type": "uint256"
            }
          ],
          "name": "Transfer",
          "type": "event"
        }
      ],
      "evm": {
        "bytecode": {
          "linkReferences": {},
          "object": "60606040526040805190810160405280600c81526020017f46524545444f4d20434f494e00000000000000000000000000000000000000008152506000908051906020019062000051929190620000de565b506040805190810160405280600481526020017f4652454500000000000000000000000000000000000000000000000000000000815250600190805190602001906200009f929190620000de565b50670de0b6b3a764000060025560006008556000600b60006101000a81548160ff0219169083151502179055503415620000d857600080fd5b6200018d565b828054600181600116156101000203166002900490600052602060002090601f016020900481019282601f106200012157805160ff191683800117855562000152565b8280016001018555821562000152579182015b828111156200015157825182559160200191906001019062000134565b5b50905062000161919062000165565b5090565b6200018a91905b80821115620001865760008160009055506001016200016c565b5090565b90565b612468806200019d6000396000f300606060405260043610610169576000357c0100000000000000000000000000000000000000000000000000000000900463ffffffff16806265318b1461017757806306fdde03146101c457806310d0ffdd1461025257806318160ddd1461028957806322609373146102b257806327defa1f146102e9578063313ce56714610316578063392efb52146103455780633ccfd60b146103845780634b7503341461039957806356d399e8146103c257806358d63255146103eb578063688abbf7146104005780636b2f46321461043957806370a08231146104625780638328b610146104af5780638620410b146104d257806389135ae9146104fb578063949e8acd1461052d57806395d89b4114610556578063a8e04f34146105e4578063a9059cbb146105f9578063b84c824614610653578063c47f0027146106b0578063e4849b321461070d578063e9fad8ee14610730578063f088d54714610745578063fdb5a03e14610787575b61017434600061079c565b50005b341561018257600080fd5b6101ae600480803573ffffffffffffffffffffffffffffffffffffffff1690602001909190505061109b565b6040518082815260200191505060405180910390f35b34156101cf57600080fd5b6101d761113d565b6040518080602001828103825283818151815260200191508051906020019080838360005b838110156102175780820151818401526020810190506101fc565b50505050905090810190601f1680156102445780820380516001836020036101000a031916815260200191505b509250505060405180910390f35b341561025d57600080fd5b61027360048080359060200190919050506111db565b6040518082815260200191505060405180910390f35b341561029457600080fd5b61029c611213565b6040518082815260200191505060405180910390f35b34156102bd57600080fd5b6102d3600480803590602001909190505061121d565b6040518082815260200191505060405180910390f35b34156102f457600080fd5b6102fc611266565b604051808215151515815260200191505060405180910390f35b341561032157600080fd5b610329611279565b604051808260ff1660ff16815260200191505060405180910390f35b341561035057600080fd5b61036a60048080356000191690602001909190505061127e565b604051808215151515815260200191505060405180910390f35b341561038f57600080fd5b61039761129e565b005b34156103a457600080fd5b6103ac61143b565b6040518082815260200191505060405180910390f35b34156103cd57600080fd5b6103d5611499565b6040518082815260200191505060405180910390f35b34156103f657600080fd5b6103fe61149f565b005b341561040b57600080fd5b6104236004808035151590602001909190505061154c565b6040518082815260200191505060405180910390f35b341561044457600080fd5b61044c6115b8565b6040518082815260200191505060405180910390f35b341561046d57600080fd5b610499600480803573ffffffffffffffffffffffffffffffffffffffff169060200190919050506115d7565b6040518082815260200191505060405180910390f35b34156104ba57600080fd5b6104d06004808035906020019091905050611620565b005b34156104dd57600080fd5b6104e56116b4565b6040518082815260200191505060405180910390f35b341561050657600080fd5b61052b6004808035600019169060200190919080351515906020019091905050611712565b005b341561053857600080fd5b6105406117d3565b6040518082815260200191505060405180910390f35b341561056157600080fd5b6105696117e8565b6040518080602001828103825283818151815260200191508051906020019080838360005b838110156105a957808201518184015260208101905061058e565b50505050905090810190601f1680156105d65780820380516001836020036101000a031916815260200191505b509250505060405180910390f35b34156105ef57600080fd5b6105f7611886565b005b341561060457600080fd5b610639600480803573ffffffffffffffffffffffffffffffffffffffff1690602001909190803590602001909190505061192d565b604051808215151515815260200191505060405180910390f35b341561065e57600080fd5b6106ae600480803590602001908201803590602001908080601f01602080910402602001604051908101604052809392919081815260200183838082843782019150505050505091905050611c5f565b005b34156106bb57600080fd5b61070b600480803590602001908201803590602001908080601f01602080910402602001604051908101604052809392919081815260200183838082843782019150505050505091905050611d03565b005b341561071857600080fd5b61072e6004808035906020019091905050611da7565b005b341561073b57600080fd5b610743611fd5565b005b610771600480803573ffffffffffffffffffffffffffffffffffffffff1690602001909190505061203c565b6040518082815260200191505060405180910390f35b341561079257600080fd5b61079a61204e565b005b60008060008060008060008060008a6000339050600b60009054906101000a900460ff1680156107dd5750670de0b6b3a7640000826107d96115b8565b0311155b15610ccb5760011515600360008373ffffffffffffffffffffffffffffffffffffffff1673ffffffffffffffffffffffffffffffffffffffff16815260200190815260200160002060009054906101000a900460ff16151514801561088b5750670de0b6b3a764000082600760008473ffffffffffffffffffffffffffffffffffffffff1673ffffffffffffffffffffffffffffffffffffffff168152602001908152602001600020540111155b151561089657600080fd5b6108df600760008373ffffffffffffffffffffffffffffffffffffffff1673ffffffffffffffffffffffffffffffffffffffff16815260200190815260200160002054836121c2565b600760008373ffffffffffffffffffffffffffffffffffffffff1673ffffffffffffffffffffffffffffffffffffffff168152602001908152602001600020819055503399506109338d600a60ff166121e0565b98506109408960036121e0565b975061094c89896121fb565b96506109588d8a6121fb565b955061096386612214565b9450680100000000000000008702935060008511801561098f575060085461098d866008546121c2565b115b151561099a57600080fd5b600073ffffffffffffffffffffffffffffffffffffffff168c73ffffffffffffffffffffffffffffffffffffffff1614158015610a0357508973ffffffffffffffffffffffffffffffffffffffff168c73ffffffffffffffffffffffffffffffffffffffff1614155b8015610a505750600254600460008e73ffffffffffffffffffffffffffffffffffffffff1673ffffffffffffffffffffffffffffffffffffffff1681526020019081526020016000205410155b15610ae657610a9e600560008e73ffffffffffffffffffffffffffffffffffffffff1673ffffffffffffffffffffffffffffffffffffffff16815260200190815260200160002054896121c2565b600560008e73ffffffffffffffffffffffffffffffffffffffff1673ffffffffffffffffffffffffffffffffffffffff16815260200190815260200160002081905550610b01565b610af087896121c2565b965068010000000000000000870293505b60006008541115610b6c57610b18600854866121c2565b600881905550600854680100000000000000008802811515610b3657fe5b04600960008282540192505081905550600854680100000000000000008802811515610b5e57fe5b048502840384039350610b74565b846008819055505b610bbd600460008c73ffffffffffffffffffffffffffffffffffffffff1673ffffffffffffffffffffffffffffffffffffffff16815260200190815260200160002054866121c2565b600460008c73ffffffffffffffffffffffffffffffffffffffff1673ffffffffffffffffffffffffffffffffffffffff1681526020019081526020016000208190555083856009540203925082600660008c73ffffffffffffffffffffffffffffffffffffffff1673ffffffffffffffffffffffffffffffffffffffff168152602001908152602001600020600082825401925050819055508b73ffffffffffffffffffffffffffffffffffffffff168a73ffffffffffffffffffffffffffffffffffffffff167f022c0d992e4d873a3748436d960d5140c1f9721cf73f7ca5ec679d3d9f4fe2d58f88604051808381526020018281526020019250505060405180910390a3849a5061108b565b6000600b60006101000a81548160ff021916908315150217905550339950610cf78d600a60ff166121e0565b9850610d048960036121e0565b9750610d1089896121fb565b9650610d1c8d8a6121fb565b9550610d2786612214565b94506801000000000000000087029350600085118015610d535750600854610d51866008546121c2565b115b1515610d5e57600080fd5b600073ffffffffffffffffffffffffffffffffffffffff168c73ffffffffffffffffffffffffffffffffffffffff1614158015610dc757508973ffffffffffffffffffffffffffffffffffffffff168c73ffffffffffffffffffffffffffffffffffffffff1614155b8015610e145750600254600460008e73ffffffffffffffffffffffffffffffffffffffff1673ffffffffffffffffffffffffffffffffffffffff1681526020019081526020016000205410155b15610eaa57610e62600560008e73ffffffffffffffffffffffffffffffffffffffff1673ffffffffffffffffffffffffffffffffffffffff16815260200190815260200160002054896121c2565b600560008e73ffffffffffffffffffffffffffffffffffffffff1673ffffffffffffffffffffffffffffffffffffffff16815260200190815260200160002081905550610ec5565b610eb487896121c2565b965068010000000000000000870293505b60006008541115610f3057610edc600854866121c2565b600881905550600854680100000000000000008802811515610efa57fe5b04600960008282540192505081905550600854680100000000000000008802811515610f2257fe5b048502840384039350610f38565b846008819055505b610f81600460008c73ffffffffffffffffffffffffffffffffffffffff1673ffffffffffffffffffffffffffffffffffffffff16815260200190815260200160002054866121c2565b600460008c73ffffffffffffffffffffffffffffffffffffffff1673ffffffffffffffffffffffffffffffffffffffff1681526020019081526020016000208190555083856009540203925082600660008c73ffffffffffffffffffffffffffffffffffffffff1673ffffffffffffffffffffffffffffffffffffffff168152602001908152602001600020600082825401925050819055508b73ffffffffffffffffffffffffffffffffffffffff168a73ffffffffffffffffffffffffffffffffffffffff167f022c0d992e4d873a3748436d960d5140c1f9721cf73f7ca5ec679d3d9f4fe2d58f88604051808381526020018281526020019250505060405180910390a3849a505b5050505050505050505092915050565b600068010000000000000000600660008473ffffffffffffffffffffffffffffffffffffffff1673ffffffffffffffffffffffffffffffffffffffff16815260200190815260200160002054600460008573ffffffffffffffffffffffffffffffffffffffff1673ffffffffffffffffffffffffffffffffffffffff16815260200190815260200160002054600954020381151561113557fe5b049050919050565b60008054600181600116156101000203166002900480601f0160208091040260200160405190810160405280929190818152602001828054600181600116156101000203166002900480156111d35780601f106111a8576101008083540402835291602001916111d3565b820191906000526020600020905b8154815290600101906020018083116111b657829003601f168201915b505050505081565b6000806000806111ef85600a60ff166121e0565b92506111fb85846121fb565b915061120682612214565b9050809350505050919050565b6000600854905090565b600080600080600854851115151561123457600080fd5b61123d856122a1565b925061124d83600a60ff166121e0565b915061125983836121fb565b9050809350505050919050565b600b60009054906101000a900460ff1681565b601281565b600a6020528060005260406000206000915054906101000a900460ff1681565b60008060006112ad600161154c565b1115156112b957600080fd5b3391506112c6600061154c565b9050680100000000000000008102600660008473ffffffffffffffffffffffffffffffffffffffff1673ffffffffffffffffffffffffffffffffffffffff16815260200190815260200160002060008282540192505081905550600560008373ffffffffffffffffffffffffffffffffffffffff1673ffffffffffffffffffffffffffffffffffffffff16815260200190815260200160002054810190506000600560008473ffffffffffffffffffffffffffffffffffffffff1673ffffffffffffffffffffffffffffffffffffffff168152602001908152602001600020819055508173ffffffffffffffffffffffffffffffffffffffff166108fc829081150290604051600060405180830381858888f1935050505015156113e957600080fd5b8173ffffffffffffffffffffffffffffffffffffffff167fccad973dcd043c7d680389db4378bd6b9775db7124092e9e0422c9e46d7985dc826040518082815260200191505060405180910390a25050565b60008060008060006008541415611460576402540be40064174876e800039350611493565b611471670de0b6b3a76400006122a1565b925061148183600a60ff166121e0565b915061148d83836121fb565b90508093505b50505090565b60025481565b6001600a60007f9bcc16873606dc04acb98263f74c420525ddef61de0d5f18fd97d16de659131a60010260001916815260200190815260200160002060006101000a81548160ff0219169083151502179055506001600360008073ffffffffffffffffffffffffffffffffffffffff1673ffffffffffffffffffffffffffffffffffffffff16815260200190815260200160002060006101000a81548160ff021916908315150217905550565b60008033905082611565576115608161109b565b6115b0565b600560008273ffffffffffffffffffffffffffffffffffffffff1673ffffffffffffffffffffffffffffffffffffffff168152602001908152602001600020546115ae8261109b565b015b915050919050565b60003073ffffffffffffffffffffffffffffffffffffffff1631905090565b6000600460008373ffffffffffffffffffffffffffffffffffffffff1673ffffffffffffffffffffffffffffffffffffffff168152602001908152602001600020549050919050565b6000339050600a600082604051808273ffffffffffffffffffffffffffffffffffffffff1673ffffffffffffffffffffffffffffffffffffffff166c0100000000000000000000000002815260140191505060405180910390206000191660001916815260200190815260200160002060009054906101000a900460ff1615156116a957600080fd5b816002819055505050565b600080600080600060085414156116d9576402540be40064174876e80001935061170c565b6116ea670de0b6b3a76400006122a1565b92506116fa83600a60ff166121e0565b915061170683836121c2565b90508093505b50505090565b6000339050600a600082604051808273ffffffffffffffffffffffffffffffffffffffff1673ffffffffffffffffffffffffffffffffffffffff166c0100000000000000000000000002815260140191505060405180910390206000191660001916815260200190815260200160002060009054906101000a900460ff16151561179b57600080fd5b81600a6000856000191660001916815260200190815260200160002060006101000a81548160ff021916908315150217905550505050565b6000803390506117e2816115d7565b91505090565b60018054600181600116156101000203166002900480601f01602080910402602001604051908101604052809291908181526020018280546001816001161561010002031660029004801561187e5780601f106118535761010080835404028352916020019161187e565b820191906000526020600020905b81548152906001019060200180831161186157829003601f168201915b505050505081565b6000339050600a600082604051808273ffffffffffffffffffffffffffffffffffffffff1673ffffffffffffffffffffffffffffffffffffffff166c0100000000000000000000000002815260140191505060405180910390206000191660001916815260200190815260200160002060009054906101000a900460ff16151561190f57600080fd5b6000600b60006101000a81548160ff02191690831515021790555050565b60008060008060008061193e6117d3565b11151561194a57600080fd5b339350600b60009054906101000a900460ff161580156119a95750600460008573ffffffffffffffffffffffffffffffffffffffff1673ffffffffffffffffffffffffffffffffffffffff168152602001908152602001600020548611155b15156119b457600080fd5b60006119c0600161154c565b11156119cf576119ce61129e565b5b6119dd86600a60ff166121e0565b92506119e986846121fb565b91506119f4836122a1565b9050611a02600854846121fb565b600881905550611a51600460008673ffffffffffffffffffffffffffffffffffffffff1673ffffffffffffffffffffffffffffffffffffffff16815260200190815260200160002054876121fb565b600460008673ffffffffffffffffffffffffffffffffffffffff1673ffffffffffffffffffffffffffffffffffffffff16815260200190815260200160002081905550611add600460008973ffffffffffffffffffffffffffffffffffffffff1673ffffffffffffffffffffffffffffffffffffffff16815260200190815260200160002054836121c2565b600460008973ffffffffffffffffffffffffffffffffffffffff1673ffffffffffffffffffffffffffffffffffffffff168152602001908152602001600020819055508560095402600660008673ffffffffffffffffffffffffffffffffffffffff1673ffffffffffffffffffffffffffffffffffffffff168152602001908152602001600020600082825403925050819055508160095402600660008973ffffffffffffffffffffffffffffffffffffffff1673ffffffffffffffffffffffffffffffffffffffff16815260200190815260200160002060008282540192505081905550611be6600954600854680100000000000000008402811515611be057fe5b046121c2565b6009819055508673ffffffffffffffffffffffffffffffffffffffff168473ffffffffffffffffffffffffffffffffffffffff167fddf252ad1be2c89b69c2b068fc378daa952ba7f163c4a11628f55a4df523b3ef846040518082815260200191505060405180910390a3600194505050505092915050565b6000339050600a600082604051808273ffffffffffffffffffffffffffffffffffffffff1673ffffffffffffffffffffffffffffffffffffffff166c0100000000000000000000000002815260140191505060405180910390206000191660001916815260200190815260200160002060009054906101000a900460ff161515611ce857600080fd5b8160019080519060200190611cfe929190612397565b505050565b6000339050600a600082604051808273ffffffffffffffffffffffffffffffffffffffff1673ffffffffffffffffffffffffffffffffffffffff166c0100000000000000000000000002815260140191505060405180910390206000191660001916815260200190815260200160002060009054906101000a900460ff161515611d8c57600080fd5b8160009080519060200190611da2929190612397565b505050565b6000806000806000806000611dba6117d3565b111515611dc657600080fd5b339550600460008773ffffffffffffffffffffffffffffffffffffffff1673ffffffffffffffffffffffffffffffffffffffff168152602001908152602001600020548711151515611e1757600080fd5b869450611e23856122a1565b9350611e3384600a60ff166121e0565b9250611e3f84846121fb565b9150611e4d600854866121fb565b600881905550611e9c600460008873ffffffffffffffffffffffffffffffffffffffff1673ffffffffffffffffffffffffffffffffffffffff16815260200190815260200160002054866121fb565b600460008873ffffffffffffffffffffffffffffffffffffffff1673ffffffffffffffffffffffffffffffffffffffff16815260200190815260200160002081905550680100000000000000008202856009540201905080600660008873ffffffffffffffffffffffffffffffffffffffff1673ffffffffffffffffffffffffffffffffffffffff1681526020019081526020016000206000828254039250508190555060006008541115611f7657611f6f600954600854680100000000000000008602811515611f6957fe5b046121c2565b6009819055505b8573ffffffffffffffffffffffffffffffffffffffff167fc4823739c5787d2ca17e404aa47d5569ae71dfb49cbf21b3f6152ed238a311398684604051808381526020018281526020019250505060405180910390a250505050505050565b600080339150600460008373ffffffffffffffffffffffffffffffffffffffff1673ffffffffffffffffffffffffffffffffffffffff16815260200190815260200160002054905060008111156120305761202f81611da7565b5b61203861129e565b5050565b6000612048348361079c565b50919050565b60008060008061205e600161154c565b11151561206a57600080fd5b612074600061154c565b9250339150680100000000000000008302600660008473ffffffffffffffffffffffffffffffffffffffff1673ffffffffffffffffffffffffffffffffffffffff16815260200190815260200160002060008282540192505081905550600560008373ffffffffffffffffffffffffffffffffffffffff1673ffffffffffffffffffffffffffffffffffffffff16815260200190815260200160002054830192506000600560008473ffffffffffffffffffffffffffffffffffffffff1673ffffffffffffffffffffffffffffffffffffffff1681526020019081526020016000208190555061216583600061079c565b90508173ffffffffffffffffffffffffffffffffffffffff167fbe339fc14b041c2b0e0f3dd2cd325d0c3668b78378001e53160eab36153264588483604051808381526020018281526020019250505060405180910390a2505050565b60008082840190508381101515156121d657fe5b8091505092915050565b60008082848115156121ee57fe5b0490508091505092915050565b600082821115151561220957fe5b818303905092915050565b6000806000670de0b6b3a764000064174876e8000291506008546402540be40061228a612284600854866402540be400600202020260026008540a60026402540be4000a02670de0b6b3a76400008a02670de0b6b3a76400006402540be40002600202026002890a01010161234c565b856121fb565b81151561229357fe5b040390508092505050919050565b600080600080670de0b6b3a764000085019250670de0b6b3a7640000600854019150670de0b6b3a7640000612335670de0b6b3a764000085036402540be400670de0b6b3a7640000868115156122f357fe5b046402540be4000264174876e8000103026002670de0b6b3a7640000876002890a0381151561231e57fe5b046402540be4000281151561232f57fe5b046121fb565b81151561233e57fe5b049050809350505050919050565b60008060026001840181151561235e57fe5b0490508291505b8181101561239157809150600281828581151561237e57fe5b040181151561238957fe5b049050612365565b50919050565b828054600181600116156101000203166002900490600052602060002090601f016020900481019282601f106123d857805160ff1916838001178555612406565b82800160010185558215612406579182015b828111156124055782518255916020019190600101906123ea565b5b5090506124139190612417565b5090565b61243991905b8082111561243557600081600090555060010161241d565b5090565b905600a165627a7a723058204a5433e028e3fca2fbb30f5f7347cb7da85aa16b716f6dfee663c1479a3b83250029",
          "opcodes": "PUSH1 0x60 PUSH1 0x40 MSTORE PUSH1 0x40 DUP1 MLOAD SWAP1 DUP2 ADD PUSH1 0x40 MSTORE DUP1 PUSH1 0xC DUP2 MSTORE PUSH1 0x20 ADD PUSH32 0x46524545444F4D20434F494E0000000000000000000000000000000000000000 DUP2 MSTORE POP PUSH1 0x0 SWAP1 DUP1 MLOAD SWAP1 PUSH1 0x20 ADD SWAP1 PUSH3 0x51 SWAP3 SWAP2 SWAP1 PUSH3 0xDE JUMP JUMPDEST POP PUSH1 0x40 DUP1 MLOAD SWAP1 DUP2 ADD PUSH1 0x40 MSTORE DUP1 PUSH1 0x4 DUP2 MSTORE PUSH1 0x20 ADD PUSH32 0x4652454500000000000000000000000000000000000000000000000000000000 DUP2 MSTORE POP PUSH1 0x1 SWAP1 DUP1 MLOAD SWAP1 PUSH1 0x20 ADD SWAP1 PUSH3 0x9F SWAP3 SWAP2 SWAP1 PUSH3 0xDE JUMP JUMPDEST POP PUSH8 0xDE0B6B3A7640000 PUSH1 0x2 SSTORE PUSH1 0x0 PUSH1 0x8 SSTORE PUSH1 0x0 PUSH1 0xB PUSH1 0x0 PUSH2 0x100 EXP DUP2 SLOAD DUP2 PUSH1 0xFF MUL NOT AND SWAP1 DUP4 ISZERO ISZERO MUL OR SWAP1 SSTORE POP CALLVALUE ISZERO PUSH3 0xD8 JUMPI PUSH1 0x0 DUP1 REVERT JUMPDEST PUSH3 0x18D JUMP JUMPDEST DUP3 DUP1 SLOAD PUSH1 0x1 DUP2 PUSH1 0x1 AND ISZERO PUSH2 0x100 MUL SUB AND PUSH1 0x2 SWAP1 DIV SWAP1 PUSH1 0x0 MSTORE PUSH1 0x20 PUSH1 0x0 KECCAK256 SWAP1 PUSH1 0x1F ADD PUSH1 0x20 SWAP1 DIV DUP2 ADD SWAP3 DUP3 PUSH1 0x1F LT PUSH3 0x121 JUMPI DUP1 MLOAD PUSH1 0xFF NOT AND DUP4 DUP1 ADD OR DUP6 SSTORE PUSH3 0x152 JUMP JUMPDEST DUP3 DUP1 ADD PUSH1 0x1 ADD DUP6 SSTORE DUP3 ISZERO PUSH3 0x152 JUMPI SWAP2 DUP3 ADD JUMPDEST DUP3 DUP2 GT ISZERO PUSH3 0x151 JUMPI DUP3 MLOAD DUP3 SSTORE SWAP2 PUSH1 0x20 ADD SWAP2 SWAP1 PUSH1 0x1 ADD SWAP1 PUSH3 0x134 JUMP JUMPDEST JUMPDEST POP SWAP1 POP PUSH3 0x161 SWAP2 SWAP1 PUSH3 0x165 JUMP JUMPDEST POP SWAP1 JUMP JUMPDEST PUSH3 0x18A SWAP2 SWAP1 JUMPDEST DUP1 DUP3 GT ISZERO PUSH3 0x186 JUMPI PUSH1 0x0 DUP2 PUSH1 0x0 SWAP1 SSTORE POP PUSH1 0x1 ADD PUSH3 0x16C JUMP JUMPDEST POP SWAP1 JUMP JUMPDEST SWAP1 JUMP JUMPDEST PUSH2 0x2468 DUP1 PUSH3 0x19D PUSH1 0x0 CODECOPY PUSH1 0x0 RETURN STOP PUSH1 0x60 PUSH1 0x40 MSTORE PUSH1 0x4 CALLDATASIZE LT PUSH2 0x169 JUMPI PUSH1 0x0 CALLDATALOAD PUSH29 0x100000000000000000000000000000000000000000000000000000000 SWAP1 DIV PUSH4 0xFFFFFFFF AND DUP1 PUSH3 0x65318B EQ PUSH2 0x177 JUMPI DUP1 PUSH4 0x6FDDE03 EQ PUSH2 0x1C4 JUMPI DUP1 PUSH4 0x10D0FFDD EQ PUSH2 0x252 JUMPI DUP1 PUSH4 0x18160DDD EQ PUSH2 0x289 JUMPI DUP1 PUSH4 0x22609373 EQ PUSH2 0x2B2 JUMPI DUP1 PUSH4 0x27DEFA1F EQ PUSH2 0x2E9 JUMPI DUP1 PUSH4 0x313CE567 EQ PUSH2 0x316 JUMPI DUP1 PUSH4 0x392EFB52 EQ PUSH2 0x345 JUMPI DUP1 PUSH4 0x3CCFD60B EQ PUSH2 0x384 JUMPI DUP1 PUSH4 0x4B750334 EQ PUSH2 0x399 JUMPI DUP1 PUSH4 0x56D399E8 EQ PUSH2 0x3C2 JUMPI DUP1 PUSH4 0x58D63255 EQ PUSH2 0x3EB JUMPI DUP1 PUSH4 0x688ABBF7 EQ PUSH2 0x400 JUMPI DUP1 PUSH4 0x6B2F4632 EQ PUSH2 0x439 JUMPI DUP1 PUSH4 0x70A08231 EQ PUSH2 0x462 JUMPI DUP1 PUSH4 0x8328B610 EQ PUSH2 0x4AF JUMPI DUP1 PUSH4 0x8620410B EQ PUSH2 0x4D2 JUMPI DUP1 PUSH4 0x89135AE9 EQ PUSH2 0x4FB JUMPI DUP1 PUSH4 0x949E8ACD EQ PUSH2 0x52D JUMPI DUP1 PUSH4 0x95D89B41 EQ PUSH2 0x556 JUMPI DUP1 PUSH4 0xA8E04F34 EQ PUSH2 0x5E4 JUMPI DUP1 PUSH4 0xA9059CBB EQ PUSH2 0x5F9 JUMPI DUP1 PUSH4 0xB84C8246 EQ PUSH2 0x653 JUMPI DUP1 PUSH4 0xC47F0027 EQ PUSH2 0x6B0 JUMPI DUP1 PUSH4 0xE4849B32 EQ PUSH2 0x70D JUMPI DUP1 PUSH4 0xE9FAD8EE EQ PUSH2 0x730 JUMPI DUP1 PUSH4 0xF088D547 EQ PUSH2 0x745 JUMPI DUP1 PUSH4 0xFDB5A03E EQ PUSH2 0x787 JUMPI JUMPDEST PUSH2 0x174 CALLVALUE PUSH1 0x0 PUSH2 0x79C JUMP JUMPDEST POP STOP JUMPDEST CALLVALUE ISZERO PUSH2 0x182 JUMPI PUSH1 0x0 DUP1 REVERT JUMPDEST PUSH2 0x1AE PUSH1 0x4 DUP1 DUP1 CALLDATALOAD PUSH20 0xFFFFFFFFFFFFFFFFFFFFFFFFFFFFFFFFFFFFFFFF AND SWAP1 PUSH1 0x20 ADD SWAP1 SWAP2 SWAP1 POP POP PUSH2 0x109B JUMP JUMPDEST PUSH1 0x40 MLOAD DUP1 DUP3 DUP2 MSTORE PUSH1 0x20 ADD SWAP2 POP POP PUSH1 0x40 MLOAD DUP1 SWAP2 SUB SWAP1 RETURN JUMPDEST CALLVALUE ISZERO PUSH2 0x1CF JUMPI PUSH1 0x0 DUP1 REVERT JUMPDEST PUSH2 0x1D7 PUSH2 0x113D JUMP JUMPDEST PUSH1 0x40 MLOAD DUP1 DUP1 PUSH1 0x20 ADD DUP3 DUP2 SUB DUP3 MSTORE DUP4 DUP2 DUP2 MLOAD DUP2 MSTORE PUSH1 0x20 ADD SWAP2 POP DUP1 MLOAD SWAP1 PUSH1 0x20 ADD SWAP1 DUP1 DUP4 DUP4 PUSH1 0x0 JUMPDEST DUP4 DUP2 LT ISZERO PUSH2 0x217 JUMPI DUP1 DUP3 ADD MLOAD DUP2 DUP5 ADD MSTORE PUSH1 0x20 DUP2 ADD SWAP1 POP PUSH2 0x1FC JUMP JUMPDEST POP POP POP POP SWAP1 POP SWAP1 DUP2 ADD SWAP1 PUSH1 0x1F AND DUP1 ISZERO PUSH2 0x244 JUMPI DUP1 DUP3 SUB DUP1 MLOAD PUSH1 0x1 DUP4 PUSH1 0x20 SUB PUSH2 0x100 EXP SUB NOT AND DUP2 MSTORE PUSH1 0x20 ADD SWAP2 POP JUMPDEST POP SWAP3 POP POP POP PUSH1 0x40 MLOAD DUP1 SWAP2 SUB SWAP1 RETURN JUMPDEST CALLVALUE ISZERO PUSH2 0x25D JUMPI PUSH1 0x0 DUP1 REVERT JUMPDEST PUSH2 0x273 PUSH1 0x4 DUP1 DUP1 CALLDATALOAD SWAP1 PUSH1 0x20 ADD SWAP1 SWAP2 SWAP1 POP POP PUSH2 0x11DB JUMP JUMPDEST PUSH1 0x40 MLOAD DUP1 DUP3 DUP2 MSTORE PUSH1 0x20 ADD SWAP2 POP POP PUSH1 0x40 MLOAD DUP1 SWAP2 SUB SWAP1 RETURN JUMPDEST CALLVALUE ISZERO PUSH2 0x294 JUMPI PUSH1 0x0 DUP1 REVERT JUMPDEST PUSH2 0x29C PUSH2 0x1213 JUMP JUMPDEST PUSH1 0x40 MLOAD DUP1 DUP3 DUP2 MSTORE PUSH1 0x20 ADD SWAP2 POP POP PUSH1 0x40 MLOAD DUP1 SWAP2 SUB SWAP1 RETURN JUMPDEST CALLVALUE ISZERO PUSH2 0x2BD JUMPI PUSH1 0x0 DUP1 REVERT JUMPDEST PUSH2 0x2D3 PUSH1 0x4 DUP1 DUP1 CALLDATALOAD SWAP1 PUSH1 0x20 ADD SWAP1 SWAP2 SWAP1 POP POP PUSH2 0x121D JUMP JUMPDEST PUSH1 0x40 MLOAD DUP1 DUP3 DUP2 MSTORE PUSH1 0x20 ADD SWAP2 POP POP PUSH1 0x40 MLOAD DUP1 SWAP2 SUB SWAP1 RETURN JUMPDEST CALLVALUE ISZERO PUSH2 0x2F4 JUMPI PUSH1 0x0 DUP1 REVERT JUMPDEST PUSH2 0x2FC PUSH2 0x1266 JUMP JUMPDEST PUSH1 0x40 MLOAD DUP1 DUP3 ISZERO ISZERO ISZERO ISZERO DUP2 MSTORE PUSH1 0x20 ADD SWAP2 POP POP PUSH1 0x40 MLOAD DUP1 SWAP2 SUB SWAP1 RETURN JUMPDEST CALLVALUE ISZERO PUSH2 0x321 JUMPI PUSH1 0x0 DUP1 REVERT JUMPDEST PUSH2 0x329 PUSH2 0x1279 JUMP JUMPDEST PUSH1 0x40 MLOAD DUP1 DUP3 PUSH1 0xFF AND PUSH1 0xFF AND DUP2 MSTORE PUSH1 0x20 ADD SWAP2 POP POP PUSH1 0x40 MLOAD DUP1 SWAP2 SUB SWAP1 RETURN JUMPDEST CALLVALUE ISZERO PUSH2 0x350 JUMPI PUSH1 0x0 DUP1 REVERT JUMPDEST PUSH2 0x36A PUSH1 0x4 DUP1 DUP1 CALLDATALOAD PUSH1 0x0 NOT AND SWAP1 PUSH1 0x20 ADD SWAP1 SWAP2 SWAP1 POP POP PUSH2 0x127E JUMP JUMPDEST PUSH1 0x40 MLOAD DUP1 DUP3 ISZERO ISZERO ISZERO ISZERO DUP2 MSTORE PUSH1 0x20 ADD SWAP2 POP POP PUSH1 0x40 MLOAD DUP1 SWAP2 SUB SWAP1 RETURN JUMPDEST CALLVALUE ISZERO PUSH2 0x38F JUMPI PUSH1 0x0 DUP1 REVERT JUMPDEST PUSH2 0x397 PUSH2 0x129E JUMP JUMPDEST STOP JUMPDEST CALLVALUE ISZERO PUSH2 0x3A4 JUMPI PUSH1 0x0 DUP1 REVERT JUMPDEST PUSH2 0x3AC PUSH2 0x143B JUMP JUMPDEST PUSH1 0x40 MLOAD DUP1 DUP3 DUP2 MSTORE PUSH1 0x20 ADD SWAP2 POP POP PUSH1 0x40 MLOAD DUP1 SWAP2 SUB SWAP1 RETURN JUMPDEST CALLVALUE ISZERO PUSH2 0x3CD JUMPI PUSH1 0x0 DUP1 REVERT JUMPDEST PUSH2 0x3D5 PUSH2 0x1499 JUMP JUMPDEST PUSH1 0x40 MLOAD DUP1 DUP3 DUP2 MSTORE PUSH1 0x20 ADD SWAP2 POP POP PUSH1 0x40 MLOAD DUP1 SWAP2 SUB SWAP1 RETURN JUMPDEST CALLVALUE ISZERO PUSH2 0x3F6 JUMPI PUSH1 0x0 DUP1 REVERT JUMPDEST PUSH2 0x3FE PUSH2 0x149F JUMP JUMPDEST STOP JUMPDEST CALLVALUE ISZERO PUSH2 0x40B JUMPI PUSH1 0x0 DUP1 REVERT JUMPDEST PUSH2 0x423 PUSH1 0x4 DUP1 DUP1 CALLDATALOAD ISZERO ISZERO SWAP1 PUSH1 0x20 ADD SWAP1 SWAP2 SWAP1 POP POP PUSH2 0x154C JUMP JUMPDEST PUSH1 0x40 MLOAD DUP1 DUP3 DUP2 MSTORE PUSH1 0x20 ADD SWAP2 POP POP PUSH1 0x40 MLOAD DUP1 SWAP2 SUB SWAP1 RETURN JUMPDEST CALLVALUE ISZERO PUSH2 0x444 JUMPI PUSH1 0x0 DUP1 REVERT JUMPDEST PUSH2 0x44C PUSH2 0x15B8 JUMP JUMPDEST PUSH1 0x40 MLOAD DUP1 DUP3 DUP2 MSTORE PUSH1 0x20 ADD SWAP2 POP POP PUSH1 0x40 MLOAD DUP1 SWAP2 SUB SWAP1 RETURN JUMPDEST CALLVALUE ISZERO PUSH2 0x46D JUMPI PUSH1 0x0 DUP1 REVERT JUMPDEST PUSH2 0x499 PUSH1 0x4 DUP1 DUP1 CALLDATALOAD PUSH20 0xFFFFFFFFFFFFFFFFFFFFFFFFFFFFFFFFFFFFFFFF AND SWAP1 PUSH1 0x20 ADD SWAP1 SWAP2 SWAP1 POP POP PUSH2 0x15D7 JUMP JUMPDEST PUSH1 0x40 MLOAD DUP1 DUP3 DUP2 MSTORE PUSH1 0x20 ADD SWAP2 POP POP PUSH1 0x40 MLOAD DUP1 SWAP2 SUB SWAP1 RETURN JUMPDEST CALLVALUE ISZERO PUSH2 0x4BA JUMPI PUSH1 0x0 DUP1 REVERT JUMPDEST PUSH2 0x4D0 PUSH1 0x4 DUP1 DUP1 CALLDATALOAD SWAP1 PUSH1 0x20 ADD SWAP1 SWAP2 SWAP1 POP POP PUSH2 0x1620 JUMP JUMPDEST STOP JUMPDEST CALLVALUE ISZERO PUSH2 0x4DD JUMPI PUSH1 0x0 DUP1 REVERT JUMPDEST PUSH2 0x4E5 PUSH2 0x16B4 JUMP JUMPDEST PUSH1 0x40 MLOAD DUP1 DUP3 DUP2 MSTORE PUSH1 0x20 ADD SWAP2 POP POP PUSH1 0x40 MLOAD DUP1 SWAP2 SUB SWAP1 RETURN JUMPDEST CALLVALUE ISZERO PUSH2 0x506 JUMPI PUSH1 0x0 DUP1 REVERT JUMPDEST PUSH2 0x52B PUSH1 0x4 DUP1 DUP1 CALLDATALOAD PUSH1 0x0 NOT AND SWAP1 PUSH1 0x20 ADD SWAP1 SWAP2 SWAP1 DUP1 CALLDATALOAD ISZERO ISZERO SWAP1 PUSH1 0x20 ADD SWAP1 SWAP2 SWAP1 POP POP PUSH2 0x1712 JUMP JUMPDEST STOP JUMPDEST CALLVALUE ISZERO PUSH2 0x538 JUMPI PUSH1 0x0 DUP1 REVERT JUMPDEST PUSH2 0x540 PUSH2 0x17D3 JUMP JUMPDEST PUSH1 0x40 MLOAD DUP1 DUP3 DUP2 MSTORE PUSH1 0x20 ADD SWAP2 POP POP PUSH1 0x40 MLOAD DUP1 SWAP2 SUB SWAP1 RETURN JUMPDEST CALLVALUE ISZERO PUSH2 0x561 JUMPI PUSH1 0x0 DUP1 REVERT JUMPDEST PUSH2 0x569 PUSH2 0x17E8 JUMP JUMPDEST PUSH1 0x40 MLOAD DUP1 DUP1 PUSH1 0x20 ADD DUP3 DUP2 SUB DUP3 MSTORE DUP4 DUP2 DUP2 MLOAD DUP2 MSTORE PUSH1 0x20 ADD SWAP2 POP DUP1 MLOAD SWAP1 PUSH1 0x20 ADD SWAP1 DUP1 DUP4 DUP4 PUSH1 0x0 JUMPDEST DUP4 DUP2 LT ISZERO PUSH2 0x5A9 JUMPI DUP1 DUP3 ADD MLOAD DUP2 DUP5 ADD MSTORE PUSH1 0x20 DUP2 ADD SWAP1 POP PUSH2 0x58E JUMP JUMPDEST POP POP POP POP SWAP1 POP SWAP1 DUP2 ADD SWAP1 PUSH1 0x1F AND DUP1 ISZERO PUSH2 0x5D6 JUMPI DUP1 DUP3 SUB DUP1 MLOAD PUSH1 0x1 DUP4 PUSH1 0x20 SUB PUSH2 0x100 EXP SUB NOT AND DUP2 MSTORE PUSH1 0x20 ADD SWAP2 POP JUMPDEST POP SWAP3 POP POP POP PUSH1 0x40 MLOAD DUP1 SWAP2 SUB SWAP1 RETURN JUMPDEST CALLVALUE ISZERO PUSH2 0x5EF JUMPI PUSH1 0x0 DUP1 REVERT JUMPDEST PUSH2 0x5F7 PUSH2 0x1886 JUMP JUMPDEST STOP JUMPDEST CALLVALUE ISZERO PUSH2 0x604 JUMPI PUSH1 0x0 DUP1 REVERT JUMPDEST PUSH2 0x639 PUSH1 0x4 DUP1 DUP1 CALLDATALOAD PUSH20 0xFFFFFFFFFFFFFFFFFFFFFFFFFFFFFFFFFFFFFFFF AND SWAP1 PUSH1 0x20 ADD SWAP1 SWAP2 SWAP1 DUP1 CALLDATALOAD SWAP1 PUSH1 0x20 ADD SWAP1 SWAP2 SWAP1 POP POP PUSH2 0x192D JUMP JUMPDEST PUSH1 0x40 MLOAD DUP1 DUP3 ISZERO ISZERO ISZERO ISZERO DUP2 MSTORE PUSH1 0x20 ADD SWAP2 POP POP PUSH1 0x40 MLOAD DUP1 SWAP2 SUB SWAP1 RETURN JUMPDEST CALLVALUE ISZERO PUSH2 0x65E JUMPI PUSH1 0x0 DUP1 REVERT JUMPDEST PUSH2 0x6AE PUSH1 0x4 DUP1 DUP1 CALLDATALOAD SWAP1 PUSH1 0x20 ADD SWAP1 DUP3 ADD DUP1 CALLDATALOAD SWAP1 PUSH1 0x20 ADD SWAP1 DUP1 DUP1 PUSH1 0x1F ADD PUSH1 0x20 DUP1 SWAP2 DIV MUL PUSH1 0x20 ADD PUSH1 0x40 MLOAD SWAP1 DUP2 ADD PUSH1 0x40 MSTORE DUP1 SWAP4 SWAP3 SWAP2 SWAP1 DUP2 DUP2 MSTORE PUSH1 0x20 ADD DUP4 DUP4 DUP1 DUP3 DUP5 CALLDATACOPY DUP3 ADD SWAP2 POP POP POP POP POP POP SWAP2 SWAP1 POP POP PUSH2 0x1C5F JUMP JUMPDEST STOP JUMPDEST CALLVALUE ISZERO PUSH2 0x6BB JUMPI PUSH1 0x0 DUP1 REVERT JUMPDEST PUSH2 0x70B PUSH1 0x4 DUP1 DUP1 CALLDATALOAD SWAP1 PUSH1 0x20 ADD SWAP1 DUP3 ADD DUP1 CALLDATALOAD SWAP1 PUSH1 0x20 ADD SWAP1 DUP1 DUP1 PUSH1 0x1F ADD PUSH1 0x20 DUP1 SWAP2 DIV MUL PUSH1 0x20 ADD PUSH1 0x40 MLOAD SWAP1 DUP2 ADD PUSH1 0x40 MSTORE DUP1 SWAP4 SWAP3 SWAP2 SWAP1 DUP2 DUP2 MSTORE PUSH1 0x20 ADD DUP4 DUP4 DUP1 DUP3 DUP5 CALLDATACOPY DUP3 ADD SWAP2 POP POP POP POP POP POP SWAP2 SWAP1 POP POP PUSH2 0x1D03 JUMP JUMPDEST STOP JUMPDEST CALLVALUE ISZERO PUSH2 0x718 JUMPI PUSH1 0x0 DUP1 REVERT JUMPDEST PUSH2 0x72E PUSH1 0x4 DUP1 DUP1 CALLDATALOAD SWAP1 PUSH1 0x20 ADD SWAP1 SWAP2 SWAP1 POP POP PUSH2 0x1DA7 JUMP JUMPDEST STOP JUMPDEST CALLVALUE ISZERO PUSH2 0x73B JUMPI PUSH1 0x0 DUP1 REVERT JUMPDEST PUSH2 0x743 PUSH2 0x1FD5 JUMP JUMPDEST STOP JUMPDEST PUSH2 0x771 PUSH1 0x4 DUP1 DUP1 CALLDATALOAD PUSH20 0xFFFFFFFFFFFFFFFFFFFFFFFFFFFFFFFFFFFFFFFF AND SWAP1 PUSH1 0x20 ADD SWAP1 SWAP2 SWAP1 POP POP PUSH2 0x203C JUMP JUMPDEST PUSH1 0x40 MLOAD DUP1 DUP3 DUP2 MSTORE PUSH1 0x20 ADD SWAP2 POP POP PUSH1 0x40 MLOAD DUP1 SWAP2 SUB SWAP1 RETURN JUMPDEST CALLVALUE ISZERO PUSH2 0x792 JUMPI PUSH1 0x0 DUP1 REVERT JUMPDEST PUSH2 0x79A PUSH2 0x204E JUMP JUMPDEST STOP JUMPDEST PUSH1 0x0 DUP1 PUSH1 0x0 DUP1 PUSH1 0x0 DUP1 PUSH1 0x0 DUP1 PUSH1 0x0 DUP11 PUSH1 0x0 CALLER SWAP1 POP PUSH1 0xB PUSH1 0x0 SWAP1 SLOAD SWAP1 PUSH2 0x100 EXP SWAP1 DIV PUSH1 0xFF AND DUP1 ISZERO PUSH2 0x7DD JUMPI POP PUSH8 0xDE0B6B3A7640000 DUP3 PUSH2 0x7D9 PUSH2 0x15B8 JUMP JUMPDEST SUB GT ISZERO JUMPDEST ISZERO PUSH2 0xCCB JUMPI PUSH1 0x1 ISZERO ISZERO PUSH1 0x3 PUSH1 0x0 DUP4 PUSH20 0xFFFFFFFFFFFFFFFFFFFFFFFFFFFFFFFFFFFFFFFF AND PUSH20 0xFFFFFFFFFFFFFFFFFFFFFFFFFFFFFFFFFFFFFFFF AND DUP2 MSTORE PUSH1 0x20 ADD SWAP1 DUP2 MSTORE PUSH1 0x20 ADD PUSH1 0x0 KECCAK256 PUSH1 0x0 SWAP1 SLOAD SWAP1 PUSH2 0x100 EXP SWAP1 DIV PUSH1 0xFF AND ISZERO ISZERO EQ DUP1 ISZERO PUSH2 0x88B JUMPI POP PUSH8 0xDE0B6B3A7640000 DUP3 PUSH1 0x7 PUSH1 0x0 DUP5 PUSH20 0xFFFFFFFFFFFFFFFFFFFFFFFFFFFFFFFFFFFFFFFF AND PUSH20 0xFFFFFFFFFFFFFFFFFFFFFFFFFFFFFFFFFFFFFFFF AND DUP2 MSTORE PUSH1 0x20 ADD SWAP1 DUP2 MSTORE PUSH1 0x20 ADD PUSH1 0x0 KECCAK256 SLOAD ADD GT ISZERO JUMPDEST ISZERO ISZERO PUSH2 0x896 JUMPI PUSH1 0x0 DUP1 REVERT JUMPDEST PUSH2 0x8DF PUSH1 0x7 PUSH1 0x0 DUP4 PUSH20 0xFFFFFFFFFFFFFFFFFFFFFFFFFFFFFFFFFFFFFFFF AND PUSH20 0xFFFFFFFFFFFFFFFFFFFFFFFFFFFFFFFFFFFFFFFF AND DUP2 MSTORE PUSH1 0x20 ADD SWAP1 DUP2 MSTORE PUSH1 0x20 ADD PUSH1 0x0 KECCAK256 SLOAD DUP4 PUSH2 0x21C2 JUMP JUMPDEST PUSH1 0x7 PUSH1 0x0 DUP4 PUSH20 0xFFFFFFFFFFFFFFFFFFFFFFFFFFFFFFFFFFFFFFFF AND PUSH20 0xFFFFFFFFFFFFFFFFFFFFFFFFFFFFFFFFFFFFFFFF AND DUP2 MSTORE PUSH1 0x20 ADD SWAP1 DUP2 MSTORE PUSH1 0x20 ADD PUSH1 0x0 KECCAK256 DUP2 SWAP1 SSTORE POP CALLER SWAP10 POP PUSH2 0x933 DUP14 PUSH1 0xA PUSH1 0xFF AND PUSH2 0x21E0 JUMP JUMPDEST SWAP9 POP PUSH2 0x940 DUP10 PUSH1 0x3 PUSH2 0x21E0 JUMP JUMPDEST SWAP8 POP PUSH2 0x94C DUP10 DUP10 PUSH2 0x21FB JUMP JUMPDEST SWAP7 POP PUSH2 0x958 DUP14 DUP11 PUSH2 0x21FB JUMP JUMPDEST SWAP6 POP PUSH2 0x963 DUP7 PUSH2 0x2214 JUMP JUMPDEST SWAP5 POP PUSH9 0x10000000000000000 DUP8 MUL SWAP4 POP PUSH1 0x0 DUP6 GT DUP1 ISZERO PUSH2 0x98F JUMPI POP PUSH1 0x8 SLOAD PUSH2 0x98D DUP7 PUSH1 0x8 SLOAD PUSH2 0x21C2 JUMP JUMPDEST GT JUMPDEST ISZERO ISZERO PUSH2 0x99A JUMPI PUSH1 0x0 DUP1 REVERT JUMPDEST PUSH1 0x0 PUSH20 0xFFFFFFFFFFFFFFFFFFFFFFFFFFFFFFFFFFFFFFFF AND DUP13 PUSH20 0xFFFFFFFFFFFFFFFFFFFFFFFFFFFFFFFFFFFFFFFF AND EQ ISZERO DUP1 ISZERO PUSH2 0xA03 JUMPI POP DUP10 PUSH20 0xFFFFFFFFFFFFFFFFFFFFFFFFFFFFFFFFFFFFFFFF AND DUP13 PUSH20 0xFFFFFFFFFFFFFFFFFFFFFFFFFFFFFFFFFFFFFFFF AND EQ ISZERO JUMPDEST DUP1 ISZERO PUSH2 0xA50 JUMPI POP PUSH1 0x2 SLOAD PUSH1 0x4 PUSH1 0x0 DUP15 PUSH20 0xFFFFFFFFFFFFFFFFFFFFFFFFFFFFFFFFFFFFFFFF AND PUSH20 0xFFFFFFFFFFFFFFFFFFFFFFFFFFFFFFFFFFFFFFFF AND DUP2 MSTORE PUSH1 0x20 ADD SWAP1 DUP2 MSTORE PUSH1 0x20 ADD PUSH1 0x0 KECCAK256 SLOAD LT ISZERO JUMPDEST ISZERO PUSH2 0xAE6 JUMPI PUSH2 0xA9E PUSH1 0x5 PUSH1 0x0 DUP15 PUSH20 0xFFFFFFFFFFFFFFFFFFFFFFFFFFFFFFFFFFFFFFFF AND PUSH20 0xFFFFFFFFFFFFFFFFFFFFFFFFFFFFFFFFFFFFFFFF AND DUP2 MSTORE PUSH1 0x20 ADD SWAP1 DUP2 MSTORE PUSH1 0x20 ADD PUSH1 0x0 KECCAK256 SLOAD DUP10 PUSH2 0x21C2 JUMP JUMPDEST PUSH1 0x5 PUSH1 0x0 DUP15 PUSH20 0xFFFFFFFFFFFFFFFFFFFFFFFFFFFFFFFFFFFFFFFF AND PUSH20 0xFFFFFFFFFFFFFFFFFFFFFFFFFFFFFFFFFFFFFFFF AND DUP2 MSTORE PUSH1 0x20 ADD SWAP1 DUP2 MSTORE PUSH1 0x20 ADD PUSH1 0x0 KECCAK256 DUP2 SWAP1 SSTORE POP PUSH2 0xB01 JUMP JUMPDEST PUSH2 0xAF0 DUP8 DUP10 PUSH2 0x21C2 JUMP JUMPDEST SWAP7 POP PUSH9 0x10000000000000000 DUP8 MUL SWAP4 POP JUMPDEST PUSH1 0x0 PUSH1 0x8 SLOAD GT ISZERO PUSH2 0xB6C JUMPI PUSH2 0xB18 PUSH1 0x8 SLOAD DUP7 PUSH2 0x21C2 JUMP JUMPDEST PUSH1 0x8 DUP2 SWAP1 SSTORE POP PUSH1 0x8 SLOAD PUSH9 0x10000000000000000 DUP9 MUL DUP2 ISZERO ISZERO PUSH2 0xB36 JUMPI INVALID JUMPDEST DIV PUSH1 0x9 PUSH1 0x0 DUP3 DUP3 SLOAD ADD SWAP3 POP POP DUP2 SWAP1 SSTORE POP PUSH1 0x8 SLOAD PUSH9 0x10000000000000000 DUP9 MUL DUP2 ISZERO ISZERO PUSH2 0xB5E JUMPI INVALID JUMPDEST DIV DUP6 MUL DUP5 SUB DUP5 SUB SWAP4 POP PUSH2 0xB74 JUMP JUMPDEST DUP5 PUSH1 0x8 DUP2 SWAP1 SSTORE POP JUMPDEST PUSH2 0xBBD PUSH1 0x4 PUSH1 0x0 DUP13 PUSH20 0xFFFFFFFFFFFFFFFFFFFFFFFFFFFFFFFFFFFFFFFF AND PUSH20 0xFFFFFFFFFFFFFFFFFFFFFFFFFFFFFFFFFFFFFFFF AND DUP2 MSTORE PUSH1 0x20 ADD SWAP1 DUP2 MSTORE PUSH1 0x20 ADD PUSH1 0x0 KECCAK256 SLOAD DUP7 PUSH2 0x21C2 JUMP JUMPDEST PUSH1 0x4 PUSH1 0x0 DUP13 PUSH20 0xFFFFFFFFFFFFFFFFFFFFFFFFFFFFFFFFFFFFFFFF AND PUSH20 0xFFFFFFFFFFFFFFFFFFFFFFFFFFFFFFFFFFFFFFFF AND DUP2 MSTORE PUSH1 0x20 ADD SWAP1 DUP2 MSTORE PUSH1 0x20 ADD PUSH1 0x0 KECCAK256 DUP2 SWAP1 SSTORE POP DUP4 DUP6 PUSH1 0x9 SLOAD MUL SUB SWAP3 POP DUP3 PUSH1 0x6 PUSH1 0x0 DUP13 PUSH20 0xFFFFFFFFFFFFFFFFFFFFFFFFFFFFFFFFFFFFFFFF AND PUSH20 0xFFFFFFFFFFFFFFFFFFFFFFFFFFFFFFFFFFFFFFFF AND DUP2 MSTORE PUSH1 0x20 ADD SWAP1 DUP2 MSTORE PUSH1 0x20 ADD PUSH1 0x0 KECCAK256 PUSH1 0x0 DUP3 DUP3 SLOAD ADD SWAP3 POP POP DUP2 SWAP1 SSTORE POP DUP12 PUSH20 0xFFFFFFFFFFFFFFFFFFFFFFFFFFFFFFFFFFFFFFFF AND DUP11 PUSH20 0xFFFFFFFFFFFFFFFFFFFFFFFFFFFFFFFFFFFFFFFF AND PUSH32 0x22C0D992E4D873A3748436D960D5140C1F9721CF73F7CA5EC679D3D9F4FE2D5 DUP16 DUP9 PUSH1 0x40 MLOAD DUP1 DUP4 DUP2 MSTORE PUSH1 0x20 ADD DUP3 DUP2 MSTORE PUSH1 0x20 ADD SWAP3 POP POP POP PUSH1 0x40 MLOAD DUP1 SWAP2 SUB SWAP1 LOG3 DUP5 SWAP11 POP PUSH2 0x108B JUMP JUMPDEST PUSH1 0x0 PUSH1 0xB PUSH1 0x0 PUSH2 0x100 EXP DUP2 SLOAD DUP2 PUSH1 0xFF MUL NOT AND SWAP1 DUP4 ISZERO ISZERO MUL OR SWAP1 SSTORE POP CALLER SWAP10 POP PUSH2 0xCF7 DUP14 PUSH1 0xA PUSH1 0xFF AND PUSH2 0x21E0 JUMP JUMPDEST SWAP9 POP PUSH2 0xD04 DUP10 PUSH1 0x3 PUSH2 0x21E0 JUMP JUMPDEST SWAP8 POP PUSH2 0xD10 DUP10 DUP10 PUSH2 0x21FB JUMP JUMPDEST SWAP7 POP PUSH2 0xD1C DUP14 DUP11 PUSH2 0x21FB JUMP JUMPDEST SWAP6 POP PUSH2 0xD27 DUP7 PUSH2 0x2214 JUMP JUMPDEST SWAP5 POP PUSH9 0x10000000000000000 DUP8 MUL SWAP4 POP PUSH1 0x0 DUP6 GT DUP1 ISZERO PUSH2 0xD53 JUMPI POP PUSH1 0x8 SLOAD PUSH2 0xD51 DUP7 PUSH1 0x8 SLOAD PUSH2 0x21C2 JUMP JUMPDEST GT JUMPDEST ISZERO ISZERO PUSH2 0xD5E JUMPI PUSH1 0x0 DUP1 REVERT JUMPDEST PUSH1 0x0 PUSH20 0xFFFFFFFFFFFFFFFFFFFFFFFFFFFFFFFFFFFFFFFF AND DUP13 PUSH20 0xFFFFFFFFFFFFFFFFFFFFFFFFFFFFFFFFFFFFFFFF AND EQ ISZERO DUP1 ISZERO PUSH2 0xDC7 JUMPI POP DUP10 PUSH20 0xFFFFFFFFFFFFFFFFFFFFFFFFFFFFFFFFFFFFFFFF AND DUP13 PUSH20 0xFFFFFFFFFFFFFFFFFFFFFFFFFFFFFFFFFFFFFFFF AND EQ ISZERO JUMPDEST DUP1 ISZERO PUSH2 0xE14 JUMPI POP PUSH1 0x2 SLOAD PUSH1 0x4 PUSH1 0x0 DUP15 PUSH20 0xFFFFFFFFFFFFFFFFFFFFFFFFFFFFFFFFFFFFFFFF AND PUSH20 0xFFFFFFFFFFFFFFFFFFFFFFFFFFFFFFFFFFFFFFFF AND DUP2 MSTORE PUSH1 0x20 ADD SWAP1 DUP2 MSTORE PUSH1 0x20 ADD PUSH1 0x0 KECCAK256 SLOAD LT ISZERO JUMPDEST ISZERO PUSH2 0xEAA JUMPI PUSH2 0xE62 PUSH1 0x5 PUSH1 0x0 DUP15 PUSH20 0xFFFFFFFFFFFFFFFFFFFFFFFFFFFFFFFFFFFFFFFF AND PUSH20 0xFFFFFFFFFFFFFFFFFFFFFFFFFFFFFFFFFFFFFFFF AND DUP2 MSTORE PUSH1 0x20 ADD SWAP1 DUP2 MSTORE PUSH1 0x20 ADD PUSH1 0x0 KECCAK256 SLOAD DUP10 PUSH2 0x21C2 JUMP JUMPDEST PUSH1 0x5 PUSH1 0x0 DUP15 PUSH20 0xFFFFFFFFFFFFFFFFFFFFFFFFFFFFFFFFFFFFFFFF AND PUSH20 0xFFFFFFFFFFFFFFFFFFFFFFFFFFFFFFFFFFFFFFFF AND DUP2 MSTORE PUSH1 0x20 ADD SWAP1 DUP2 MSTORE PUSH1 0x20 ADD PUSH1 0x0 KECCAK256 DUP2 SWAP1 SSTORE POP PUSH2 0xEC5 JUMP JUMPDEST PUSH2 0xEB4 DUP8 DUP10 PUSH2 0x21C2 JUMP JUMPDEST SWAP7 POP PUSH9 0x10000000000000000 DUP8 MUL SWAP4 POP JUMPDEST PUSH1 0x0 PUSH1 0x8 SLOAD GT ISZERO PUSH2 0xF30 JUMPI PUSH2 0xEDC PUSH1 0x8 SLOAD DUP7 PUSH2 0x21C2 JUMP JUMPDEST PUSH1 0x8 DUP2 SWAP1 SSTORE POP PUSH1 0x8 SLOAD PUSH9 0x10000000000000000 DUP9 MUL DUP2 ISZERO ISZERO PUSH2 0xEFA JUMPI INVALID JUMPDEST DIV PUSH1 0x9 PUSH1 0x0 DUP3 DUP3 SLOAD ADD SWAP3 POP POP DUP2 SWAP1 SSTORE POP PUSH1 0x8 SLOAD PUSH9 0x10000000000000000 DUP9 MUL DUP2 ISZERO ISZERO PUSH2 0xF22 JUMPI INVALID JUMPDEST DIV DUP6 MUL DUP5 SUB DUP5 SUB SWAP4 POP PUSH2 0xF38 JUMP JUMPDEST DUP5 PUSH1 0x8 DUP2 SWAP1 SSTORE POP JUMPDEST PUSH2 0xF81 PUSH1 0x4 PUSH1 0x0 DUP13 PUSH20 0xFFFFFFFFFFFFFFFFFFFFFFFFFFFFFFFFFFFFFFFF AND PUSH20 0xFFFFFFFFFFFFFFFFFFFFFFFFFFFFFFFFFFFFFFFF AND DUP2 MSTORE PUSH1 0x20 ADD SWAP1 DUP2 MSTORE PUSH1 0x20 ADD PUSH1 0x0 KECCAK256 SLOAD DUP7 PUSH2 0x21C2 JUMP JUMPDEST PUSH1 0x4 PUSH1 0x0 DUP13 PUSH20 0xFFFFFFFFFFFFFFFFFFFFFFFFFFFFFFFFFFFFFFFF AND PUSH20 0xFFFFFFFFFFFFFFFFFFFFFFFFFFFFFFFFFFFFFFFF AND DUP2 MSTORE PUSH1 0x20 ADD SWAP1 DUP2 MSTORE PUSH1 0x20 ADD PUSH1 0x0 KECCAK256 DUP2 SWAP1 SSTORE POP DUP4 DUP6 PUSH1 0x9 SLOAD MUL SUB SWAP3 POP DUP3 PUSH1 0x6 PUSH1 0x0 DUP13 PUSH20 0xFFFFFFFFFFFFFFFFFFFFFFFFFFFFFFFFFFFFFFFF AND PUSH20 0xFFFFFFFFFFFFFFFFFFFFFFFFFFFFFFFFFFFFFFFF AND DUP2 MSTORE PUSH1 0x20 ADD SWAP1 DUP2 MSTORE PUSH1 0x20 ADD PUSH1 0x0 KECCAK256 PUSH1 0x0 DUP3 DUP3 SLOAD ADD SWAP3 POP POP DUP2 SWAP1 SSTORE POP DUP12 PUSH20 0xFFFFFFFFFFFFFFFFFFFFFFFFFFFFFFFFFFFFFFFF AND DUP11 PUSH20 0xFFFFFFFFFFFFFFFFFFFFFFFFFFFFFFFFFFFFFFFF AND PUSH32 0x22C0D992E4D873A3748436D960D5140C1F9721CF73F7CA5EC679D3D9F4FE2D5 DUP16 DUP9 PUSH1 0x40 MLOAD DUP1 DUP4 DUP2 MSTORE PUSH1 0x20 ADD DUP3 DUP2 MSTORE PUSH1 0x20 ADD SWAP3 POP POP POP PUSH1 0x40 MLOAD DUP1 SWAP2 SUB SWAP1 LOG3 DUP5 SWAP11 POP JUMPDEST POP POP POP POP POP POP POP POP POP POP SWAP3 SWAP2 POP POP JUMP JUMPDEST PUSH1 0x0 PUSH9 0x10000000000000000 PUSH1 0x6 PUSH1 0x0 DUP5 PUSH20 0xFFFFFFFFFFFFFFFFFFFFFFFFFFFFFFFFFFFFFFFF AND PUSH20 0xFFFFFFFFFFFFFFFFFFFFFFFFFFFFFFFFFFFFFFFF AND DUP2 MSTORE PUSH1 0x20 ADD SWAP1 DUP2 MSTORE PUSH1 0x20 ADD PUSH1 0x0 KECCAK256 SLOAD PUSH1 0x4 PUSH1 0x0 DUP6 PUSH20 0xFFFFFFFFFFFFFFFFFFFFFFFFFFFFFFFFFFFFFFFF AND PUSH20 0xFFFFFFFFFFFFFFFFFFFFFFFFFFFFFFFFFFFFFFFF AND DUP2 MSTORE PUSH1 0x20 ADD SWAP1 DUP2 MSTORE PUSH1 0x20 ADD PUSH1 0x0 KECCAK256 SLOAD PUSH1 0x9 SLOAD MUL SUB DUP2 ISZERO ISZERO PUSH2 0x1135 JUMPI INVALID JUMPDEST DIV SWAP1 POP SWAP2 SWAP1 POP JUMP JUMPDEST PUSH1 0x0 DUP1 SLOAD PUSH1 0x1 DUP2 PUSH1 0x1 AND ISZERO PUSH2 0x100 MUL SUB AND PUSH1 0x2 SWAP1 DIV DUP1 PUSH1 0x1F ADD PUSH1 0x20 DUP1 SWAP2 DIV MUL PUSH1 0x20 ADD PUSH1 0x40 MLOAD SWAP1 DUP2 ADD PUSH1 0x40 MSTORE DUP1 SWAP3 SWAP2 SWAP1 DUP2 DUP2 MSTORE PUSH1 0x20 ADD DUP3 DUP1 SLOAD PUSH1 0x1 DUP2 PUSH1 0x1 AND ISZERO PUSH2 0x100 MUL SUB AND PUSH1 0x2 SWAP1 DIV DUP1 ISZERO PUSH2 0x11D3 JUMPI DUP1 PUSH1 0x1F LT PUSH2 0x11A8 JUMPI PUSH2 0x100 DUP1 DUP4 SLOAD DIV MUL DUP4 MSTORE SWAP2 PUSH1 0x20 ADD SWAP2 PUSH2 0x11D3 JUMP JUMPDEST DUP3 ADD SWAP2 SWAP1 PUSH1 0x0 MSTORE PUSH1 0x20 PUSH1 0x0 KECCAK256 SWAP1 JUMPDEST DUP2 SLOAD DUP2 MSTORE SWAP1 PUSH1 0x1 ADD SWAP1 PUSH1 0x20 ADD DUP1 DUP4 GT PUSH2 0x11B6 JUMPI DUP3 SWAP1 SUB PUSH1 0x1F AND DUP3 ADD SWAP2 JUMPDEST POP POP POP POP POP DUP2 JUMP JUMPDEST PUSH1 0x0 DUP1 PUSH1 0x0 DUP1 PUSH2 0x11EF DUP6 PUSH1 0xA PUSH1 0xFF AND PUSH2 0x21E0 JUMP JUMPDEST SWAP3 POP PUSH2 0x11FB DUP6 DUP5 PUSH2 0x21FB JUMP JUMPDEST SWAP2 POP PUSH2 0x1206 DUP3 PUSH2 0x2214 JUMP JUMPDEST SWAP1 POP DUP1 SWAP4 POP POP POP POP SWAP2 SWAP1 POP JUMP JUMPDEST PUSH1 0x0 PUSH1 0x8 SLOAD SWAP1 POP SWAP1 JUMP JUMPDEST PUSH1 0x0 DUP1 PUSH1 0x0 DUP1 PUSH1 0x8 SLOAD DUP6 GT ISZERO ISZERO ISZERO PUSH2 0x1234 JUMPI PUSH1 0x0 DUP1 REVERT JUMPDEST PUSH2 0x123D DUP6 PUSH2 0x22A1 JUMP JUMPDEST SWAP3 POP PUSH2 0x124D DUP4 PUSH1 0xA PUSH1 0xFF AND PUSH2 0x21E0 JUMP JUMPDEST SWAP2 POP PUSH2 0x1259 DUP4 DUP4 PUSH2 0x21FB JUMP JUMPDEST SWAP1 POP DUP1 SWAP4 POP POP POP POP SWAP2 SWAP1 POP JUMP JUMPDEST PUSH1 0xB PUSH1 0x0 SWAP1 SLOAD SWAP1 PUSH2 0x100 EXP SWAP1 DIV PUSH1 0xFF AND DUP2 JUMP JUMPDEST PUSH1 0x12 DUP2 JUMP JUMPDEST PUSH1 0xA PUSH1 0x20 MSTORE DUP1 PUSH1 0x0 MSTORE PUSH1 0x40 PUSH1 0x0 KECCAK256 PUSH1 0x0 SWAP2 POP SLOAD SWAP1 PUSH2 0x100 EXP SWAP1 DIV PUSH1 0xFF AND DUP2 JUMP JUMPDEST PUSH1 0x0 DUP1 PUSH1 0x0 PUSH2 0x12AD PUSH1 0x1 PUSH2 0x154C JUMP JUMPDEST GT ISZERO ISZERO PUSH2 0x12B9 JUMPI PUSH1 0x0 DUP1 REVERT JUMPDEST CALLER SWAP2 POP PUSH2 0x12C6 PUSH1 0x0 PUSH2 0x154C JUMP JUMPDEST SWAP1 POP PUSH9 0x10000000000000000 DUP2 MUL PUSH1 0x6 PUSH1 0x0 DUP5 PUSH20 0xFFFFFFFFFFFFFFFFFFFFFFFFFFFFFFFFFFFFFFFF AND PUSH20 0xFFFFFFFFFFFFFFFFFFFFFFFFFFFFFFFFFFFFFFFF AND DUP2 MSTORE PUSH1 0x20 ADD SWAP1 DUP2 MSTORE PUSH1 0x20 ADD PUSH1 0x0 KECCAK256 PUSH1 0x0 DUP3 DUP3 SLOAD ADD SWAP3 POP POP DUP2 SWAP1 SSTORE POP PUSH1 0x5 PUSH1 0x0 DUP4 PUSH20 0xFFFFFFFFFFFFFFFFFFFFFFFFFFFFFFFFFFFFFFFF AND PUSH20 0xFFFFFFFFFFFFFFFFFFFFFFFFFFFFFFFFFFFFFFFF AND DUP2 MSTORE PUSH1 0x20 ADD SWAP1 DUP2 MSTORE PUSH1 0x20 ADD PUSH1 0x0 KECCAK256 SLOAD DUP2 ADD SWAP1 POP PUSH1 0x0 PUSH1 0x5 PUSH1 0x0 DUP5 PUSH20 0xFFFFFFFFFFFFFFFFFFFFFFFFFFFFFFFFFFFFFFFF AND PUSH20 0xFFFFFFFFFFFFFFFFFFFFFFFFFFFFFFFFFFFFFFFF AND DUP2 MSTORE PUSH1 0x20 ADD SWAP1 DUP2 MSTORE PUSH1 0x20 ADD PUSH1 0x0 KECCAK256 DUP2 SWAP1 SSTORE POP DUP2 PUSH20 0xFFFFFFFFFFFFFFFFFFFFFFFFFFFFFFFFFFFFFFFF AND PUSH2 0x8FC DUP3 SWAP1 DUP2 ISZERO MUL SWAP1 PUSH1 0x40 MLOAD PUSH1 0x0 PUSH1 0x40 MLOAD DUP1 DUP4 SUB DUP2 DUP6 DUP9 DUP9 CALL SWAP4 POP POP POP POP ISZERO ISZERO PUSH2 0x13E9 JUMPI PUSH1 0x0 DUP1 REVERT JUMPDEST DUP2 PUSH20 0xFFFFFFFFFFFFFFFFFFFFFFFFFFFFFFFFFFFFFFFF AND PUSH32 0xCCAD973DCD043C7D680389DB4378BD6B9775DB7124092E9E0422C9E46D7985DC DUP3 PUSH1 0x40 MLOAD DUP1 DUP3 DUP2 MSTORE PUSH1 0x20 ADD SWAP2 POP POP PUSH1 0x40 MLOAD DUP1 SWAP2 SUB SWAP1 LOG2 POP POP JUMP JUMPDEST PUSH1 0x0 DUP1 PUSH1 0x0 DUP1 PUSH1 0x0 PUSH1 0x8 SLOAD EQ ISZERO PUSH2 0x1460 JUMPI PUSH5 0x2540BE400 PUSH5 0x174876E800 SUB SWAP4 POP PUSH2 0x1493 JUMP JUMPDEST PUSH2 0x1471 PUSH8 0xDE0B6B3A7640000 PUSH2 0x22A1 JUMP JUMPDEST SWAP3 POP PUSH2 0x1481 DUP4 PUSH1 0xA PUSH1 0xFF AND PUSH2 0x21E0 JUMP JUMPDEST SWAP2 POP PUSH2 0x148D DUP4 DUP4 PUSH2 0x21FB JUMP JUMPDEST SWAP1 POP DUP1 SWAP4 POP JUMPDEST POP POP POP SWAP1 JUMP JUMPDEST PUSH1 0x2 SLOAD DUP2 JUMP JUMPDEST PUSH1 0x1 PUSH1 0xA PUSH1 0x0 PUSH32 0x9BCC16873606DC04ACB98263F74C420525DDEF61DE0D5F18FD97D16DE659131A PUSH1 0x1 MUL PUSH1 0x0 NOT AND DUP2 MSTORE PUSH1 0x20 ADD SWAP1 DUP2 MSTORE PUSH1 0x20 ADD PUSH1 0x0 KECCAK256 PUSH1 0x0 PUSH2 0x100 EXP DUP2 SLOAD DUP2 PUSH1 0xFF MUL NOT AND SWAP1 DUP4 ISZERO ISZERO MUL OR SWAP1 SSTORE POP PUSH1 0x1 PUSH1 0x3 PUSH1 0x0 DUP1 PUSH20 0xFFFFFFFFFFFFFFFFFFFFFFFFFFFFFFFFFFFFFFFF AND PUSH20 0xFFFFFFFFFFFFFFFFFFFFFFFFFFFFFFFFFFFFFFFF AND DUP2 MSTORE PUSH1 0x20 ADD SWAP1 DUP2 MSTORE PUSH1 0x20 ADD PUSH1 0x0 KECCAK256 PUSH1 0x0 PUSH2 0x100 EXP DUP2 SLOAD DUP2 PUSH1 0xFF MUL NOT AND SWAP1 DUP4 ISZERO ISZERO MUL OR SWAP1 SSTORE POP JUMP JUMPDEST PUSH1 0x0 DUP1 CALLER SWAP1 POP DUP3 PUSH2 0x1565 JUMPI PUSH2 0x1560 DUP2 PUSH2 0x109B JUMP JUMPDEST PUSH2 0x15B0 JUMP JUMPDEST PUSH1 0x5 PUSH1 0x0 DUP3 PUSH20 0xFFFFFFFFFFFFFFFFFFFFFFFFFFFFFFFFFFFFFFFF AND PUSH20 0xFFFFFFFFFFFFFFFFFFFFFFFFFFFFFFFFFFFFFFFF AND DUP2 MSTORE PUSH1 0x20 ADD SWAP1 DUP2 MSTORE PUSH1 0x20 ADD PUSH1 0x0 KECCAK256 SLOAD PUSH2 0x15AE DUP3 PUSH2 0x109B JUMP JUMPDEST ADD JUMPDEST SWAP2 POP POP SWAP2 SWAP1 POP JUMP JUMPDEST PUSH1 0x0 ADDRESS PUSH20 0xFFFFFFFFFFFFFFFFFFFFFFFFFFFFFFFFFFFFFFFF AND BALANCE SWAP1 POP SWAP1 JUMP JUMPDEST PUSH1 0x0 PUSH1 0x4 PUSH1 0x0 DUP4 PUSH20 0xFFFFFFFFFFFFFFFFFFFFFFFFFFFFFFFFFFFFFFFF AND PUSH20 0xFFFFFFFFFFFFFFFFFFFFFFFFFFFFFFFFFFFFFFFF AND DUP2 MSTORE PUSH1 0x20 ADD SWAP1 DUP2 MSTORE PUSH1 0x20 ADD PUSH1 0x0 KECCAK256 SLOAD SWAP1 POP SWAP2 SWAP1 POP JUMP JUMPDEST PUSH1 0x0 CALLER SWAP1 POP PUSH1 0xA PUSH1 0x0 DUP3 PUSH1 0x40 MLOAD DUP1 DUP3 PUSH20 0xFFFFFFFFFFFFFFFFFFFFFFFFFFFFFFFFFFFFFFFF AND PUSH20 0xFFFFFFFFFFFFFFFFFFFFFFFFFFFFFFFFFFFFFFFF AND PUSH13 0x1000000000000000000000000 MUL DUP2 MSTORE PUSH1 0x14 ADD SWAP2 POP POP PUSH1 0x40 MLOAD DUP1 SWAP2 SUB SWAP1 KECCAK256 PUSH1 0x0 NOT AND PUSH1 0x0 NOT AND DUP2 MSTORE PUSH1 0x20 ADD SWAP1 DUP2 MSTORE PUSH1 0x20 ADD PUSH1 0x0 KECCAK256 PUSH1 0x0 SWAP1 SLOAD SWAP1 PUSH2 0x100 EXP SWAP1 DIV PUSH1 0xFF AND ISZERO ISZERO PUSH2 0x16A9 JUMPI PUSH1 0x0 DUP1 REVERT JUMPDEST DUP2 PUSH1 0x2 DUP2 SWAP1 SSTORE POP POP POP JUMP JUMPDEST PUSH1 0x0 DUP1 PUSH1 0x0 DUP1 PUSH1 0x0 PUSH1 0x8 SLOAD EQ ISZERO PUSH2 0x16D9 JUMPI PUSH5 0x2540BE400 PUSH5 0x174876E800 ADD SWAP4 POP PUSH2 0x170C JUMP JUMPDEST PUSH2 0x16EA PUSH8 0xDE0B6B3A7640000 PUSH2 0x22A1 JUMP JUMPDEST SWAP3 POP PUSH2 0x16FA DUP4 PUSH1 0xA PUSH1 0xFF AND PUSH2 0x21E0 JUMP JUMPDEST SWAP2 POP PUSH2 0x1706 DUP4 DUP4 PUSH2 0x21C2 JUMP JUMPDEST SWAP1 POP DUP1 SWAP4 POP JUMPDEST POP POP POP SWAP1 JUMP JUMPDEST PUSH1 0x0 CALLER SWAP1 POP PUSH1 0xA PUSH1 0x0 DUP3 PUSH1 0x40 MLOAD DUP1 DUP3 PUSH20 0xFFFFFFFFFFFFFFFFFFFFFFFFFFFFFFFFFFFFFFFF AND PUSH20 0xFFFFFFFFFFFFFFFFFFFFFFFFFFFFFFFFFFFFFFFF AND PUSH13 0x1000000000000000000000000 MUL DUP2 MSTORE PUSH1 0x14 ADD SWAP2 POP POP PUSH1 0x40 MLOAD DUP1 SWAP2 SUB SWAP1 KECCAK256 PUSH1 0x0 NOT AND PUSH1 0x0 NOT AND DUP2 MSTORE PUSH1 0x20 ADD SWAP1 DUP2 MSTORE PUSH1 0x20 ADD PUSH1 0x0 KECCAK256 PUSH1 0x0 SWAP1 SLOAD SWAP1 PUSH2 0x100 EXP SWAP1 DIV PUSH1 0xFF AND ISZERO ISZERO PUSH2 0x179B JUMPI PUSH1 0x0 DUP1 REVERT JUMPDEST DUP2 PUSH1 0xA PUSH1 0x0 DUP6 PUSH1 0x0 NOT AND PUSH1 0x0 NOT AND DUP2 MSTORE PUSH1 0x20 ADD SWAP1 DUP2 MSTORE PUSH1 0x20 ADD PUSH1 0x0 KECCAK256 PUSH1 0x0 PUSH2 0x100 EXP DUP2 SLOAD DUP2 PUSH1 0xFF MUL NOT AND SWAP1 DUP4 ISZERO ISZERO MUL OR SWAP1 SSTORE POP POP POP POP JUMP JUMPDEST PUSH1 0x0 DUP1 CALLER SWAP1 POP PUSH2 0x17E2 DUP2 PUSH2 0x15D7 JUMP JUMPDEST SWAP2 POP POP SWAP1 JUMP JUMPDEST PUSH1 0x1 DUP1 SLOAD PUSH1 0x1 DUP2 PUSH1 0x1 AND ISZERO PUSH2 0x100 MUL SUB AND PUSH1 0x2 SWAP1 DIV DUP1 PUSH1 0x1F ADD PUSH1 0x20 DUP1 SWAP2 DIV MUL PUSH1 0x20 ADD PUSH1 0x40 MLOAD SWAP1 DUP2 ADD PUSH1 0x40 MSTORE DUP1 SWAP3 SWAP2 SWAP1 DUP2 DUP2 MSTORE PUSH1 0x20 ADD DUP3 DUP1 SLOAD PUSH1 0x1 DUP2 PUSH1 0x1 AND ISZERO PUSH2 0x100 MUL SUB AND PUSH1 0x2 SWAP1 DIV DUP1 ISZERO PUSH2 0x187E JUMPI DUP1 PUSH1 0x1F LT PUSH2 0x1853 JUMPI PUSH2 0x100 DUP1 DUP4 SLOAD DIV MUL DUP4 MSTORE SWAP2 PUSH1 0x20 ADD SWAP2 PUSH2 0x187E JUMP JUMPDEST DUP3 ADD SWAP2 SWAP1 PUSH1 0x0 MSTORE PUSH1 0x20 PUSH1 0x0 KECCAK256 SWAP1 JUMPDEST DUP2 SLOAD DUP2 MSTORE SWAP1 PUSH1 0x1 ADD SWAP1 PUSH1 0x20 ADD DUP1 DUP4 GT PUSH2 0x1861 JUMPI DUP3 SWAP1 SUB PUSH1 0x1F AND DUP3 ADD SWAP2 JUMPDEST POP POP POP POP POP DUP2 JUMP JUMPDEST PUSH1 0x0 CALLER SWAP1 POP PUSH1 0xA PUSH1 0x0 DUP3 PUSH1 0x40 MLOAD DUP1 DUP3 PUSH20 0xFFFFFFFFFFFFFFFFFFFFFFFFFFFFFFFFFFFFFFFF AND PUSH20 0xFFFFFFFFFFFFFFFFFFFFFFFFFFFFFFFFFFFFFFFF AND PUSH13 0x1000000000000000000000000 MUL DUP2 MSTORE PUSH1 0x14 ADD SWAP2 POP POP PUSH1 0x40 MLOAD DUP1 SWAP2 SUB SWAP1 KECCAK256 PUSH1 0x0 NOT AND PUSH1 0x0 NOT AND DUP2 MSTORE PUSH1 0x20 ADD SWAP1 DUP2 MSTORE PUSH1 0x20 ADD PUSH1 0x0 KECCAK256 PUSH1 0x0 SWAP1 SLOAD SWAP1 PUSH2 0x100 EXP SWAP1 DIV PUSH1 0xFF AND ISZERO ISZERO PUSH2 0x190F JUMPI PUSH1 0x0 DUP1 REVERT JUMPDEST PUSH1 0x0 PUSH1 0xB PUSH1 0x0 PUSH2 0x100 EXP DUP2 SLOAD DUP2 PUSH1 0xFF MUL NOT AND SWAP1 DUP4 ISZERO ISZERO MUL OR SWAP1 SSTORE POP POP JUMP JUMPDEST PUSH1 0x0 DUP1 PUSH1 0x0 DUP1 PUSH1 0x0 DUP1 PUSH2 0x193E PUSH2 0x17D3 JUMP JUMPDEST GT ISZERO ISZERO PUSH2 0x194A JUMPI PUSH1 0x0 DUP1 REVERT JUMPDEST CALLER SWAP4 POP PUSH1 0xB PUSH1 0x0 SWAP1 SLOAD SWAP1 PUSH2 0x100 EXP SWAP1 DIV PUSH1 0xFF AND ISZERO DUP1 ISZERO PUSH2 0x19A9 JUMPI POP PUSH1 0x4 PUSH1 0x0 DUP6 PUSH20 0xFFFFFFFFFFFFFFFFFFFFFFFFFFFFFFFFFFFFFFFF AND PUSH20 0xFFFFFFFFFFFFFFFFFFFFFFFFFFFFFFFFFFFFFFFF AND DUP2 MSTORE PUSH1 0x20 ADD SWAP1 DUP2 MSTORE PUSH1 0x20 ADD PUSH1 0x0 KECCAK256 SLOAD DUP7 GT ISZERO JUMPDEST ISZERO ISZERO PUSH2 0x19B4 JUMPI PUSH1 0x0 DUP1 REVERT JUMPDEST PUSH1 0x0 PUSH2 0x19C0 PUSH1 0x1 PUSH2 0x154C JUMP JUMPDEST GT ISZERO PUSH2 0x19CF JUMPI PUSH2 0x19CE PUSH2 0x129E JUMP JUMPDEST JUMPDEST PUSH2 0x19DD DUP7 PUSH1 0xA PUSH1 0xFF AND PUSH2 0x21E0 JUMP JUMPDEST SWAP3 POP PUSH2 0x19E9 DUP7 DUP5 PUSH2 0x21FB JUMP JUMPDEST SWAP2 POP PUSH2 0x19F4 DUP4 PUSH2 0x22A1 JUMP JUMPDEST SWAP1 POP PUSH2 0x1A02 PUSH1 0x8 SLOAD DUP5 PUSH2 0x21FB JUMP JUMPDEST PUSH1 0x8 DUP2 SWAP1 SSTORE POP PUSH2 0x1A51 PUSH1 0x4 PUSH1 0x0 DUP7 PUSH20 0xFFFFFFFFFFFFFFFFFFFFFFFFFFFFFFFFFFFFFFFF AND PUSH20 0xFFFFFFFFFFFFFFFFFFFFFFFFFFFFFFFFFFFFFFFF AND DUP2 MSTORE PUSH1 0x20 ADD SWAP1 DUP2 MSTORE PUSH1 0x20 ADD PUSH1 0x0 KECCAK256 SLOAD DUP8 PUSH2 0x21FB JUMP JUMPDEST PUSH1 0x4 PUSH1 0x0 DUP7 PUSH20 0xFFFFFFFFFFFFFFFFFFFFFFFFFFFFFFFFFFFFFFFF AND PUSH20 0xFFFFFFFFFFFFFFFFFFFFFFFFFFFFFFFFFFFFFFFF AND DUP2 MSTORE PUSH1 0x20 ADD SWAP1 DUP2 MSTORE PUSH1 0x20 ADD PUSH1 0x0 KECCAK256 DUP2 SWAP1 SSTORE POP PUSH2 0x1ADD PUSH1 0x4 PUSH1 0x0 DUP10 PUSH20 0xFFFFFFFFFFFFFFFFFFFFFFFFFFFFFFFFFFFFFFFF AND PUSH20 0xFFFFFFFFFFFFFFFFFFFFFFFFFFFFFFFFFFFFFFFF AND DUP2 MSTORE PUSH1 0x20 ADD SWAP1 DUP2 MSTORE PUSH1 0x20 ADD PUSH1 0x0 KECCAK256 SLOAD DUP4 PUSH2 0x21C2 JUMP JUMPDEST PUSH1 0x4 PUSH1 0x0 DUP10 PUSH20 0xFFFFFFFFFFFFFFFFFFFFFFFFFFFFFFFFFFFFFFFF AND PUSH20 0xFFFFFFFFFFFFFFFFFFFFFFFFFFFFFFFFFFFFFFFF AND DUP2 MSTORE PUSH1 0x20 ADD SWAP1 DUP2 MSTORE PUSH1 0x20 ADD PUSH1 0x0 KECCAK256 DUP2 SWAP1 SSTORE POP DUP6 PUSH1 0x9 SLOAD MUL PUSH1 0x6 PUSH1 0x0 DUP7 PUSH20 0xFFFFFFFFFFFFFFFFFFFFFFFFFFFFFFFFFFFFFFFF AND PUSH20 0xFFFFFFFFFFFFFFFFFFFFFFFFFFFFFFFFFFFFFFFF AND DUP2 MSTORE PUSH1 0x20 ADD SWAP1 DUP2 MSTORE PUSH1 0x20 ADD PUSH1 0x0 KECCAK256 PUSH1 0x0 DUP3 DUP3 SLOAD SUB SWAP3 POP POP DUP2 SWAP1 SSTORE POP DUP2 PUSH1 0x9 SLOAD MUL PUSH1 0x6 PUSH1 0x0 DUP10 PUSH20 0xFFFFFFFFFFFFFFFFFFFFFFFFFFFFFFFFFFFFFFFF AND PUSH20 0xFFFFFFFFFFFFFFFFFFFFFFFFFFFFFFFFFFFFFFFF AND DUP2 MSTORE PUSH1 0x20 ADD SWAP1 DUP2 MSTORE PUSH1 0x20 ADD PUSH1 0x0 KECCAK256 PUSH1 0x0 DUP3 DUP3 SLOAD ADD SWAP3 POP POP DUP2 SWAP1 SSTORE POP PUSH2 0x1BE6 PUSH1 0x9 SLOAD PUSH1 0x8 SLOAD PUSH9 0x10000000000000000 DUP5 MUL DUP2 ISZERO ISZERO PUSH2 0x1BE0 JUMPI INVALID JUMPDEST DIV PUSH2 0x21C2 JUMP JUMPDEST PUSH1 0x9 DUP2 SWAP1 SSTORE POP DUP7 PUSH20 0xFFFFFFFFFFFFFFFFFFFFFFFFFFFFFFFFFFFFFFFF AND DUP5 PUSH20 0xFFFFFFFFFFFFFFFFFFFFFFFFFFFFFFFFFFFFFFFF AND PUSH32 0xDDF252AD1BE2C89B69C2B068FC378DAA952BA7F163C4A11628F55A4DF523B3EF DUP5 PUSH1 0x40 MLOAD DUP1 DUP3 DUP2 MSTORE PUSH1 0x20 ADD SWAP2 POP POP PUSH1 0x40 MLOAD DUP1 SWAP2 SUB SWAP1 LOG3 PUSH1 0x1 SWAP5 POP POP POP POP POP SWAP3 SWAP2 POP POP JUMP JUMPDEST PUSH1 0x0 CALLER SWAP1 POP PUSH1 0xA PUSH1 0x0 DUP3 PUSH1 0x40 MLOAD DUP1 DUP3 PUSH20 0xFFFFFFFFFFFFFFFFFFFFFFFFFFFFFFFFFFFFFFFF AND PUSH20 0xFFFFFFFFFFFFFFFFFFFFFFFFFFFFFFFFFFFFFFFF AND PUSH13 0x1000000000000000000000000 MUL DUP2 MSTORE PUSH1 0x14 ADD SWAP2 POP POP PUSH1 0x40 MLOAD DUP1 SWAP2 SUB SWAP1 KECCAK256 PUSH1 0x0 NOT AND PUSH1 0x0 NOT AND DUP2 MSTORE PUSH1 0x20 ADD SWAP1 DUP2 MSTORE PUSH1 0x20 ADD PUSH1 0x0 KECCAK256 PUSH1 0x0 SWAP1 SLOAD SWAP1 PUSH2 0x100 EXP SWAP1 DIV PUSH1 0xFF AND ISZERO ISZERO PUSH2 0x1CE8 JUMPI PUSH1 0x0 DUP1 REVERT JUMPDEST DUP2 PUSH1 0x1 SWAP1 DUP1 MLOAD SWAP1 PUSH1 0x20 ADD SWAP1 PUSH2 0x1CFE SWAP3 SWAP2 SWAP1 PUSH2 0x2397 JUMP JUMPDEST POP POP POP JUMP JUMPDEST PUSH1 0x0 CALLER SWAP1 POP PUSH1 0xA PUSH1 0x0 DUP3 PUSH1 0x40 MLOAD DUP1 DUP3 PUSH20 0xFFFFFFFFFFFFFFFFFFFFFFFFFFFFFFFFFFFFFFFF AND PUSH20 0xFFFFFFFFFFFFFFFFFFFFFFFFFFFFFFFFFFFFFFFF AND PUSH13 0x1000000000000000000000000 MUL DUP2 MSTORE PUSH1 0x14 ADD SWAP2 POP POP PUSH1 0x40 MLOAD DUP1 SWAP2 SUB SWAP1 KECCAK256 PUSH1 0x0 NOT AND PUSH1 0x0 NOT AND DUP2 MSTORE PUSH1 0x20 ADD SWAP1 DUP2 MSTORE PUSH1 0x20 ADD PUSH1 0x0 KECCAK256 PUSH1 0x0 SWAP1 SLOAD SWAP1 PUSH2 0x100 EXP SWAP1 DIV PUSH1 0xFF AND ISZERO ISZERO PUSH2 0x1D8C JUMPI PUSH1 0x0 DUP1 REVERT JUMPDEST DUP2 PUSH1 0x0 SWAP1 DUP1 MLOAD SWAP1 PUSH1 0x20 ADD SWAP1 PUSH2 0x1DA2 SWAP3 SWAP2 SWAP1 PUSH2 0x2397 JUMP JUMPDEST POP POP POP JUMP JUMPDEST PUSH1 0x0 DUP1 PUSH1 0x0 DUP1 PUSH1 0x0 DUP1 PUSH1 0x0 PUSH2 0x1DBA PUSH2 0x17D3 JUMP JUMPDEST GT ISZERO ISZERO PUSH2 0x1DC6 JUMPI PUSH1 0x0 DUP1 REVERT JUMPDEST CALLER SWAP6 POP PUSH1 0x4 PUSH1 0x0 DUP8 PUSH20 0xFFFFFFFFFFFFFFFFFFFFFFFFFFFFFFFFFFFFFFFF AND PUSH20 0xFFFFFFFFFFFFFFFFFFFFFFFFFFFFFFFFFFFFFFFF AND DUP2 MSTORE PUSH1 0x20 ADD SWAP1 DUP2 MSTORE PUSH1 0x20 ADD PUSH1 0x0 KECCAK256 SLOAD DUP8 GT ISZERO ISZERO ISZERO PUSH2 0x1E17 JUMPI PUSH1 0x0 DUP1 REVERT JUMPDEST DUP7 SWAP5 POP PUSH2 0x1E23 DUP6 PUSH2 0x22A1 JUMP JUMPDEST SWAP4 POP PUSH2 0x1E33 DUP5 PUSH1 0xA PUSH1 0xFF AND PUSH2 0x21E0 JUMP JUMPDEST SWAP3 POP PUSH2 0x1E3F DUP5 DUP5 PUSH2 0x21FB JUMP JUMPDEST SWAP2 POP PUSH2 0x1E4D PUSH1 0x8 SLOAD DUP7 PUSH2 0x21FB JUMP JUMPDEST PUSH1 0x8 DUP2 SWAP1 SSTORE POP PUSH2 0x1E9C PUSH1 0x4 PUSH1 0x0 DUP9 PUSH20 0xFFFFFFFFFFFFFFFFFFFFFFFFFFFFFFFFFFFFFFFF AND PUSH20 0xFFFFFFFFFFFFFFFFFFFFFFFFFFFFFFFFFFFFFFFF AND DUP2 MSTORE PUSH1 0x20 ADD SWAP1 DUP2 MSTORE PUSH1 0x20 ADD PUSH1 0x0 KECCAK256 SLOAD DUP7 PUSH2 0x21FB JUMP JUMPDEST PUSH1 0x4 PUSH1 0x0 DUP9 PUSH20 0xFFFFFFFFFFFFFFFFFFFFFFFFFFFFFFFFFFFFFFFF AND PUSH20 0xFFFFFFFFFFFFFFFFFFFFFFFFFFFFFFFFFFFFFFFF AND DUP2 MSTORE PUSH1 0x20 ADD SWAP1 DUP2 MSTORE PUSH1 0x20 ADD PUSH1 0x0 KECCAK256 DUP2 SWAP1 SSTORE POP PUSH9 0x10000000000000000 DUP3 MUL DUP6 PUSH1 0x9 SLOAD MUL ADD SWAP1 POP DUP1 PUSH1 0x6 PUSH1 0x0 DUP9 PUSH20 0xFFFFFFFFFFFFFFFFFFFFFFFFFFFFFFFFFFFFFFFF AND PUSH20 0xFFFFFFFFFFFFFFFFFFFFFFFFFFFFFFFFFFFFFFFF AND DUP2 MSTORE PUSH1 0x20 ADD SWAP1 DUP2 MSTORE PUSH1 0x20 ADD PUSH1 0x0 KECCAK256 PUSH1 0x0 DUP3 DUP3 SLOAD SUB SWAP3 POP POP DUP2 SWAP1 SSTORE POP PUSH1 0x0 PUSH1 0x8 SLOAD GT ISZERO PUSH2 0x1F76 JUMPI PUSH2 0x1F6F PUSH1 0x9 SLOAD PUSH1 0x8 SLOAD PUSH9 0x10000000000000000 DUP7 MUL DUP2 ISZERO ISZERO PUSH2 0x1F69 JUMPI INVALID JUMPDEST DIV PUSH2 0x21C2 JUMP JUMPDEST PUSH1 0x9 DUP2 SWAP1 SSTORE POP JUMPDEST DUP6 PUSH20 0xFFFFFFFFFFFFFFFFFFFFFFFFFFFFFFFFFFFFFFFF AND PUSH32 0xC4823739C5787D2CA17E404AA47D5569AE71DFB49CBF21B3F6152ED238A31139 DUP7 DUP5 PUSH1 0x40 MLOAD DUP1 DUP4 DUP2 MSTORE PUSH1 0x20 ADD DUP3 DUP2 MSTORE PUSH1 0x20 ADD SWAP3 POP POP POP PUSH1 0x40 MLOAD DUP1 SWAP2 SUB SWAP1 LOG2 POP POP POP POP POP POP POP JUMP JUMPDEST PUSH1 0x0 DUP1 CALLER SWAP2 POP PUSH1 0x4 PUSH1 0x0 DUP4 PUSH20 0xFFFFFFFFFFFFFFFFFFFFFFFFFFFFFFFFFFFFFFFF AND PUSH20 0xFFFFFFFFFFFFFFFFFFFFFFFFFFFFFFFFFFFFFFFF AND DUP2 MSTORE PUSH1 0x20 ADD SWAP1 DUP2 MSTORE PUSH1 0x20 ADD PUSH1 0x0 KECCAK256 SLOAD SWAP1 POP PUSH1 0x0 DUP2 GT ISZERO PUSH2 0x2030 JUMPI PUSH2 0x202F DUP2 PUSH2 0x1DA7 JUMP JUMPDEST JUMPDEST PUSH2 0x2038 PUSH2 0x129E JUMP JUMPDEST POP POP JUMP JUMPDEST PUSH1 0x0 PUSH2 0x2048 CALLVALUE DUP4 PUSH2 0x79C JUMP JUMPDEST POP SWAP2 SWAP1 POP JUMP JUMPDEST PUSH1 0x0 DUP1 PUSH1 0x0 DUP1 PUSH2 0x205E PUSH1 0x1 PUSH2 0x154C JUMP JUMPDEST GT ISZERO ISZERO PUSH2 0x206A JUMPI PUSH1 0x0 DUP1 REVERT JUMPDEST PUSH2 0x2074 PUSH1 0x0 PUSH2 0x154C JUMP JUMPDEST SWAP3 POP CALLER SWAP2 POP PUSH9 0x10000000000000000 DUP4 MUL PUSH1 0x6 PUSH1 0x0 DUP5 PUSH20 0xFFFFFFFFFFFFFFFFFFFFFFFFFFFFFFFFFFFFFFFF AND PUSH20 0xFFFFFFFFFFFFFFFFFFFFFFFFFFFFFFFFFFFFFFFF AND DUP2 MSTORE PUSH1 0x20 ADD SWAP1 DUP2 MSTORE PUSH1 0x20 ADD PUSH1 0x0 KECCAK256 PUSH1 0x0 DUP3 DUP3 SLOAD ADD SWAP3 POP POP DUP2 SWAP1 SSTORE POP PUSH1 0x5 PUSH1 0x0 DUP4 PUSH20 0xFFFFFFFFFFFFFFFFFFFFFFFFFFFFFFFFFFFFFFFF AND PUSH20 0xFFFFFFFFFFFFFFFFFFFFFFFFFFFFFFFFFFFFFFFF AND DUP2 MSTORE PUSH1 0x20 ADD SWAP1 DUP2 MSTORE PUSH1 0x20 ADD PUSH1 0x0 KECCAK256 SLOAD DUP4 ADD SWAP3 POP PUSH1 0x0 PUSH1 0x5 PUSH1 0x0 DUP5 PUSH20 0xFFFFFFFFFFFFFFFFFFFFFFFFFFFFFFFFFFFFFFFF AND PUSH20 0xFFFFFFFFFFFFFFFFFFFFFFFFFFFFFFFFFFFFFFFF AND DUP2 MSTORE PUSH1 0x20 ADD SWAP1 DUP2 MSTORE PUSH1 0x20 ADD PUSH1 0x0 KECCAK256 DUP2 SWAP1 SSTORE POP PUSH2 0x2165 DUP4 PUSH1 0x0 PUSH2 0x79C JUMP JUMPDEST SWAP1 POP DUP2 PUSH20 0xFFFFFFFFFFFFFFFFFFFFFFFFFFFFFFFFFFFFFFFF AND PUSH32 0xBE339FC14B041C2B0E0F3DD2CD325D0C3668B78378001E53160EAB3615326458 DUP5 DUP4 PUSH1 0x40 MLOAD DUP1 DUP4 DUP2 MSTORE PUSH1 0x20 ADD DUP3 DUP2 MSTORE PUSH1 0x20 ADD SWAP3 POP POP POP PUSH1 0x40 MLOAD DUP1 SWAP2 SUB SWAP1 LOG2 POP POP POP JUMP JUMPDEST PUSH1 0x0 DUP1 DUP3 DUP5 ADD SWAP1 POP DUP4 DUP2 LT ISZERO ISZERO ISZERO PUSH2 0x21D6 JUMPI INVALID JUMPDEST DUP1 SWAP2 POP POP SWAP3 SWAP2 POP POP JUMP JUMPDEST PUSH1 0x0 DUP1 DUP3 DUP5 DUP2 ISZERO ISZERO PUSH2 0x21EE JUMPI INVALID JUMPDEST DIV SWAP1 POP DUP1 SWAP2 POP POP SWAP3 SWAP2 POP POP JUMP JUMPDEST PUSH1 0x0 DUP3 DUP3 GT ISZERO ISZERO ISZERO PUSH2 0x2209 JUMPI INVALID JUMPDEST DUP2 DUP4 SUB SWAP1 POP SWAP3 SWAP2 POP POP JUMP JUMPDEST PUSH1 0x0 DUP1 PUSH1 0x0 PUSH8 0xDE0B6B3A7640000 PUSH5 0x174876E800 MUL SWAP2 POP PUSH1 0x8 SLOAD PUSH5 0x2540BE400 PUSH2 0x228A PUSH2 0x2284 PUSH1 0x8 SLOAD DUP7 PUSH5 0x2540BE400 PUSH1 0x2 MUL MUL MUL PUSH1 0x2 PUSH1 0x8 SLOAD EXP PUSH1 0x2 PUSH5 0x2540BE400 EXP MUL PUSH8 0xDE0B6B3A7640000 DUP11 MUL PUSH8 0xDE0B6B3A7640000 PUSH5 0x2540BE400 MUL PUSH1 0x2 MUL MUL PUSH1 0x2 DUP10 EXP ADD ADD ADD PUSH2 0x234C JUMP JUMPDEST DUP6 PUSH2 0x21FB JUMP JUMPDEST DUP2 ISZERO ISZERO PUSH2 0x2293 JUMPI INVALID JUMPDEST DIV SUB SWAP1 POP DUP1 SWAP3 POP POP POP SWAP2 SWAP1 POP JUMP JUMPDEST PUSH1 0x0 DUP1 PUSH1 0x0 DUP1 PUSH8 0xDE0B6B3A7640000 DUP6 ADD SWAP3 POP PUSH8 0xDE0B6B3A7640000 PUSH1 0x8 SLOAD ADD SWAP2 POP PUSH8 0xDE0B6B3A7640000 PUSH2 0x2335 PUSH8 0xDE0B6B3A7640000 DUP6 SUB PUSH5 0x2540BE400 PUSH8 0xDE0B6B3A7640000 DUP7 DUP2 ISZERO ISZERO PUSH2 0x22F3 JUMPI INVALID JUMPDEST DIV PUSH5 0x2540BE400 MUL PUSH5 0x174876E800 ADD SUB MUL PUSH1 0x2 PUSH8 0xDE0B6B3A7640000 DUP8 PUSH1 0x2 DUP10 EXP SUB DUP2 ISZERO ISZERO PUSH2 0x231E JUMPI INVALID JUMPDEST DIV PUSH5 0x2540BE400 MUL DUP2 ISZERO ISZERO PUSH2 0x232F JUMPI INVALID JUMPDEST DIV PUSH2 0x21FB JUMP JUMPDEST DUP2 ISZERO ISZERO PUSH2 0x233E JUMPI INVALID JUMPDEST DIV SWAP1 POP DUP1 SWAP4 POP POP POP POP SWAP2 SWAP1 POP JUMP JUMPDEST PUSH1 0x0 DUP1 PUSH1 0x2 PUSH1 0x1 DUP5 ADD DUP2 ISZERO ISZERO PUSH2 0x235E JUMPI INVALID JUMPDEST DIV SWAP1 POP DUP3 SWAP2 POP JUMPDEST DUP2 DUP2 LT ISZERO PUSH2 0x2391 JUMPI DUP1 SWAP2 POP PUSH1 0x2 DUP2 DUP3 DUP6 DUP2 ISZERO ISZERO PUSH2 0x237E JUMPI INVALID JUMPDEST DIV ADD DUP2 ISZERO ISZERO PUSH2 0x2389 JUMPI INVALID JUMPDEST DIV SWAP1 POP PUSH2 0x2365 JUMP JUMPDEST POP SWAP2 SWAP1 POP JUMP JUMPDEST DUP3 DUP1 SLOAD PUSH1 0x1 DUP2 PUSH1 0x1 AND ISZERO PUSH2 0x100 MUL SUB AND PUSH1 0x2 SWAP1 DIV SWAP1 PUSH1 0x0 MSTORE PUSH1 0x20 PUSH1 0x0 KECCAK256 SWAP1 PUSH1 0x1F ADD PUSH1 0x20 SWAP1 DIV DUP2 ADD SWAP3 DUP3 PUSH1 0x1F LT PUSH2 0x23D8 JUMPI DUP1 MLOAD PUSH1 0xFF NOT AND DUP4 DUP1 ADD OR DUP6 SSTORE PUSH2 0x2406 JUMP JUMPDEST DUP3 DUP1 ADD PUSH1 0x1 ADD DUP6 SSTORE DUP3 ISZERO PUSH2 0x2406 JUMPI SWAP2 DUP3 ADD JUMPDEST DUP3 DUP2 GT ISZERO PUSH2 0x2405 JUMPI DUP3 MLOAD DUP3 SSTORE SWAP2 PUSH1 0x20 ADD SWAP2 SWAP1 PUSH1 0x1 ADD SWAP1 PUSH2 0x23EA JUMP JUMPDEST JUMPDEST POP SWAP1 POP PUSH2 0x2413 SWAP2 SWAP1 PUSH2 0x2417 JUMP JUMPDEST POP SWAP1 JUMP JUMPDEST PUSH2 0x2439 SWAP2 SWAP1 JUMPDEST DUP1 DUP3 GT ISZERO PUSH2 0x2435 JUMPI PUSH1 0x0 DUP2 PUSH1 0x0 SWAP1 SSTORE POP PUSH1 0x1 ADD PUSH2 0x241D JUMP JUMPDEST POP SWAP1 JUMP JUMPDEST SWAP1 JUMP STOP LOG1 PUSH6 0x627A7A723058 KECCAK256 0x4a SLOAD CALLER 0xe0 0x28 0xe3 0xfc LOG2 CREATE2 0xb3 0xf 0x5f PUSH20 0x47CB7DA85AA16B716F6DFEE663C1479A3B832500 0x29 "
        },
        "methodIdentifiers": {
          "GandhiJi()": "58d63255",
          "administrators(bytes32)": "392efb52",
          "balanceOf(address)": "70a08231",
          "buy(address)": "f088d547",
          "buyPrice()": "8620410b",
          "calculateEthereumReceived(uint256)": "22609373",
          "calculateTokensReceived(uint256)": "10d0ffdd",
          "decimals()": "313ce567",
          "disableInitialStage()": "a8e04f34",
          "dividendsOf(address)": "0065318b",
          "exit()": "e9fad8ee",
          "myDividends(bool)": "688abbf7",
          "myTokens()": "949e8acd",
          "name()": "06fdde03",
          "onlyAmbassadors()": "27defa1f",
          "reinvest()": "fdb5a03e",
          "sell(uint256)": "e4849b32",
          "sellPrice()": "4b750334",
          "setAdministrator(bytes32,bool)": "89135ae9",
          "setName(string)": "c47f0027",
          "setStakingRequirement(uint256)": "8328b610",
          "setSymbol(string)": "b84c8246",
          "stakingRequirement()": "56d399e8",
          "symbol()": "95d89b41",
          "totalEthereumBalance()": "6b2f4632",
          "totalSupply()": "18160ddd",
          "transfer(address,uint256)": "a9059cbb",
          "withdraw()": "3ccfd60b"
        }
      }
    }
  }
}