{
  "_format": "hh-sol-artifact-1",
  "contractName": "SafeADADividendTracker",
  "sourceName": "contracts/SafeADA.sol",
  "abi": [
    {
      "inputs": [],
      "stateMutability": "nonpayable",
      "type": "constructor"
    },
    {
      "anonymous": false,
      "inputs": [
        {
          "indexed": true,
          "internalType": "address",
          "name": "owner",
          "type": "address"
        },
        {
          "indexed": true,
          "internalType": "address",
          "name": "spender",
          "type": "address"
        },
        {
          "indexed": false,
          "internalType": "uint256",
          "name": "value",
          "type": "uint256"
        }
      ],
      "name": "Approval",
      "type": "event"
    },
    {
      "anonymous": false,
      "inputs": [
        {
          "indexed": true,
          "internalType": "address",
          "name": "account",
          "type": "address"
        },
        {
          "indexed": false,
          "internalType": "uint256",
          "name": "amount",
          "type": "uint256"
        },
        {
          "indexed": true,
          "internalType": "bool",
          "name": "automatic",
          "type": "bool"
        }
      ],
      "name": "Claim",
      "type": "event"
    },
    {
      "anonymous": false,
      "inputs": [
        {
          "indexed": true,
          "internalType": "uint256",
          "name": "newValue",
          "type": "uint256"
        },
        {
          "indexed": true,
          "internalType": "uint256",
          "name": "oldValue",
          "type": "uint256"
        }
      ],
      "name": "ClaimWaitUpdated",
      "type": "event"
    },
    {
      "anonymous": false,
      "inputs": [
        {
          "indexed": true,
          "internalType": "address",
          "name": "to",
          "type": "address"
        },
        {
          "indexed": false,
          "internalType": "uint256",
          "name": "weiAmount",
          "type": "uint256"
        }
      ],
      "name": "DividendWithdrawn",
      "type": "event"
    },
    {
      "anonymous": false,
      "inputs": [
        {
          "indexed": true,
          "internalType": "address",
          "name": "from",
          "type": "address"
        },
        {
          "indexed": false,
          "internalType": "uint256",
          "name": "weiAmount",
          "type": "uint256"
        }
      ],
      "name": "DividendsDistributed",
      "type": "event"
    },
    {
      "anonymous": false,
      "inputs": [
        {
          "indexed": true,
          "internalType": "address",
          "name": "account",
          "type": "address"
        }
      ],
      "name": "ExcludeFromDividends",
      "type": "event"
    },
    {
      "anonymous": false,
      "inputs": [
        {
          "indexed": true,
          "internalType": "address",
          "name": "previousOwner",
          "type": "address"
        },
        {
          "indexed": true,
          "internalType": "address",
          "name": "newOwner",
          "type": "address"
        }
      ],
      "name": "OwnershipTransferred",
      "type": "event"
    },
    {
      "anonymous": false,
      "inputs": [
        {
          "indexed": true,
          "internalType": "address",
          "name": "from",
          "type": "address"
        },
        {
          "indexed": true,
          "internalType": "address",
          "name": "to",
          "type": "address"
        },
        {
          "indexed": false,
          "internalType": "uint256",
          "name": "value",
          "type": "uint256"
        }
      ],
      "name": "Transfer",
      "type": "event"
    },
    {
      "inputs": [
        {
          "internalType": "address",
          "name": "_owner",
          "type": "address"
        }
      ],
      "name": "accumulativeDividendOf",
      "outputs": [
        {
          "internalType": "uint256",
          "name": "",
          "type": "uint256"
        }
      ],
      "stateMutability": "view",
      "type": "function"
    },
    {
      "inputs": [
        {
          "internalType": "address",
          "name": "owner",
          "type": "address"
        },
        {
          "internalType": "address",
          "name": "spender",
          "type": "address"
        }
      ],
      "name": "allowance",
      "outputs": [
        {
          "internalType": "uint256",
          "name": "",
          "type": "uint256"
        }
      ],
      "stateMutability": "view",
      "type": "function"
    },
    {
      "inputs": [
        {
          "internalType": "address",
          "name": "spender",
          "type": "address"
        },
        {
          "internalType": "uint256",
          "name": "amount",
          "type": "uint256"
        }
      ],
      "name": "approve",
      "outputs": [
        {
          "internalType": "bool",
          "name": "",
          "type": "bool"
        }
      ],
      "stateMutability": "nonpayable",
      "type": "function"
    },
    {
      "inputs": [
        {
          "internalType": "address",
          "name": "account",
          "type": "address"
        }
      ],
      "name": "balanceOf",
      "outputs": [
        {
          "internalType": "uint256",
          "name": "",
          "type": "uint256"
        }
      ],
      "stateMutability": "view",
      "type": "function"
    },
    {
      "inputs": [],
      "name": "claimWait",
      "outputs": [
        {
          "internalType": "uint256",
          "name": "",
          "type": "uint256"
        }
      ],
      "stateMutability": "view",
      "type": "function"
    },
    {
      "inputs": [],
      "name": "decimals",
      "outputs": [
        {
          "internalType": "uint8",
          "name": "",
          "type": "uint8"
        }
      ],
      "stateMutability": "view",
      "type": "function"
    },
    {
      "inputs": [
        {
          "internalType": "address",
          "name": "spender",
          "type": "address"
        },
        {
          "internalType": "uint256",
          "name": "subtractedValue",
          "type": "uint256"
        }
      ],
      "name": "decreaseAllowance",
      "outputs": [
        {
          "internalType": "bool",
          "name": "",
          "type": "bool"
        }
      ],
      "stateMutability": "nonpayable",
      "type": "function"
    },
    {
      "inputs": [
        {
          "internalType": "uint256",
          "name": "amount",
          "type": "uint256"
        }
      ],
      "name": "distributerewardTokenDividends",
      "outputs": [],
      "stateMutability": "nonpayable",
      "type": "function"
    },
    {
      "inputs": [
        {
          "internalType": "address",
          "name": "_owner",
          "type": "address"
        }
      ],
      "name": "dividendOf",
      "outputs": [
        {
          "internalType": "uint256",
          "name": "",
          "type": "uint256"
        }
      ],
      "stateMutability": "view",
      "type": "function"
    },
    {
      "inputs": [
        {
          "internalType": "address",
          "name": "account",
          "type": "address"
        }
      ],
      "name": "excludeFromDividends",
      "outputs": [],
      "stateMutability": "nonpayable",
      "type": "function"
    },
    {
      "inputs": [
        {
          "internalType": "address",
          "name": "",
          "type": "address"
        }
      ],
      "name": "excludedFromDividends",
      "outputs": [
        {
          "internalType": "bool",
          "name": "",
          "type": "bool"
        }
      ],
      "stateMutability": "view",
      "type": "function"
    },
    {
      "inputs": [
        {
          "internalType": "address",
          "name": "_account",
          "type": "address"
        }
      ],
      "name": "getAccount",
      "outputs": [
        {
          "internalType": "address",
          "name": "account",
          "type": "address"
        },
        {
          "internalType": "int256",
          "name": "index",
          "type": "int256"
        },
        {
          "internalType": "int256",
          "name": "iterationsUntilProcessed",
          "type": "int256"
        },
        {
          "internalType": "uint256",
          "name": "withdrawableDividends",
          "type": "uint256"
        },
        {
          "internalType": "uint256",
          "name": "totalDividends",
          "type": "uint256"
        },
        {
          "internalType": "uint256",
          "name": "lastClaimTime",
          "type": "uint256"
        },
        {
          "internalType": "uint256",
          "name": "nextClaimTime",
          "type": "uint256"
        },
        {
          "internalType": "uint256",
          "name": "secondsUntilAutoClaimAvailable",
          "type": "uint256"
        }
      ],
      "stateMutability": "view",
      "type": "function"
    },
    {
      "inputs": [
        {
          "internalType": "uint256",
          "name": "index",
          "type": "uint256"
        }
      ],
      "name": "getAccountAtIndex",
      "outputs": [
        {
          "internalType": "address",
          "name": "",
          "type": "address"
        },
        {
          "internalType": "int256",
          "name": "",
          "type": "int256"
        },
        {
          "internalType": "int256",
          "name": "",
          "type": "int256"
        },
        {
          "internalType": "uint256",
          "name": "",
          "type": "uint256"
        },
        {
          "internalType": "uint256",
          "name": "",
          "type": "uint256"
        },
        {
          "internalType": "uint256",
          "name": "",
          "type": "uint256"
        },
        {
          "internalType": "uint256",
          "name": "",
          "type": "uint256"
        },
        {
          "internalType": "uint256",
          "name": "",
          "type": "uint256"
        }
      ],
      "stateMutability": "view",
      "type": "function"
    },
    {
      "inputs": [],
      "name": "getLastProcessedIndex",
      "outputs": [
        {
          "internalType": "uint256",
          "name": "",
          "type": "uint256"
        }
      ],
      "stateMutability": "view",
      "type": "function"
    },
    {
      "inputs": [],
      "name": "getNumberOfTokenHolders",
      "outputs": [
        {
          "internalType": "uint256",
          "name": "",
          "type": "uint256"
        }
      ],
      "stateMutability": "view",
      "type": "function"
    },
    {
      "inputs": [
        {
          "internalType": "address",
          "name": "spender",
          "type": "address"
        },
        {
          "internalType": "uint256",
          "name": "addedValue",
          "type": "uint256"
        }
      ],
      "name": "increaseAllowance",
      "outputs": [
        {
          "internalType": "bool",
          "name": "",
          "type": "bool"
        }
      ],
      "stateMutability": "nonpayable",
      "type": "function"
    },
    {
      "inputs": [
        {
          "internalType": "address",
          "name": "",
          "type": "address"
        }
      ],
      "name": "lastClaimTimes",
      "outputs": [
        {
          "internalType": "uint256",
          "name": "",
          "type": "uint256"
        }
      ],
      "stateMutability": "view",
      "type": "function"
    },
    {
      "inputs": [],
      "name": "lastProcessedIndex",
      "outputs": [
        {
          "internalType": "uint256",
          "name": "",
          "type": "uint256"
        }
      ],
      "stateMutability": "view",
      "type": "function"
    },
    {
      "inputs": [],
      "name": "minimumTokenBalanceForDividends",
      "outputs": [
        {
          "internalType": "uint256",
          "name": "",
          "type": "uint256"
        }
      ],
      "stateMutability": "view",
      "type": "function"
    },
    {
      "inputs": [],
      "name": "name",
      "outputs": [
        {
          "internalType": "string",
          "name": "",
          "type": "string"
        }
      ],
      "stateMutability": "view",
      "type": "function"
    },
    {
      "inputs": [],
      "name": "owner",
      "outputs": [
        {
          "internalType": "address",
          "name": "",
          "type": "address"
        }
      ],
      "stateMutability": "view",
      "type": "function"
    },
    {
      "inputs": [
        {
          "internalType": "uint256",
          "name": "gas",
          "type": "uint256"
        }
      ],
      "name": "process",
      "outputs": [
        {
          "internalType": "uint256",
          "name": "",
          "type": "uint256"
        },
        {
          "internalType": "uint256",
          "name": "",
          "type": "uint256"
        },
        {
          "internalType": "uint256",
          "name": "",
          "type": "uint256"
        }
      ],
      "stateMutability": "nonpayable",
      "type": "function"
    },
    {
      "inputs": [
        {
          "internalType": "address payable",
          "name": "account",
          "type": "address"
        },
        {
          "internalType": "bool",
          "name": "automatic",
          "type": "bool"
        }
      ],
      "name": "processAccount",
      "outputs": [
        {
          "internalType": "bool",
          "name": "",
          "type": "bool"
        }
      ],
      "stateMutability": "nonpayable",
      "type": "function"
    },
    {
      "inputs": [],
      "name": "renounceOwnership",
      "outputs": [],
      "stateMutability": "nonpayable",
      "type": "function"
    },
    {
      "inputs": [],
      "name": "rewardToken",
      "outputs": [
        {
          "internalType": "address",
          "name": "",
          "type": "address"
        }
      ],
      "stateMutability": "view",
      "type": "function"
    },
    {
      "inputs": [
        {
          "internalType": "address payable",
          "name": "account",
          "type": "address"
        },
        {
          "internalType": "uint256",
          "name": "newBalance",
          "type": "uint256"
        }
      ],
      "name": "setBalance",
      "outputs": [],
      "stateMutability": "nonpayable",
      "type": "function"
    },
    {
      "inputs": [],
      "name": "symbol",
      "outputs": [
        {
          "internalType": "string",
          "name": "",
          "type": "string"
        }
      ],
      "stateMutability": "view",
      "type": "function"
    },
    {
      "inputs": [],
      "name": "totalDividendsDistributed",
      "outputs": [
        {
          "internalType": "uint256",
          "name": "",
          "type": "uint256"
        }
      ],
      "stateMutability": "view",
      "type": "function"
    },
    {
      "inputs": [],
      "name": "totalSupply",
      "outputs": [
        {
          "internalType": "uint256",
          "name": "",
          "type": "uint256"
        }
      ],
      "stateMutability": "view",
      "type": "function"
    },
    {
      "inputs": [
        {
          "internalType": "address",
          "name": "recipient",
          "type": "address"
        },
        {
          "internalType": "uint256",
          "name": "amount",
          "type": "uint256"
        }
      ],
      "name": "transfer",
      "outputs": [
        {
          "internalType": "bool",
          "name": "",
          "type": "bool"
        }
      ],
      "stateMutability": "nonpayable",
      "type": "function"
    },
    {
      "inputs": [
        {
          "internalType": "address",
          "name": "sender",
          "type": "address"
        },
        {
          "internalType": "address",
          "name": "recipient",
          "type": "address"
        },
        {
          "internalType": "uint256",
          "name": "amount",
          "type": "uint256"
        }
      ],
      "name": "transferFrom",
      "outputs": [
        {
          "internalType": "bool",
          "name": "",
          "type": "bool"
        }
      ],
      "stateMutability": "nonpayable",
      "type": "function"
    },
    {
      "inputs": [
        {
          "internalType": "address",
          "name": "newOwner",
          "type": "address"
        }
      ],
      "name": "transferOwnership",
      "outputs": [],
      "stateMutability": "nonpayable",
      "type": "function"
    },
    {
      "inputs": [
        {
          "internalType": "uint256",
          "name": "newClaimWait",
          "type": "uint256"
        }
      ],
      "name": "updateClaimWait",
      "outputs": [],
      "stateMutability": "nonpayable",
      "type": "function"
    },
    {
      "inputs": [],
      "name": "withdrawDividend",
      "outputs": [],
      "stateMutability": "nonpayable",
      "type": "function"
    },
    {
      "inputs": [
        {
          "internalType": "address",
          "name": "_owner",
          "type": "address"
        }
      ],
      "name": "withdrawableDividendOf",
      "outputs": [
        {
          "internalType": "uint256",
          "name": "",
          "type": "uint256"
        }
      ],
      "stateMutability": "view",
      "type": "function"
    },
    {
      "inputs": [
        {
          "internalType": "address",
          "name": "_owner",
          "type": "address"
        }
      ],
      "name": "withdrawnDividendOf",
      "outputs": [
        {
          "internalType": "uint256",
          "name": "",
          "type": "uint256"
        }
      ],
      "stateMutability": "view",
      "type": "function"
    }
  ],
  "bytecode": "0x60c0604052732170ed0880ac9a755fd29b2688956bd959f933f873ffffffffffffffffffffffffffffffffffffffff1660809073ffffffffffffffffffffffffffffffffffffffff1660601b8152503480156200005b57600080fd5b506040518060400160405280601781526020017f536166654144415f4469766964656e5f547261636b65720000000000000000008152506040518060400160405280601881526020017f536166654144415f4469766964656e645f547261636b6572000000000000000081525081818160039080519060200190620000e2929190620001d9565b508060049080519060200190620000fb929190620001d9565b505050600062000110620001d160201b60201c565b905080600560006101000a81548173ffffffffffffffffffffffffffffffffffffffff021916908373ffffffffffffffffffffffffffffffffffffffff1602179055508073ffffffffffffffffffffffffffffffffffffffff16600073ffffffffffffffffffffffffffffffffffffffff167f8be0079c531659141344cd1fd0a4f28419497f9722a3daafe3b4186f6b6457e060405160405180910390a3505050610e10601181905550686c6b935b8bbd40000060a081815250506200027f565b600033905090565b828054600181600116156101000203166002900490600052602060002090601f016020900481019282601f106200021c57805160ff19168380011785556200024d565b828001600101855582156200024d579182015b828111156200024c5782518255916020019190600101906200022f565b5b5090506200025c919062000260565b5090565b5b808211156200027b57600081600090555060010162000261565b5090565b60805160601c60a051613650620002b060003980611bb95280611d855250806122d35280612ccf52506136506000f3fe608060405234801561001057600080fd5b506004361061021c5760003560e01c80638da5cb5b11610125578063be10b614116100ad578063e98030c71161007c578063e98030c714610b07578063f2fde38b14610b35578063f7c618c114610b79578063fbcbc0f114610bad578063ffb2c47914610c4c5761021c565b8063be10b61414610a05578063dd62ed3e14610a23578063e30443bc14610a9b578063e7841ec014610ae95761021c565b8063a8b9d240116100f4578063a8b9d2401461085d578063a9059cbb146108b5578063aafd847a14610919578063ba3294eb14610971578063bc4c4b371461099f5761021c565b80638da5cb5b146106ea57806391b89fba1461071e57806395d89b4114610776578063a457c2d7146107f95761021c565b806331e79db0116101a85780636a474002116101775780636a474002146106425780636f2789ec1461064c57806370a082311461066a578063715018a6146106c257806385a6b3ae146106cc5761021c565b806331e79db0146104b757806339509351146104fb5780634e7b827f1461055f5780635183d6fd146105b95761021c565b8063226cfa3d116101ef578063226cfa3d1461034457806323b872dd1461039c57806327ce0147146104205780633009a60914610478578063313ce567146104965761021c565b806306fdde0314610221578063095ea7b3146102a457806309bbedde1461030857806318160ddd14610326575b600080fd5b610229610c9c565b6040518080602001828103825283818151815260200191508051906020019080838360005b8381101561026957808201518184015260208101905061024e565b50505050905090810190601f1680156102965780820380516001836020036101000a031916815260200191505b509250505060405180910390f35b6102f0600480360360408110156102ba57600080fd5b81019080803573ffffffffffffffffffffffffffffffffffffffff16906020019092919080359060200190929190505050610d3e565b60405180821515815260200191505060405180910390f35b610310610d5c565b6040518082815260200191505060405180910390f35b61032e610d6c565b6040518082815260200191505060405180910390f35b6103866004803603602081101561035a57600080fd5b81019080803573ffffffffffffffffffffffffffffffffffffffff169060200190929190505050610d76565b6040518082815260200191505060405180910390f35b610408600480360360608110156103b257600080fd5b81019080803573ffffffffffffffffffffffffffffffffffffffff169060200190929190803573ffffffffffffffffffffffffffffffffffffffff16906020019092919080359060200190929190505050610d8e565b60405180821515815260200191505060405180910390f35b6104626004803603602081101561043657600080fd5b81019080803573ffffffffffffffffffffffffffffffffffffffff169060200190929190505050610e67565b6040518082815260200191505060405180910390f35b610480610f08565b6040518082815260200191505060405180910390f35b61049e610f0e565b604051808260ff16815260200191505060405180910390f35b6104f9600480360360208110156104cd57600080fd5b81019080803573ffffffffffffffffffffffffffffffffffffffff169060200190929190505050610f17565b005b6105476004803603604081101561051157600080fd5b81019080803573ffffffffffffffffffffffffffffffffffffffff16906020019092919080359060200190929190505050611169565b60405180821515815260200191505060405180910390f35b6105a16004803603602081101561057557600080fd5b81019080803573ffffffffffffffffffffffffffffffffffffffff16906020019092919050505061121c565b60405180821515815260200191505060405180910390f35b6105e5600480360360208110156105cf57600080fd5b810190808035906020019092919050505061123c565b604051808973ffffffffffffffffffffffffffffffffffffffff1681526020018881526020018781526020018681526020018581526020018481526020018381526020018281526020019850505050505050505060405180910390f35b61064a6113db565b005b610654611434565b6040518082815260200191505060405180910390f35b6106ac6004803603602081101561068057600080fd5b81019080803573ffffffffffffffffffffffffffffffffffffffff16906020019092919050505061143a565b6040518082815260200191505060405180910390f35b6106ca611482565b005b6106d461160d565b6040518082815260200191505060405180910390f35b6106f2611613565b604051808273ffffffffffffffffffffffffffffffffffffffff16815260200191505060405180910390f35b6107606004803603602081101561073457600080fd5b81019080803573ffffffffffffffffffffffffffffffffffffffff16906020019092919050505061163d565b6040518082815260200191505060405180910390f35b61077e61164f565b6040518080602001828103825283818151815260200191508051906020019080838360005b838110156107be5780820151818401526020810190506107a3565b50505050905090810190601f1680156107eb5780820380516001836020036101000a031916815260200191505b509250505060405180910390f35b6108456004803603604081101561080f57600080fd5b81019080803573ffffffffffffffffffffffffffffffffffffffff169060200190929190803590602001909291905050506116f1565b60405180821515815260200191505060405180910390f35b61089f6004803603602081101561087357600080fd5b81019080803573ffffffffffffffffffffffffffffffffffffffff1690602001909291905050506117be565b6040518082815260200191505060405180910390f35b610901600480360360408110156108cb57600080fd5b81019080803573ffffffffffffffffffffffffffffffffffffffff16906020019092919080359060200190929190505050611821565b60405180821515815260200191505060405180910390f35b61095b6004803603602081101561092f57600080fd5b81019080803573ffffffffffffffffffffffffffffffffffffffff16906020019092919050505061183f565b6040518082815260200191505060405180910390f35b61099d6004803603602081101561098757600080fd5b8101908080359060200190929190505050611888565b005b6109ed600480360360408110156109b557600080fd5b81019080803573ffffffffffffffffffffffffffffffffffffffff169060200190929190803515159060200190929190505050611a2a565b60405180821515815260200191505060405180910390f35b610a0d611bb7565b6040518082815260200191505060405180910390f35b610a8560048036036040811015610a3957600080fd5b81019080803573ffffffffffffffffffffffffffffffffffffffff169060200190929190803573ffffffffffffffffffffffffffffffffffffffff169060200190929190505050611bdb565b6040518082815260200191505060405180910390f35b610ae760048036036040811015610ab157600080fd5b81019080803573ffffffffffffffffffffffffffffffffffffffff16906020019092919080359060200190929190505050611c62565b005b610af1611eee565b6040518082815260200191505060405180910390f35b610b3360048036036020811015610b1d57600080fd5b8101908080359060200190929190505050611ef8565b005b610b7760048036036020811015610b4b57600080fd5b81019080803573ffffffffffffffffffffffffffffffffffffffff1690602001909291905050506120c1565b005b610b816122d1565b604051808273ffffffffffffffffffffffffffffffffffffffff16815260200191505060405180910390f35b610bef60048036036020811015610bc357600080fd5b81019080803573ffffffffffffffffffffffffffffffffffffffff1690602001909291905050506122f5565b604051808973ffffffffffffffffffffffffffffffffffffffff1681526020018881526020018781526020018681526020018581526020018481526020018381526020018281526020019850505050505050505060405180910390f35b610c7860048036036020811015610c6257600080fd5b8101908080359060200190929190505050612502565b60405180848152602001838152602001828152602001935050505060405180910390f35b606060038054600181600116156101000203166002900480601f016020809104026020016040519081016040528092919081815260200182805460018160011615610100020316600290048015610d345780601f10610d0957610100808354040283529160200191610d34565b820191906000526020600020905b815481529060010190602001808311610d1757829003601f168201915b5050505050905090565b6000610d52610d4b61267b565b8484612683565b6001905092915050565b6000600a60000180549050905090565b6000600254905090565b60106020528060005260406000206000915090505481565b6000610d9b84848461287a565b610e5c84610da761267b565b610e578560405180606001604052806028815260200161351e60289139600160008b73ffffffffffffffffffffffffffffffffffffffff1673ffffffffffffffffffffffffffffffffffffffff1681526020019081526020016000206000610e0d61267b565b73ffffffffffffffffffffffffffffffffffffffff1673ffffffffffffffffffffffffffffffffffffffff168152602001908152602001600020546128d69092919063ffffffff16565b612683565b600190509392505050565b6000700100000000000000000000000000000000610ef9610ef4600760008673ffffffffffffffffffffffffffffffffffffffff1673ffffffffffffffffffffffffffffffffffffffff16815260200190815260200160002054610ee6610ee1610ed08861143a565b60065461299690919063ffffffff16565b612a1c565b612a3990919063ffffffff16565b612a7b565b81610f0057fe5b049050919050565b600e5481565b60006012905090565b610f1f61267b565b73ffffffffffffffffffffffffffffffffffffffff16600560009054906101000a900473ffffffffffffffffffffffffffffffffffffffff1673ffffffffffffffffffffffffffffffffffffffff1614610fe1576040517f08c379a00000000000000000000000000000000000000000000000000000000081526004018080602001828103825260208152602001807f4f776e61626c653a2063616c6c6572206973206e6f7420746865206f776e657281525060200191505060405180910390fd5b600f60008273ffffffffffffffffffffffffffffffffffffffff1673ffffffffffffffffffffffffffffffffffffffff16815260200190815260200160002060009054906101000a900460ff161561103857600080fd5b6001600f60008373ffffffffffffffffffffffffffffffffffffffff1673ffffffffffffffffffffffffffffffffffffffff16815260200190815260200160002060006101000a81548160ff02191690831515021790555061109b816000612a92565b600a73__$5803514c5aa2eab4eb364d8399eb7d30ff$__634c60db9c9091836040518363ffffffff1660e01b8152600401808381526020018273ffffffffffffffffffffffffffffffffffffffff1681526020019250505060006040518083038186803b15801561110b57600080fd5b505af415801561111f573d6000803e3d6000fd5b505050508073ffffffffffffffffffffffffffffffffffffffff167fa878b31040b2e6d0a9a3d3361209db3908ba62014b0dca52adbaee451d128b2560405160405180910390a250565b600061121261117661267b565b8461120d856001600061118761267b565b73ffffffffffffffffffffffffffffffffffffffff1673ffffffffffffffffffffffffffffffffffffffff16815260200190815260200160002060008973ffffffffffffffffffffffffffffffffffffffff1673ffffffffffffffffffffffffffffffffffffffff16815260200190815260200160002054612aff90919063ffffffff16565b612683565b6001905092915050565b600f6020528060005260406000206000915054906101000a900460ff1681565b600080600080600080600080600a73__$5803514c5aa2eab4eb364d8399eb7d30ff$__63deb3d89690916040518263ffffffff1660e01b81526004018082815260200191505060206040518083038186803b15801561129a57600080fd5b505af41580156112ae573d6000803e3d6000fd5b505050506040513d60208110156112c457600080fd5b8101908080519060200190929190505050891061131c5760007fffffffffffffffffffffffffffffffffffffffffffffffffffffffffffffffff806000806000806000975097509750975097509750975097506113d0565b6000600a73__$5803514c5aa2eab4eb364d8399eb7d30ff$__63d1aa9e7e90918c6040518363ffffffff1660e01b8152600401808381526020018281526020019250505060206040518083038186803b15801561137857600080fd5b505af415801561138c573d6000803e3d6000fd5b505050506040513d60208110156113a257600080fd5b810190808051906020019092919050505090506113be816122f5565b98509850985098509850985098509850505b919395975091939597565b6000611432576040517f08c379a000000000000000000000000000000000000000000000000000000000815260040180806020018281038252606b81526020018061358b606b913960800191505060405180910390fd5b565b60115481565b60008060008373ffffffffffffffffffffffffffffffffffffffff1673ffffffffffffffffffffffffffffffffffffffff168152602001908152602001600020549050919050565b61148a61267b565b73ffffffffffffffffffffffffffffffffffffffff16600560009054906101000a900473ffffffffffffffffffffffffffffffffffffffff1673ffffffffffffffffffffffffffffffffffffffff161461154c576040517f08c379a00000000000000000000000000000000000000000000000000000000081526004018080602001828103825260208152602001807f4f776e61626c653a2063616c6c6572206973206e6f7420746865206f776e657281525060200191505060405180910390fd5b600073ffffffffffffffffffffffffffffffffffffffff16600560009054906101000a900473ffffffffffffffffffffffffffffffffffffffff1673ffffffffffffffffffffffffffffffffffffffff167f8be0079c531659141344cd1fd0a4f28419497f9722a3daafe3b4186f6b6457e060405160405180910390a36000600560006101000a81548173ffffffffffffffffffffffffffffffffffffffff021916908373ffffffffffffffffffffffffffffffffffffffff160217905550565b60095481565b6000600560009054906101000a900473ffffffffffffffffffffffffffffffffffffffff16905090565b6000611648826117be565b9050919050565b606060048054600181600116156101000203166002900480601f0160208091040260200160405190810160405280929190818152602001828054600181600116156101000203166002900480156116e75780601f106116bc576101008083540402835291602001916116e7565b820191906000526020600020905b8154815290600101906020018083116116ca57829003601f168201915b5050505050905090565b60006117b46116fe61267b565b846117af856040518060600160405280602581526020016135f6602591396001600061172861267b565b73ffffffffffffffffffffffffffffffffffffffff1673ffffffffffffffffffffffffffffffffffffffff16815260200190815260200160002060008a73ffffffffffffffffffffffffffffffffffffffff1673ffffffffffffffffffffffffffffffffffffffff168152602001908152602001600020546128d69092919063ffffffff16565b612683565b6001905092915050565b600061181a600860008473ffffffffffffffffffffffffffffffffffffffff1673ffffffffffffffffffffffffffffffffffffffff1681526020019081526020016000205461180c84610e67565b612b8790919063ffffffff16565b9050919050565b600061183561182e61267b565b848461287a565b6001905092915050565b6000600860008373ffffffffffffffffffffffffffffffffffffffff1673ffffffffffffffffffffffffffffffffffffffff168152602001908152602001600020549050919050565b61189061267b565b73ffffffffffffffffffffffffffffffffffffffff16600560009054906101000a900473ffffffffffffffffffffffffffffffffffffffff1673ffffffffffffffffffffffffffffffffffffffff1614611952576040517f08c379a00000000000000000000000000000000000000000000000000000000081526004018080602001828103825260208152602001807f4f776e61626c653a2063616c6c6572206973206e6f7420746865206f776e657281525060200191505060405180910390fd5b600061195c610d6c565b1161196657600080fd5b6000811115611a27576119b761197a610d6c565b61199e7001000000000000000000000000000000008461299690919063ffffffff16565b816119a557fe5b04600654612aff90919063ffffffff16565b6006819055503373ffffffffffffffffffffffffffffffffffffffff167fa493a9229478c3fcd73f66d2cdeb7f94fd0f341da924d1054236d78454116511826040518082815260200191505060405180910390a2611a2081600954612aff90919063ffffffff16565b6009819055505b50565b6000611a3461267b565b73ffffffffffffffffffffffffffffffffffffffff16600560009054906101000a900473ffffffffffffffffffffffffffffffffffffffff1673ffffffffffffffffffffffffffffffffffffffff1614611af6576040517f08c379a00000000000000000000000000000000000000000000000000000000081526004018080602001828103825260208152602001807f4f776e61626c653a2063616c6c6572206973206e6f7420746865206f776e657281525060200191505060405180910390fd5b6000611b0184612bd1565b90506000811115611bab5742601060008673ffffffffffffffffffffffffffffffffffffffff1673ffffffffffffffffffffffffffffffffffffffff168152602001908152602001600020819055508215158473ffffffffffffffffffffffffffffffffffffffff167fa2c38e2d2fb7e3e1912d937fd1ca11ed6d51864dee4cfa7a7bf02becd7acf092836040518082815260200191505060405180910390a36001915050611bb1565b60009150505b92915050565b7f000000000000000000000000000000000000000000000000000000000000000081565b6000600160008473ffffffffffffffffffffffffffffffffffffffff1673ffffffffffffffffffffffffffffffffffffffff16815260200190815260200160002060008373ffffffffffffffffffffffffffffffffffffffff1673ffffffffffffffffffffffffffffffffffffffff16815260200190815260200160002054905092915050565b611c6a61267b565b73ffffffffffffffffffffffffffffffffffffffff16600560009054906101000a900473ffffffffffffffffffffffffffffffffffffffff1673ffffffffffffffffffffffffffffffffffffffff1614611d2c576040517f08c379a00000000000000000000000000000000000000000000000000000000081526004018080602001828103825260208152602001807f4f776e61626c653a2063616c6c6572206973206e6f7420746865206f776e657281525060200191505060405180910390fd5b600f60008373ffffffffffffffffffffffffffffffffffffffff1673ffffffffffffffffffffffffffffffffffffffff16815260200190815260200160002060009054906101000a900460ff1615611d8357611eea565b7f00000000000000000000000000000000000000000000000000000000000000008110611e4957611db48282612a92565b600a73__$5803514c5aa2eab4eb364d8399eb7d30ff$__63bc2b405c909184846040518463ffffffff1660e01b8152600401808481526020018373ffffffffffffffffffffffffffffffffffffffff168152602001828152602001935050505060006040518083038186803b158015611e2c57600080fd5b505af4158015611e40573d6000803e3d6000fd5b50505050611edd565b611e54826000612a92565b600a73__$5803514c5aa2eab4eb364d8399eb7d30ff$__634c60db9c9091846040518363ffffffff1660e01b8152600401808381526020018273ffffffffffffffffffffffffffffffffffffffff1681526020019250505060006040518083038186803b158015611ec457600080fd5b505af4158015611ed8573d6000803e3d6000fd5b505050505b611ee8826001611a2a565b505b5050565b6000600e54905090565b611f0061267b565b73ffffffffffffffffffffffffffffffffffffffff16600560009054906101000a900473ffffffffffffffffffffffffffffffffffffffff1673ffffffffffffffffffffffffffffffffffffffff1614611fc2576040517f08c379a00000000000000000000000000000000000000000000000000000000081526004018080602001828103825260208152602001807f4f776e61626c653a2063616c6c6572206973206e6f7420746865206f776e657281525060200191505060405180910390fd5b610e108110158015611fd75750620151808111155b61202c576040517f08c379a000000000000000000000000000000000000000000000000000000000815260040180806020018281038252604d815260200180613482604d913960600191505060405180910390fd5b601154811415612087576040517f08c379a000000000000000000000000000000000000000000000000000000000815260040180806020018281038252603f8152602001806133fb603f913960400191505060405180910390fd5b601154817f474ea64804364a1e29a4487ddb63c3342a2dd826ccd8acf48825e680a0e6f20f60405160405180910390a38060118190555050565b6120c961267b565b73ffffffffffffffffffffffffffffffffffffffff16600560009054906101000a900473ffffffffffffffffffffffffffffffffffffffff1673ffffffffffffffffffffffffffffffffffffffff161461218b576040517f08c379a00000000000000000000000000000000000000000000000000000000081526004018080602001828103825260208152602001807f4f776e61626c653a2063616c6c6572206973206e6f7420746865206f776e657281525060200191505060405180910390fd5b600073ffffffffffffffffffffffffffffffffffffffff168173ffffffffffffffffffffffffffffffffffffffff161415612211576040517f08c379a000000000000000000000000000000000000000000000000000000000815260040180806020018281038252602681526020018061343a6026913960400191505060405180910390fd5b8073ffffffffffffffffffffffffffffffffffffffff16600560009054906101000a900473ffffffffffffffffffffffffffffffffffffffff1673ffffffffffffffffffffffffffffffffffffffff167f8be0079c531659141344cd1fd0a4f28419497f9722a3daafe3b4186f6b6457e060405160405180910390a380600560006101000a81548173ffffffffffffffffffffffffffffffffffffffff021916908373ffffffffffffffffffffffffffffffffffffffff16021790555050565b7f000000000000000000000000000000000000000000000000000000000000000081565b600080600080600080600080889750600a73__$5803514c5aa2eab4eb364d8399eb7d30ff$__6317e142d190918a6040518363ffffffff1660e01b8152600401808381526020018273ffffffffffffffffffffffffffffffffffffffff1681526020019250505060206040518083038186803b15801561237457600080fd5b505af4158015612388573d6000803e3d6000fd5b505050506040513d602081101561239e57600080fd5b810190808051906020019092919050505096507fffffffffffffffffffffffffffffffffffffffffffffffffffffffffffffffff95506000871261245457600e54871115612402576123fb600e5488612e5590919063ffffffff16565b9550612453565b6000600e54600a600001805490501161241c57600061243a565b612439600e54600a60000180549050612b8790919063ffffffff16565b5b905061244f8189612a3990919063ffffffff16565b9650505b5b61245d886117be565b945061246888610e67565b9350601060008973ffffffffffffffffffffffffffffffffffffffff1673ffffffffffffffffffffffffffffffffffffffff168152602001908152602001600020549250600083116124bb5760006124d1565b6124d060115484612aff90919063ffffffff16565b5b91504282116124e15760006124f5565b6124f44283612b8790919063ffffffff16565b5b9050919395975091939597565b600080600080600a600001805490509050600081141561252e57600080600e5493509350935050612674565b6000600e5490506000805a90506000805b898410801561254d57508582105b1561265b578480600101955050600a60000180549050851061256e57600094505b6000600a600001868154811061258057fe5b9060005260206000200160009054906101000a900473ffffffffffffffffffffffffffffffffffffffff1690506125f5601060008373ffffffffffffffffffffffffffffffffffffffff1673ffffffffffffffffffffffffffffffffffffffff16815260200190815260200160002054612e97565b1561261457612605816001611a2a565b156126135781806001019250505b5b828060010193505060005a9050808511156126515761264e61263f8287612b8790919063ffffffff16565b87612aff90919063ffffffff16565b95505b809450505061253f565b84600e819055508181600e549850985098505050505050505b9193909250565b600033905090565b600073ffffffffffffffffffffffffffffffffffffffff168373ffffffffffffffffffffffffffffffffffffffff161415612709576040517f08c379a00000000000000000000000000000000000000000000000000000000081526004018080602001828103825260248152602001806135676024913960400191505060405180910390fd5b600073ffffffffffffffffffffffffffffffffffffffff168273ffffffffffffffffffffffffffffffffffffffff16141561278f576040517f08c379a00000000000000000000000000000000000000000000000000000000081526004018080602001828103825260228152602001806134606022913960400191505060405180910390fd5b80600160008573ffffffffffffffffffffffffffffffffffffffff1673ffffffffffffffffffffffffffffffffffffffff16815260200190815260200160002060008473ffffffffffffffffffffffffffffffffffffffff1673ffffffffffffffffffffffffffffffffffffffff168152602001908152602001600020819055508173ffffffffffffffffffffffffffffffffffffffff168373ffffffffffffffffffffffffffffffffffffffff167f8c5be1e5ebec7d5bd14f71427d1e84f3dd0314c0f7b2291e5b200ac8c7c3b925836040518082815260200191505060405180910390a3505050565b60006128d1576040517f08c379a000000000000000000000000000000000000000000000000000000000815260040180806020018281038252602e8152602001806134cf602e913960400191505060405180910390fd5b505050565b6000838311158290612983576040517f08c379a00000000000000000000000000000000000000000000000000000000081526004018080602001828103825283818151815260200191508051906020019080838360005b8381101561294857808201518184015260208101905061292d565b50505050905090810190601f1680156129755780820380516001836020036101000a031916815260200191505b509250505060405180910390fd5b5060008385039050809150509392505050565b6000808314156129a95760009050612a16565b60008284029050828482816129ba57fe5b0414612a11576040517f08c379a00000000000000000000000000000000000000000000000000000000081526004018080602001828103825260218152602001806134fd6021913960400191505060405180910390fd5b809150505b92915050565b6000808290506000811215612a3057600080fd5b80915050919050565b600080828401905060008312158015612a525750838112155b80612a685750600083128015612a6757508381125b5b612a7157600080fd5b8091505092915050565b600080821215612a8a57600080fd5b819050919050565b6000612a9d8361143a565b905080821115612ace576000612abc8284612b8790919063ffffffff16565b9050612ac88482612eca565b50612afa565b80821015612af9576000612aeb8383612b8790919063ffffffff16565b9050612af78482612f89565b505b5b505050565b600080828401905083811015612b7d576040517f08c379a000000000000000000000000000000000000000000000000000000000815260040180806020018281038252601b8152602001807f536166654d6174683a206164646974696f6e206f766572666c6f77000000000081525060200191505060405180910390fd5b8091505092915050565b6000612bc983836040518060400160405280601e81526020017f536166654d6174683a207375627472616374696f6e206f766572666c6f7700008152506128d6565b905092915050565b600080612bdd836117be565b90506000811115612e4a57612c3a81600860008673ffffffffffffffffffffffffffffffffffffffff1673ffffffffffffffffffffffffffffffffffffffff16815260200190815260200160002054612aff90919063ffffffff16565b600860008573ffffffffffffffffffffffffffffffffffffffff1673ffffffffffffffffffffffffffffffffffffffff168152602001908152602001600020819055508273ffffffffffffffffffffffffffffffffffffffff167fee503bee2bb6a87e57bc57db795f98137327401a0e7b7ce42e37926cc1a9ca4d826040518082815260200191505060405180910390a260007f000000000000000000000000000000000000000000000000000000000000000073ffffffffffffffffffffffffffffffffffffffff1663a9059cbb85846040518363ffffffff1660e01b8152600401808373ffffffffffffffffffffffffffffffffffffffff16815260200182815260200192505050602060405180830381600087803b158015612d5e57600080fd5b505af1158015612d72573d6000803e3d6000fd5b505050506040513d6020811015612d8857600080fd5b8101908080519060200190929190505050905080612e4057612df282600860008773ffffffffffffffffffffffffffffffffffffffff1673ffffffffffffffffffffffffffffffffffffffff16815260200190815260200160002054612b8790919063ffffffff16565b600860008673ffffffffffffffffffffffffffffffffffffffff1673ffffffffffffffffffffffffffffffffffffffff16815260200190815260200160002081905550600092505050612e50565b8192505050612e50565b60009150505b919050565b600080828403905060008312158015612e6e5750838113155b80612e845750600083128015612e8357508381135b5b612e8d57600080fd5b8091505092915050565b600042821115612eaa5760009050612ec5565b601154612ec08342612b8790919063ffffffff16565b101590505b919050565b612ed48282613048565b612f42612ef4612eef8360065461299690919063ffffffff16565b612a1c565b600760008573ffffffffffffffffffffffffffffffffffffffff1673ffffffffffffffffffffffffffffffffffffffff16815260200190815260200160002054612e5590919063ffffffff16565b600760008473ffffffffffffffffffffffffffffffffffffffff1673ffffffffffffffffffffffffffffffffffffffff168152602001908152602001600020819055505050565b612f93828261320f565b613001612fb3612fae8360065461299690919063ffffffff16565b612a1c565b600760008573ffffffffffffffffffffffffffffffffffffffff1673ffffffffffffffffffffffffffffffffffffffff16815260200190815260200160002054612a3990919063ffffffff16565b600760008473ffffffffffffffffffffffffffffffffffffffff1673ffffffffffffffffffffffffffffffffffffffff168152602001908152602001600020819055505050565b600073ffffffffffffffffffffffffffffffffffffffff168273ffffffffffffffffffffffffffffffffffffffff1614156130eb576040517f08c379a000000000000000000000000000000000000000000000000000000000815260040180806020018281038252601f8152602001807f45524332303a206d696e7420746f20746865207a65726f20616464726573730081525060200191505060405180910390fd5b6130f7600083836133d3565b61310c81600254612aff90919063ffffffff16565b600281905550613163816000808573ffffffffffffffffffffffffffffffffffffffff1673ffffffffffffffffffffffffffffffffffffffff16815260200190815260200160002054612aff90919063ffffffff16565b6000808473ffffffffffffffffffffffffffffffffffffffff1673ffffffffffffffffffffffffffffffffffffffff168152602001908152602001600020819055508173ffffffffffffffffffffffffffffffffffffffff16600073ffffffffffffffffffffffffffffffffffffffff167fddf252ad1be2c89b69c2b068fc378daa952ba7f163c4a11628f55a4df523b3ef836040518082815260200191505060405180910390a35050565b600073ffffffffffffffffffffffffffffffffffffffff168273ffffffffffffffffffffffffffffffffffffffff161415613295576040517f08c379a00000000000000000000000000000000000000000000000000000000081526004018080602001828103825260218152602001806135466021913960400191505060405180910390fd5b6132a1826000836133d3565b61330c816040518060600160405280602281526020016133d9602291396000808673ffffffffffffffffffffffffffffffffffffffff1673ffffffffffffffffffffffffffffffffffffffff168152602001908152602001600020546128d69092919063ffffffff16565b6000808473ffffffffffffffffffffffffffffffffffffffff1673ffffffffffffffffffffffffffffffffffffffff1681526020019081526020016000208190555061336381600254612b8790919063ffffffff16565b600281905550600073ffffffffffffffffffffffffffffffffffffffff168273ffffffffffffffffffffffffffffffffffffffff167fddf252ad1be2c89b69c2b068fc378daa952ba7f163c4a11628f55a4df523b3ef836040518082815260200191505060405180910390a35050565b50505056fe45524332303a206275726e20616d6f756e7420657863656564732062616c616e6365536166654144415f4469766964656e645f547261636b65723a2043616e6e6f742075706461746520636c61696d5761697420746f2073616d652076616c75654f776e61626c653a206e6577206f776e657220697320746865207a65726f206164647265737345524332303a20617070726f766520746f20746865207a65726f2061646472657373536166654144415f4469766964656e645f547261636b65723a20636c61696d57616974206d757374206265207570646174656420746f206265747765656e203120616e6420323420686f757273536166654144415f4469766964656e645f547261636b65723a204e6f207472616e736665727320616c6c6f776564536166654d6174683a206d756c7469706c69636174696f6e206f766572666c6f7745524332303a207472616e7366657220616d6f756e74206578636565647320616c6c6f77616e636545524332303a206275726e2066726f6d20746865207a65726f206164647265737345524332303a20617070726f76652066726f6d20746865207a65726f2061646472657373536166654144415f4469766964656e645f547261636b65723a2077697468647261774469766964656e642064697361626c65642e20557365207468652027636c61696d272066756e6374696f6e206f6e20746865206d61696e205361666541444120636f6e74726163742e45524332303a2064656372656173656420616c6c6f77616e63652062656c6f77207a65726fa2646970667358221220d894f5554d88bd81c152aaa420f6a88b6a8e0958e7657f55b627da7ac166e82c64736f6c634300060c0033",
  "linkReferences": {
    "contracts/SafeADA.sol": {
      "IterableMapping": [
        {
          "length": 20,
          "start": 4943
        },
        {
          "length": 20,
          "start": 5372
        },
        {
          "length": 20,
          "start": 5586
        },
        {
          "length": 20,
          "start": 8296
        },
        {
          "length": 20,
          "start": 8456
        },
        {
          "length": 20,
          "start": 9656
        }
      ]
    }
  },
  "deployedLinkReferences": {
    "contracts/SafeADA.sol": {
      "IterableMapping": [
        {
          "length": 20,
          "start": 4255
        },
        {
          "length": 20,
          "start": 4684
        },
        {
          "length": 20,
          "start": 4898
        },
        {
          "length": 20,
          "start": 7608
        },
        {
          "length": 20,
          "start": 7768
        },
        {
          "length": 20,
          "start": 8968
        }
      ]
    }
  }
}