{
  "_format": "hh-sol-artifact-1",
  "contractName": "Play2Burn",
  "sourceName": "contracts/Play2Burn.sol",
  "abi": [
    {
      "inputs": [],
      "stateMutability": "nonpayable",
      "type": "constructor"
    },
    {
      "anonymous": false,
      "inputs": [
        {
          "indexed": true,
          "internalType": "address",
          "name": "owner",
          "type": "address"
        },
        {
          "indexed": true,
          "internalType": "address",
          "name": "spender",
          "type": "address"
        },
        {
          "indexed": false,
          "internalType": "uint256",
          "name": "value",
          "type": "uint256"
        }
      ],
      "name": "Approval",
      "type": "event"
    },
    {
      "anonymous": false,
      "inputs": [
        {
          "indexed": false,
          "internalType": "uint256",
          "name": "minTokensBeforeSwap",
          "type": "uint256"
        }
      ],
      "name": "MinTokensBeforeSwapUpdated",
      "type": "event"
    },
    {
      "anonymous": false,
      "inputs": [
        {
          "indexed": true,
          "internalType": "address",
          "name": "previousOwner",
          "type": "address"
        },
        {
          "indexed": true,
          "internalType": "address",
          "name": "newOwner",
          "type": "address"
        }
      ],
      "name": "OwnershipTransferred",
      "type": "event"
    },
    {
      "anonymous": false,
      "inputs": [
        {
          "indexed": false,
          "internalType": "uint256",
          "name": "tokensSwapped",
          "type": "uint256"
        },
        {
          "indexed": false,
          "internalType": "uint256",
          "name": "ethReceived",
          "type": "uint256"
        },
        {
          "indexed": false,
          "internalType": "uint256",
          "name": "tokensIntoLiqudity",
          "type": "uint256"
        }
      ],
      "name": "SwapAndLiquify",
      "type": "event"
    },
    {
      "anonymous": false,
      "inputs": [
        {
          "indexed": false,
          "internalType": "bool",
          "name": "enabled",
          "type": "bool"
        }
      ],
      "name": "SwapAndLiquifyEnabledUpdated",
      "type": "event"
    },
    {
      "anonymous": false,
      "inputs": [
        {
          "indexed": true,
          "internalType": "address",
          "name": "from",
          "type": "address"
        },
        {
          "indexed": true,
          "internalType": "address",
          "name": "to",
          "type": "address"
        },
        {
          "indexed": false,
          "internalType": "uint256",
          "name": "value",
          "type": "uint256"
        }
      ],
      "name": "Transfer",
      "type": "event"
    },
    {
      "inputs": [],
      "name": "_marketingWallet",
      "outputs": [
        {
          "internalType": "address",
          "name": "",
          "type": "address"
        }
      ],
      "stateMutability": "view",
      "type": "function"
    },
    {
      "inputs": [],
      "name": "_maxTxAmount",
      "outputs": [
        {
          "internalType": "uint256",
          "name": "",
          "type": "uint256"
        }
      ],
      "stateMutability": "view",
      "type": "function"
    },
    {
      "inputs": [],
      "name": "_rewardWallet",
      "outputs": [
        {
          "internalType": "address",
          "name": "",
          "type": "address"
        }
      ],
      "stateMutability": "view",
      "type": "function"
    },
    {
      "inputs": [
        {
          "internalType": "address",
          "name": "owner",
          "type": "address"
        },
        {
          "internalType": "address",
          "name": "spender",
          "type": "address"
        }
      ],
      "name": "allowance",
      "outputs": [
        {
          "internalType": "uint256",
          "name": "",
          "type": "uint256"
        }
      ],
      "stateMutability": "view",
      "type": "function"
    },
    {
      "inputs": [
        {
          "internalType": "address",
          "name": "spender",
          "type": "address"
        },
        {
          "internalType": "uint256",
          "name": "amount",
          "type": "uint256"
        }
      ],
      "name": "approve",
      "outputs": [
        {
          "internalType": "bool",
          "name": "",
          "type": "bool"
        }
      ],
      "stateMutability": "nonpayable",
      "type": "function"
    },
    {
      "inputs": [
        {
          "internalType": "address",
          "name": "account",
          "type": "address"
        }
      ],
      "name": "balanceOf",
      "outputs": [
        {
          "internalType": "uint256",
          "name": "",
          "type": "uint256"
        }
      ],
      "stateMutability": "view",
      "type": "function"
    },
    {
      "inputs": [],
      "name": "buyFee",
      "outputs": [
        {
          "internalType": "uint16",
          "name": "liquidityFee",
          "type": "uint16"
        },
        {
          "internalType": "uint16",
          "name": "marketingFee",
          "type": "uint16"
        },
        {
          "internalType": "uint16",
          "name": "rewardFee",
          "type": "uint16"
        },
        {
          "internalType": "uint16",
          "name": "taxFee",
          "type": "uint16"
        }
      ],
      "stateMutability": "view",
      "type": "function"
    },
    {
      "inputs": [
        {
          "internalType": "address",
          "name": "_token",
          "type": "address"
        }
      ],
      "name": "claimStuckTokens",
      "outputs": [],
      "stateMutability": "nonpayable",
      "type": "function"
    },
    {
      "inputs": [],
      "name": "decimals",
      "outputs": [
        {
          "internalType": "uint8",
          "name": "",
          "type": "uint8"
        }
      ],
      "stateMutability": "view",
      "type": "function"
    },
    {
      "inputs": [
        {
          "internalType": "address",
          "name": "spender",
          "type": "address"
        },
        {
          "internalType": "uint256",
          "name": "subtractedValue",
          "type": "uint256"
        }
      ],
      "name": "decreaseAllowance",
      "outputs": [
        {
          "internalType": "bool",
          "name": "",
          "type": "bool"
        }
      ],
      "stateMutability": "nonpayable",
      "type": "function"
    },
    {
      "inputs": [
        {
          "internalType": "uint256",
          "name": "tAmount",
          "type": "uint256"
        }
      ],
      "name": "deliver",
      "outputs": [],
      "stateMutability": "nonpayable",
      "type": "function"
    },
    {
      "inputs": [
        {
          "internalType": "address",
          "name": "account",
          "type": "address"
        }
      ],
      "name": "excludeFromFee",
      "outputs": [],
      "stateMutability": "nonpayable",
      "type": "function"
    },
    {
      "inputs": [
        {
          "internalType": "address",
          "name": "account",
          "type": "address"
        }
      ],
      "name": "excludeFromReward",
      "outputs": [],
      "stateMutability": "nonpayable",
      "type": "function"
    },
    {
      "inputs": [
        {
          "internalType": "address",
          "name": "account",
          "type": "address"
        }
      ],
      "name": "includeInFee",
      "outputs": [],
      "stateMutability": "nonpayable",
      "type": "function"
    },
    {
      "inputs": [
        {
          "internalType": "address",
          "name": "account",
          "type": "address"
        }
      ],
      "name": "includeInReward",
      "outputs": [],
      "stateMutability": "nonpayable",
      "type": "function"
    },
    {
      "inputs": [
        {
          "internalType": "address",
          "name": "spender",
          "type": "address"
        },
        {
          "internalType": "uint256",
          "name": "addedValue",
          "type": "uint256"
        }
      ],
      "name": "increaseAllowance",
      "outputs": [
        {
          "internalType": "bool",
          "name": "",
          "type": "bool"
        }
      ],
      "stateMutability": "nonpayable",
      "type": "function"
    },
    {
      "inputs": [
        {
          "internalType": "address",
          "name": "account",
          "type": "address"
        }
      ],
      "name": "isExcludedFromFee",
      "outputs": [
        {
          "internalType": "bool",
          "name": "",
          "type": "bool"
        }
      ],
      "stateMutability": "view",
      "type": "function"
    },
    {
      "inputs": [
        {
          "internalType": "address",
          "name": "account",
          "type": "address"
        }
      ],
      "name": "isExcludedFromReward",
      "outputs": [
        {
          "internalType": "bool",
          "name": "",
          "type": "bool"
        }
      ],
      "stateMutability": "view",
      "type": "function"
    },
    {
      "inputs": [],
      "name": "name",
      "outputs": [
        {
          "internalType": "string",
          "name": "",
          "type": "string"
        }
      ],
      "stateMutability": "view",
      "type": "function"
    },
    {
      "inputs": [],
      "name": "owner",
      "outputs": [
        {
          "internalType": "address",
          "name": "",
          "type": "address"
        }
      ],
      "stateMutability": "view",
      "type": "function"
    },
    {
      "inputs": [
        {
          "internalType": "uint256",
          "name": "tAmount",
          "type": "uint256"
        },
        {
          "internalType": "bool",
          "name": "deductTransferFee",
          "type": "bool"
        }
      ],
      "name": "reflectionFromToken",
      "outputs": [
        {
          "internalType": "uint256",
          "name": "",
          "type": "uint256"
        }
      ],
      "stateMutability": "view",
      "type": "function"
    },
    {
      "inputs": [],
      "name": "renounceOwnership",
      "outputs": [],
      "stateMutability": "nonpayable",
      "type": "function"
    },
    {
      "inputs": [],
      "name": "sellFee",
      "outputs": [
        {
          "internalType": "uint16",
          "name": "liquidityFee",
          "type": "uint16"
        },
        {
          "internalType": "uint16",
          "name": "marketingFee",
          "type": "uint16"
        },
        {
          "internalType": "uint16",
          "name": "rewardFee",
          "type": "uint16"
        },
        {
          "internalType": "uint16",
          "name": "taxFee",
          "type": "uint16"
        }
      ],
      "stateMutability": "view",
      "type": "function"
    },
    {
      "inputs": [
        {
          "internalType": "uint16",
          "name": "liq",
          "type": "uint16"
        },
        {
          "internalType": "uint16",
          "name": "market",
          "type": "uint16"
        },
        {
          "internalType": "uint16",
          "name": "reward",
          "type": "uint16"
        },
        {
          "internalType": "uint16",
          "name": "tax",
          "type": "uint16"
        }
      ],
      "name": "setBuyFee",
      "outputs": [],
      "stateMutability": "nonpayable",
      "type": "function"
    },
    {
      "inputs": [
        {
          "internalType": "uint256",
          "name": "maxTx",
          "type": "uint256"
        }
      ],
      "name": "setMaxTx",
      "outputs": [],
      "stateMutability": "nonpayable",
      "type": "function"
    },
    {
      "inputs": [
        {
          "internalType": "uint256",
          "name": "numTokens",
          "type": "uint256"
        }
      ],
      "name": "setNumTokensSellToAddToLiquidity",
      "outputs": [],
      "stateMutability": "nonpayable",
      "type": "function"
    },
    {
      "inputs": [
        {
          "internalType": "uint16",
          "name": "liq",
          "type": "uint16"
        },
        {
          "internalType": "uint16",
          "name": "market",
          "type": "uint16"
        },
        {
          "internalType": "uint16",
          "name": "reward",
          "type": "uint16"
        },
        {
          "internalType": "uint16",
          "name": "tax",
          "type": "uint16"
        }
      ],
      "name": "setSellFee",
      "outputs": [],
      "stateMutability": "nonpayable",
      "type": "function"
    },
    {
      "inputs": [
        {
          "internalType": "bool",
          "name": "_enabled",
          "type": "bool"
        }
      ],
      "name": "setSwapAndLiquifyEnabled",
      "outputs": [],
      "stateMutability": "nonpayable",
      "type": "function"
    },
    {
      "inputs": [],
      "name": "swapAndLiquifyEnabled",
      "outputs": [
        {
          "internalType": "bool",
          "name": "",
          "type": "bool"
        }
      ],
      "stateMutability": "view",
      "type": "function"
    },
    {
      "inputs": [],
      "name": "symbol",
      "outputs": [
        {
          "internalType": "string",
          "name": "",
          "type": "string"
        }
      ],
      "stateMutability": "view",
      "type": "function"
    },
    {
      "inputs": [
        {
          "internalType": "uint256",
          "name": "rAmount",
          "type": "uint256"
        }
      ],
      "name": "tokenFromReflection",
      "outputs": [
        {
          "internalType": "uint256",
          "name": "",
          "type": "uint256"
        }
      ],
      "stateMutability": "view",
      "type": "function"
    },
    {
      "inputs": [],
      "name": "totalFees",
      "outputs": [
        {
          "internalType": "uint256",
          "name": "",
          "type": "uint256"
        }
      ],
      "stateMutability": "view",
      "type": "function"
    },
    {
      "inputs": [],
      "name": "totalSupply",
      "outputs": [
        {
          "internalType": "uint256",
          "name": "",
          "type": "uint256"
        }
      ],
      "stateMutability": "view",
      "type": "function"
    },
    {
      "inputs": [
        {
          "internalType": "address",
          "name": "recipient",
          "type": "address"
        },
        {
          "internalType": "uint256",
          "name": "amount",
          "type": "uint256"
        }
      ],
      "name": "transfer",
      "outputs": [
        {
          "internalType": "bool",
          "name": "",
          "type": "bool"
        }
      ],
      "stateMutability": "nonpayable",
      "type": "function"
    },
    {
      "inputs": [
        {
          "internalType": "address",
          "name": "sender",
          "type": "address"
        },
        {
          "internalType": "address",
          "name": "recipient",
          "type": "address"
        },
        {
          "internalType": "uint256",
          "name": "amount",
          "type": "uint256"
        }
      ],
      "name": "transferFrom",
      "outputs": [
        {
          "internalType": "bool",
          "name": "",
          "type": "bool"
        }
      ],
      "stateMutability": "nonpayable",
      "type": "function"
    },
    {
      "inputs": [
        {
          "internalType": "address",
          "name": "newOwner",
          "type": "address"
        }
      ],
      "name": "transferOwnership",
      "outputs": [],
      "stateMutability": "nonpayable",
      "type": "function"
    },
    {
      "inputs": [],
      "name": "uniswapV2Pair",
      "outputs": [
        {
          "internalType": "address",
          "name": "",
          "type": "address"
        }
      ],
      "stateMutability": "view",
      "type": "function"
    },
    {
      "inputs": [],
      "name": "uniswapV2Router",
      "outputs": [
        {
          "internalType": "contract IUniswapV2Router02",
          "name": "",
          "type": "address"
        }
      ],
      "stateMutability": "view",
      "type": "function"
    },
    {
      "inputs": [
        {
          "internalType": "address",
          "name": "newAddress",
          "type": "address"
        }
      ],
      "name": "updateRouter",
      "outputs": [],
      "stateMutability": "nonpayable",
      "type": "function"
    },
    {
      "stateMutability": "payable",
      "type": "receive"
    }
  ],
  "bytecode": "0x608060405268056bc75e2d63100000600755600754600019620000239190620008a0565b60001962000032919062000907565b6008556040518060400160405280600981526020017f506c6179324275726e0000000000000000000000000000000000000000000000815250600a908051906020019062000082929190620007b7565b506040518060400160405280600381526020017f5032420000000000000000000000000000000000000000000000000000000000815250600b9080519060200190620000d0929190620007b7565b506009600c60006101000a81548160ff021916908360ff16021790555073ba0cffa69a87b8bae5c6b35fb6da26b1ebf61a05601160006101000a81548173ffffffffffffffffffffffffffffffffffffffff021916908373ffffffffffffffffffffffffffffffffffffffff16021790555073ea338fe57024f2d463e8991d4a4223e5a3e847ac601260006101000a81548173ffffffffffffffffffffffffffffffffffffffff021916908373ffffffffffffffffffffffffffffffffffffffff1602179055506001601260156101000a81548160ff021916908315150217905550670de0b6b3a7640000601355662386f26fc10000601455348015620001d657600080fd5b50620001f7620001eb620006c260201b60201c565b620006ca60201b60201c565b600854600160006200020e620006c260201b60201c565b73ffffffffffffffffffffffffffffffffffffffff1673ffffffffffffffffffffffffffffffffffffffff168152602001908152602001600020819055506003600d60000160006101000a81548161ffff021916908361ffff1602179055506002600d60000160026101000a81548161ffff021916908361ffff1602179055506001600d60000160046101000a81548161ffff021916908361ffff1602179055506002600d60000160066101000a81548161ffff021916908361ffff1602179055506005600e60000160006101000a81548161ffff021916908361ffff1602179055506002600e60000160026101000a81548161ffff021916908361ffff1602179055506002600e60000160046101000a81548161ffff021916908361ffff1602179055506003600e60000160066101000a81548161ffff021916908361ffff160217905550600073d99d1c33f9fc3444f8101754abc46c52416550d190508073ffffffffffffffffffffffffffffffffffffffff1663c45a01556040518163ffffffff1660e01b815260040160206040518083038186803b158015620003b457600080fd5b505afa158015620003c9573d6000803e3d6000fd5b505050506040513d601f19601f82011682018060405250810190620003ef9190620009ac565b73ffffffffffffffffffffffffffffffffffffffff1663c9c65396308373ffffffffffffffffffffffffffffffffffffffff1663ad5c46486040518163ffffffff1660e01b815260040160206040518083038186803b1580156200045257600080fd5b505afa15801562000467573d6000803e3d6000fd5b505050506040513d601f19601f820116820180604052508101906200048d9190620009ac565b6040518363ffffffff1660e01b8152600401620004ac929190620009ef565b602060405180830381600087803b158015620004c757600080fd5b505af1158015620004dc573d6000803e3d6000fd5b505050506040513d601f19601f82011682018060405250810190620005029190620009ac565b601060006101000a81548173ffffffffffffffffffffffffffffffffffffffff021916908373ffffffffffffffffffffffffffffffffffffffff16021790555080600f60086101000a81548173ffffffffffffffffffffffffffffffffffffffff021916908373ffffffffffffffffffffffffffffffffffffffff160217905550600160046000620005996200078e60201b60201c565b73ffffffffffffffffffffffffffffffffffffffff1673ffffffffffffffffffffffffffffffffffffffff16815260200190815260200160002060006101000a81548160ff0219169083151502179055506001600460003073ffffffffffffffffffffffffffffffffffffffff1673ffffffffffffffffffffffffffffffffffffffff16815260200190815260200160002060006101000a81548160ff02191690831515021790555062000652620006c260201b60201c565b73ffffffffffffffffffffffffffffffffffffffff16600073ffffffffffffffffffffffffffffffffffffffff167fddf252ad1be2c89b69c2b068fc378daa952ba7f163c4a11628f55a4df523b3ef600754604051620006b3919062000a2d565b60405180910390a35062000aaf565b600033905090565b60008060009054906101000a900473ffffffffffffffffffffffffffffffffffffffff169050816000806101000a81548173ffffffffffffffffffffffffffffffffffffffff021916908373ffffffffffffffffffffffffffffffffffffffff1602179055508173ffffffffffffffffffffffffffffffffffffffff168173ffffffffffffffffffffffffffffffffffffffff167f8be0079c531659141344cd1fd0a4f28419497f9722a3daafe3b4186f6b6457e060405160405180910390a35050565b60008060009054906101000a900473ffffffffffffffffffffffffffffffffffffffff16905090565b828054620007c59062000a79565b90600052602060002090601f016020900481019282620007e9576000855562000835565b82601f106200080457805160ff191683800117855562000835565b8280016001018555821562000835579182015b828111156200083457825182559160200191906001019062000817565b5b50905062000844919062000848565b5090565b5b808211156200086357600081600090555060010162000849565b5090565b6000819050919050565b7f4e487b7100000000000000000000000000000000000000000000000000000000600052601260045260246000fd5b6000620008ad8262000867565b9150620008ba8362000867565b925082620008cd57620008cc62000871565b5b828206905092915050565b7f4e487b7100000000000000000000000000000000000000000000000000000000600052601160045260246000fd5b6000620009148262000867565b9150620009218362000867565b925082821015620009375762000936620008d8565b5b828203905092915050565b600080fd5b600073ffffffffffffffffffffffffffffffffffffffff82169050919050565b6000620009748262000947565b9050919050565b620009868162000967565b81146200099257600080fd5b50565b600081519050620009a6816200097b565b92915050565b600060208284031215620009c557620009c462000942565b5b6000620009d58482850162000995565b91505092915050565b620009e98162000967565b82525050565b600060408201905062000a066000830185620009de565b62000a156020830184620009de565b9392505050565b62000a278162000867565b82525050565b600060208201905062000a44600083018462000a1c565b92915050565b7f4e487b7100000000000000000000000000000000000000000000000000000000600052602260045260246000fd5b6000600282049050600182168062000a9257607f821691505b6020821081141562000aa95762000aa862000a4a565b5b50919050565b6160a28062000abf6000396000f3fe6080604052600436106102345760003560e01c80635bcbe8771161012e578063a4f4a765116100ab578063dd62ed3e1161006f578063dd62ed3e1461088a578063ea2f0b37146108c7578063f0f165af146108f0578063f2fde38b14610919578063f9d0831a146109425761023b565b8063a4f4a765146107a7578063a9059cbb146107d2578063bc3371821461080f578063c49b9a8014610838578063c851cc32146108615761023b565b80638da5cb5b116100f25780638da5cb5b146106c05780638dc64439146106eb57806395d89b4114610714578063962dfc751461073f578063a457c2d71461076a5761023b565b80635bcbe877146105db57806370a0823114610604578063715018a6146106415780637d1db4a51461065857806388f82020146106835761023b565b80633685d419116101bc578063470624021161018057806347062402146104f157806349bd5a5e1461051f5780634a74bb021461054a57806352390c02146105755780635342acb41461059e5761023b565b80633685d419146103fc57806339509351146104255780633bd5d17314610462578063437823ec1461048b5780634549b039146104b45761023b565b806318160ddd1161020357806318160ddd146102fe57806323b872dd146103295780632b14ca56146103665780632d83811914610394578063313ce567146103d15761023b565b806306fdde0314610240578063095ea7b31461026b57806313114a9d146102a85780631694505e146102d35761023b565b3661023b57005b600080fd5b34801561024c57600080fd5b5061025561096b565b6040516102629190614dd2565b60405180910390f35b34801561027757600080fd5b50610292600480360381019061028d9190614e8d565b6109fd565b60405161029f9190614ee8565b60405180910390f35b3480156102b457600080fd5b506102bd610a1b565b6040516102ca9190614f12565b60405180910390f35b3480156102df57600080fd5b506102e8610a25565b6040516102f59190614f8c565b60405180910390f35b34801561030a57600080fd5b50610313610a4b565b6040516103209190614f12565b60405180910390f35b34801561033557600080fd5b50610350600480360381019061034b9190614fa7565b610a55565b60405161035d9190614ee8565b60405180910390f35b34801561037257600080fd5b5061037b610b2e565b60405161038b9493929190615017565b60405180910390f35b3480156103a057600080fd5b506103bb60048036038101906103b6919061505c565b610b84565b6040516103c89190614f12565b60405180910390f35b3480156103dd57600080fd5b506103e6610bf2565b6040516103f391906150a5565b60405180910390f35b34801561040857600080fd5b50610423600480360381019061041e91906150c0565b610c09565b005b34801561043157600080fd5b5061044c60048036038101906104479190614e8d565b610f3f565b6040516104599190614ee8565b60405180910390f35b34801561046e57600080fd5b506104896004803603810190610484919061505c565b610ff2565b005b34801561049757600080fd5b506104b260048036038101906104ad91906150c0565b61116d565b005b3480156104c057600080fd5b506104db60048036038101906104d69190615119565b611244565b6040516104e89190614f12565b60405180910390f35b3480156104fd57600080fd5b506105066112c8565b6040516105169493929190615017565b60405180910390f35b34801561052b57600080fd5b5061053461131e565b6040516105419190615168565b60405180910390f35b34801561055657600080fd5b5061055f611344565b60405161056c9190614ee8565b60405180910390f35b34801561058157600080fd5b5061059c600480360381019061059791906150c0565b611357565b005b3480156105aa57600080fd5b506105c560048036038101906105c091906150c0565b6115f2565b6040516105d29190614ee8565b60405180910390f35b3480156105e757600080fd5b5061060260048036038101906105fd91906151af565b611648565b005b34801561061057600080fd5b5061062b600480360381019061062691906150c0565b61174a565b6040516106389190614f12565b60405180910390f35b34801561064d57600080fd5b50610656611835565b005b34801561066457600080fd5b5061066d6118bd565b60405161067a9190614f12565b60405180910390f35b34801561068f57600080fd5b506106aa60048036038101906106a591906150c0565b6118c3565b6040516106b79190614ee8565b60405180910390f35b3480156106cc57600080fd5b506106d5611919565b6040516106e29190615168565b60405180910390f35b3480156106f757600080fd5b50610712600480360381019061070d91906151af565b611942565b005b34801561072057600080fd5b50610729611a44565b6040516107369190614dd2565b60405180910390f35b34801561074b57600080fd5b50610754611ad6565b6040516107619190615168565b60405180910390f35b34801561077657600080fd5b50610791600480360381019061078c9190614e8d565b611afc565b60405161079e9190614ee8565b60405180910390f35b3480156107b357600080fd5b506107bc611bc9565b6040516107c99190615168565b60405180910390f35b3480156107de57600080fd5b506107f960048036038101906107f49190614e8d565b611bef565b6040516108069190614ee8565b60405180910390f35b34801561081b57600080fd5b506108366004803603810190610831919061505c565b611c0d565b005b34801561084457600080fd5b5061085f600480360381019061085a9190615216565b611c93565b005b34801561086d57600080fd5b50610888600480360381019061088391906150c0565b611d63565b005b34801561089657600080fd5b506108b160048036038101906108ac9190615243565b6120c5565b6040516108be9190614f12565b60405180910390f35b3480156108d357600080fd5b506108ee60048036038101906108e991906150c0565b61214c565b005b3480156108fc57600080fd5b506109176004803603810190610912919061505c565b612223565b005b34801561092557600080fd5b50610940600480360381019061093b91906150c0565b6122a9565b005b34801561094e57600080fd5b50610969600480360381019061096491906150c0565b6123a1565b005b6060600a805461097a906152b2565b80601f01602080910402602001604051908101604052809291908181526020018280546109a6906152b2565b80156109f35780601f106109c8576101008083540402835291602001916109f3565b820191906000526020600020905b8154815290600101906020018083116109d657829003601f168201915b5050505050905090565b6000610a11610a0a612641565b8484612649565b6001905092915050565b6000600954905090565b600f60089054906101000a900473ffffffffffffffffffffffffffffffffffffffff1681565b6000600754905090565b6000610a62848484612814565b610b2384610a6e612641565b610b1e8560405180606001604052806028815260200161602060289139600360008b73ffffffffffffffffffffffffffffffffffffffff1673ffffffffffffffffffffffffffffffffffffffff1681526020019081526020016000206000610ad4612641565b73ffffffffffffffffffffffffffffffffffffffff1673ffffffffffffffffffffffffffffffffffffffff16815260200190815260200160002054612c679092919063ffffffff16565b612649565b600190509392505050565b600e8060000160009054906101000a900461ffff16908060000160029054906101000a900461ffff16908060000160049054906101000a900461ffff16908060000160069054906101000a900461ffff16905084565b6000600854821115610bcb576040517f08c379a0000000000000000000000000000000000000000000000000000000008152600401610bc290615356565b60405180910390fd5b6000610bd5612cbc565b9050610bea8184612ce790919063ffffffff16565b915050919050565b6000600c60009054906101000a900460ff16905090565b610c11612641565b73ffffffffffffffffffffffffffffffffffffffff16610c2f611919565b73ffffffffffffffffffffffffffffffffffffffff1614610c85576040517f08c379a0000000000000000000000000000000000000000000000000000000008152600401610c7c906153c2565b60405180910390fd5b600560008273ffffffffffffffffffffffffffffffffffffffff1673ffffffffffffffffffffffffffffffffffffffff16815260200190815260200160002060009054906101000a900460ff16610d11576040517f08c379a0000000000000000000000000000000000000000000000000000000008152600401610d089061542e565b60405180910390fd5b60005b600680549050811015610f3b578173ffffffffffffffffffffffffffffffffffffffff1660068281548110610d4c57610d4b61544e565b5b9060005260206000200160009054906101000a900473ffffffffffffffffffffffffffffffffffffffff1673ffffffffffffffffffffffffffffffffffffffff161415610f285760066001600680549050610da791906154ac565b81548110610db857610db761544e565b5b9060005260206000200160009054906101000a900473ffffffffffffffffffffffffffffffffffffffff1660068281548110610df757610df661544e565b5b9060005260206000200160006101000a81548173ffffffffffffffffffffffffffffffffffffffff021916908373ffffffffffffffffffffffffffffffffffffffff1602179055506000600260008473ffffffffffffffffffffffffffffffffffffffff1673ffffffffffffffffffffffffffffffffffffffff168152602001908152602001600020819055506000600560008473ffffffffffffffffffffffffffffffffffffffff1673ffffffffffffffffffffffffffffffffffffffff16815260200190815260200160002060006101000a81548160ff0219169083151502179055506006805480610eee57610eed6154e0565b5b6001900381819060005260206000200160006101000a81549073ffffffffffffffffffffffffffffffffffffffff02191690559055610f3b565b8080610f339061550f565b915050610d14565b5050565b6000610fe8610f4c612641565b84610fe38560036000610f5d612641565b73ffffffffffffffffffffffffffffffffffffffff1673ffffffffffffffffffffffffffffffffffffffff16815260200190815260200160002060008973ffffffffffffffffffffffffffffffffffffffff1673ffffffffffffffffffffffffffffffffffffffff16815260200190815260200160002054612cfd90919063ffffffff16565b612649565b6001905092915050565b6000610ffc612641565b9050600560008273ffffffffffffffffffffffffffffffffffffffff1673ffffffffffffffffffffffffffffffffffffffff16815260200190815260200160002060009054906101000a900460ff161561108b576040517f08c379a0000000000000000000000000000000000000000000000000000000008152600401611082906155ca565b60405180910390fd5b600061109683612d13565b505050505090506110ef81600160008573ffffffffffffffffffffffffffffffffffffffff1673ffffffffffffffffffffffffffffffffffffffff16815260200190815260200160002054612d7a90919063ffffffff16565b600160008473ffffffffffffffffffffffffffffffffffffffff1673ffffffffffffffffffffffffffffffffffffffff1681526020019081526020016000208190555061114781600854612d7a90919063ffffffff16565b60088190555061116283600954612cfd90919063ffffffff16565b600981905550505050565b611175612641565b73ffffffffffffffffffffffffffffffffffffffff16611193611919565b73ffffffffffffffffffffffffffffffffffffffff16146111e9576040517f08c379a00000000000000000000000000000000000000000000000000000000081526004016111e0906153c2565b60405180910390fd5b6001600460008373ffffffffffffffffffffffffffffffffffffffff1673ffffffffffffffffffffffffffffffffffffffff16815260200190815260200160002060006101000a81548160ff02191690831515021790555050565b600060075483111561128b576040517f08c379a000000000000000000000000000000000000000000000000000000000815260040161128290615636565b60405180910390fd5b816112ab57600061129b84612d13565b50505050509050809150506112c2565b60006112b684612d13565b50505050915050809150505b92915050565b600d8060000160009054906101000a900461ffff16908060000160029054906101000a900461ffff16908060000160049054906101000a900461ffff16908060000160069054906101000a900461ffff16905084565b601060009054906101000a900473ffffffffffffffffffffffffffffffffffffffff1681565b601260159054906101000a900460ff1681565b61135f612641565b73ffffffffffffffffffffffffffffffffffffffff1661137d611919565b73ffffffffffffffffffffffffffffffffffffffff16146113d3576040517f08c379a00000000000000000000000000000000000000000000000000000000081526004016113ca906153c2565b60405180910390fd5b600560008273ffffffffffffffffffffffffffffffffffffffff1673ffffffffffffffffffffffffffffffffffffffff16815260200190815260200160002060009054906101000a900460ff1615611460576040517f08c379a00000000000000000000000000000000000000000000000000000000081526004016114579061542e565b60405180910390fd5b6000600160008373ffffffffffffffffffffffffffffffffffffffff1673ffffffffffffffffffffffffffffffffffffffff168152602001908152602001600020541115611534576114f0600160008373ffffffffffffffffffffffffffffffffffffffff1673ffffffffffffffffffffffffffffffffffffffff16815260200190815260200160002054610b84565b600260008373ffffffffffffffffffffffffffffffffffffffff1673ffffffffffffffffffffffffffffffffffffffff168152602001908152602001600020819055505b6001600560008373ffffffffffffffffffffffffffffffffffffffff1673ffffffffffffffffffffffffffffffffffffffff16815260200190815260200160002060006101000a81548160ff0219169083151502179055506006819080600181540180825580915050600190039060005260206000200160009091909190916101000a81548173ffffffffffffffffffffffffffffffffffffffff021916908373ffffffffffffffffffffffffffffffffffffffff16021790555050565b6000600460008373ffffffffffffffffffffffffffffffffffffffff1673ffffffffffffffffffffffffffffffffffffffff16815260200190815260200160002060009054906101000a900460ff169050919050565b611650612641565b73ffffffffffffffffffffffffffffffffffffffff1661166e611919565b73ffffffffffffffffffffffffffffffffffffffff16146116c4576040517f08c379a00000000000000000000000000000000000000000000000000000000081526004016116bb906153c2565b60405180910390fd5b83600e60000160006101000a81548161ffff021916908361ffff16021790555082600e60000160026101000a81548161ffff021916908361ffff16021790555081600e60000160046101000a81548161ffff021916908361ffff16021790555080600e60000160066101000a81548161ffff021916908361ffff16021790555050505050565b6000600560008373ffffffffffffffffffffffffffffffffffffffff1673ffffffffffffffffffffffffffffffffffffffff16815260200190815260200160002060009054906101000a900460ff16156117e557600260008373ffffffffffffffffffffffffffffffffffffffff1673ffffffffffffffffffffffffffffffffffffffff168152602001908152602001600020549050611830565b61182d600160008473ffffffffffffffffffffffffffffffffffffffff1673ffffffffffffffffffffffffffffffffffffffff16815260200190815260200160002054610b84565b90505b919050565b61183d612641565b73ffffffffffffffffffffffffffffffffffffffff1661185b611919565b73ffffffffffffffffffffffffffffffffffffffff16146118b1576040517f08c379a00000000000000000000000000000000000000000000000000000000081526004016118a8906153c2565b60405180910390fd5b6118bb6000612d90565b565b60135481565b6000600560008373ffffffffffffffffffffffffffffffffffffffff1673ffffffffffffffffffffffffffffffffffffffff16815260200190815260200160002060009054906101000a900460ff169050919050565b60008060009054906101000a900473ffffffffffffffffffffffffffffffffffffffff16905090565b61194a612641565b73ffffffffffffffffffffffffffffffffffffffff16611968611919565b73ffffffffffffffffffffffffffffffffffffffff16146119be576040517f08c379a00000000000000000000000000000000000000000000000000000000081526004016119b5906153c2565b60405180910390fd5b83600d60000160006101000a81548161ffff021916908361ffff16021790555082600d60000160026101000a81548161ffff021916908361ffff16021790555081600d60000160046101000a81548161ffff021916908361ffff16021790555080600d60000160066101000a81548161ffff021916908361ffff16021790555050505050565b6060600b8054611a53906152b2565b80601f0160208091040260200160405190810160405280929190818152602001828054611a7f906152b2565b8015611acc5780601f10611aa157610100808354040283529160200191611acc565b820191906000526020600020905b815481529060010190602001808311611aaf57829003601f168201915b5050505050905090565b601160009054906101000a900473ffffffffffffffffffffffffffffffffffffffff1681565b6000611bbf611b09612641565b84611bba856040518060600160405280602581526020016160486025913960036000611b33612641565b73ffffffffffffffffffffffffffffffffffffffff1673ffffffffffffffffffffffffffffffffffffffff16815260200190815260200160002060008a73ffffffffffffffffffffffffffffffffffffffff1673ffffffffffffffffffffffffffffffffffffffff16815260200190815260200160002054612c679092919063ffffffff16565b612649565b6001905092915050565b601260009054906101000a900473ffffffffffffffffffffffffffffffffffffffff1681565b6000611c03611bfc612641565b8484612814565b6001905092915050565b611c15612641565b73ffffffffffffffffffffffffffffffffffffffff16611c33611919565b73ffffffffffffffffffffffffffffffffffffffff1614611c89576040517f08c379a0000000000000000000000000000000000000000000000000000000008152600401611c80906153c2565b60405180910390fd5b8060138190555050565b611c9b612641565b73ffffffffffffffffffffffffffffffffffffffff16611cb9611919565b73ffffffffffffffffffffffffffffffffffffffff1614611d0f576040517f08c379a0000000000000000000000000000000000000000000000000000000008152600401611d06906153c2565b60405180910390fd5b80601260156101000a81548160ff0219169083151502179055507f53726dfcaf90650aa7eb35524f4d3220f07413c8d6cb404cc8c18bf5591bc15981604051611d589190614ee8565b60405180910390a150565b611d6b612641565b73ffffffffffffffffffffffffffffffffffffffff16611d89611919565b73ffffffffffffffffffffffffffffffffffffffff1614611ddf576040517f08c379a0000000000000000000000000000000000000000000000000000000008152600401611dd6906153c2565b60405180910390fd5b600f60089054906101000a900473ffffffffffffffffffffffffffffffffffffffff1673ffffffffffffffffffffffffffffffffffffffff168173ffffffffffffffffffffffffffffffffffffffff161415611e70576040517f08c379a0000000000000000000000000000000000000000000000000000000008152600401611e67906156c8565b60405180910390fd5b80600f60086101000a81548173ffffffffffffffffffffffffffffffffffffffff021916908373ffffffffffffffffffffffffffffffffffffffff1602179055506000600f60089054906101000a900473ffffffffffffffffffffffffffffffffffffffff1673ffffffffffffffffffffffffffffffffffffffff1663c45a01556040518163ffffffff1660e01b815260040160206040518083038186803b158015611f1b57600080fd5b505afa158015611f2f573d6000803e3d6000fd5b505050506040513d601f19601f82011682018060405250810190611f5391906156fd565b73ffffffffffffffffffffffffffffffffffffffff1663c9c6539630600f60089054906101000a900473ffffffffffffffffffffffffffffffffffffffff1673ffffffffffffffffffffffffffffffffffffffff1663ad5c46486040518163ffffffff1660e01b815260040160206040518083038186803b158015611fd757600080fd5b505afa158015611feb573d6000803e3d6000fd5b505050506040513d601f19601f8201168201806040525081019061200f91906156fd565b6040518363ffffffff1660e01b815260040161202c92919061572a565b602060405180830381600087803b15801561204657600080fd5b505af115801561205a573d6000803e3d6000fd5b505050506040513d601f19601f8201168201806040525081019061207e91906156fd565b905080601060006101000a81548173ffffffffffffffffffffffffffffffffffffffff021916908373ffffffffffffffffffffffffffffffffffffffff1602179055505050565b6000600360008473ffffffffffffffffffffffffffffffffffffffff1673ffffffffffffffffffffffffffffffffffffffff16815260200190815260200160002060008373ffffffffffffffffffffffffffffffffffffffff1673ffffffffffffffffffffffffffffffffffffffff16815260200190815260200160002054905092915050565b612154612641565b73ffffffffffffffffffffffffffffffffffffffff16612172611919565b73ffffffffffffffffffffffffffffffffffffffff16146121c8576040517f08c379a00000000000000000000000000000000000000000000000000000000081526004016121bf906153c2565b60405180910390fd5b6000600460008373ffffffffffffffffffffffffffffffffffffffff1673ffffffffffffffffffffffffffffffffffffffff16815260200190815260200160002060006101000a81548160ff02191690831515021790555050565b61222b612641565b73ffffffffffffffffffffffffffffffffffffffff16612249611919565b73ffffffffffffffffffffffffffffffffffffffff161461229f576040517f08c379a0000000000000000000000000000000000000000000000000000000008152600401612296906153c2565b60405180910390fd5b8060148190555050565b6122b1612641565b73ffffffffffffffffffffffffffffffffffffffff166122cf611919565b73ffffffffffffffffffffffffffffffffffffffff1614612325576040517f08c379a000000000000000000000000000000000000000000000000000000000815260040161231c906153c2565b60405180910390fd5b600073ffffffffffffffffffffffffffffffffffffffff168173ffffffffffffffffffffffffffffffffffffffff161415612395576040517f08c379a000000000000000000000000000000000000000000000000000000000815260040161238c906157c5565b60405180910390fd5b61239e81612d90565b50565b6123a9612641565b73ffffffffffffffffffffffffffffffffffffffff166123c7611919565b73ffffffffffffffffffffffffffffffffffffffff161461241d576040517f08c379a0000000000000000000000000000000000000000000000000000000008152600401612414906153c2565b60405180910390fd5b3073ffffffffffffffffffffffffffffffffffffffff168173ffffffffffffffffffffffffffffffffffffffff16141561248c576040517f08c379a000000000000000000000000000000000000000000000000000000000815260040161248390615831565b60405180910390fd5b600073ffffffffffffffffffffffffffffffffffffffff168173ffffffffffffffffffffffffffffffffffffffff161415612514576124c9611919565b73ffffffffffffffffffffffffffffffffffffffff166108fc479081150290604051600060405180830381858888f1935050505015801561250e573d6000803e3d6000fd5b5061263e565b600081905060008173ffffffffffffffffffffffffffffffffffffffff166370a08231306040518263ffffffff1660e01b81526004016125549190615168565b60206040518083038186803b15801561256c57600080fd5b505afa158015612580573d6000803e3d6000fd5b505050506040513d601f19601f820116820180604052508101906125a49190615866565b90508173ffffffffffffffffffffffffffffffffffffffff1663a9059cbb6125ca611919565b836040518363ffffffff1660e01b81526004016125e8929190615893565b602060405180830381600087803b15801561260257600080fd5b505af1158015612616573d6000803e3d6000fd5b505050506040513d601f19601f8201168201806040525081019061263a91906158d1565b5050505b50565b600033905090565b600073ffffffffffffffffffffffffffffffffffffffff168373ffffffffffffffffffffffffffffffffffffffff1614156126b9576040517f08c379a00000000000000000000000000000000000000000000000000000000081526004016126b090615970565b60405180910390fd5b600073ffffffffffffffffffffffffffffffffffffffff168273ffffffffffffffffffffffffffffffffffffffff161415612729576040517f08c379a000000000000000000000000000000000000000000000000000000000815260040161272090615a02565b60405180910390fd5b80600360008573ffffffffffffffffffffffffffffffffffffffff1673ffffffffffffffffffffffffffffffffffffffff16815260200190815260200160002060008473ffffffffffffffffffffffffffffffffffffffff1673ffffffffffffffffffffffffffffffffffffffff168152602001908152602001600020819055508173ffffffffffffffffffffffffffffffffffffffff168373ffffffffffffffffffffffffffffffffffffffff167f8c5be1e5ebec7d5bd14f71427d1e84f3dd0314c0f7b2291e5b200ac8c7c3b925836040516128079190614f12565b60405180910390a3505050565b600073ffffffffffffffffffffffffffffffffffffffff168373ffffffffffffffffffffffffffffffffffffffff161415612884576040517f08c379a000000000000000000000000000000000000000000000000000000000815260040161287b90615a94565b60405180910390fd5b600073ffffffffffffffffffffffffffffffffffffffff168273ffffffffffffffffffffffffffffffffffffffff1614156128f4576040517f08c379a00000000000000000000000000000000000000000000000000000000081526004016128eb90615b26565b60405180910390fd5b60008111612937576040517f08c379a000000000000000000000000000000000000000000000000000000000815260040161292e90615bb8565b60405180910390fd5b61293f611919565b73ffffffffffffffffffffffffffffffffffffffff168373ffffffffffffffffffffffffffffffffffffffff16141580156129ad575061297d611919565b73ffffffffffffffffffffffffffffffffffffffff168273ffffffffffffffffffffffffffffffffffffffff1614155b156129f8576013548111156129f7576040517f08c379a00000000000000000000000000000000000000000000000000000000081526004016129ee90615c4a565b60405180910390fd5b5b6000612a033061174a565b90506013548110612a145760135490505b60006014548210159050808015612a385750601260149054906101000a900460ff16155b8015612a925750601060009054906101000a900473ffffffffffffffffffffffffffffffffffffffff1673ffffffffffffffffffffffffffffffffffffffff168573ffffffffffffffffffffffffffffffffffffffff1614155b8015612aaa5750601260159054906101000a900460ff165b15612ba25760145491506000612b81600e60000160009054906101000a900461ffff16600d60000160009054906101000a900461ffff16600e60000160029054906101000a900461ffff16600d60000160029054906101000a900461ffff16612b139190615c6a565b612b1d9190615c6a565b612b279190615c6a565b61ffff16612b73600e60000160029054906101000a900461ffff16600d60000160029054906101000a900461ffff16612b609190615c6a565b61ffff1686612e5490919063ffffffff16565b612ce790919063ffffffff16565b9050612b8c81612e6a565b612ba08184612b9b91906154ac565b612f33565b505b600060019050600460008773ffffffffffffffffffffffffffffffffffffffff1673ffffffffffffffffffffffffffffffffffffffff16815260200190815260200160002060009054906101000a900460ff1680612c495750600460008673ffffffffffffffffffffffffffffffffffffffff1673ffffffffffffffffffffffffffffffffffffffff16815260200190815260200160002060009054906101000a900460ff165b15612c5357600090505b612c5f86868684613009565b505050505050565b6000838311158290612caf576040517f08c379a0000000000000000000000000000000000000000000000000000000008152600401612ca69190614dd2565b60405180910390fd5b5082840390509392505050565b6000806000612cc96133cb565b91509150612ce08183612ce790919063ffffffff16565b9250505090565b60008183612cf59190615cd1565b905092915050565b60008183612d0b9190615d02565b905092915050565b6000806000806000806000806000806000612d2d8c61367e565b945094509450945094506000806000612d518f88888888612d4c612cbc565b613726565b9250925092508282828a8a8a9d509d509d509d509d509d50505050505050505091939550919395565b60008183612d8891906154ac565b905092915050565b60008060009054906101000a900473ffffffffffffffffffffffffffffffffffffffff169050816000806101000a81548173ffffffffffffffffffffffffffffffffffffffff021916908373ffffffffffffffffffffffffffffffffffffffff1602179055508173ffffffffffffffffffffffffffffffffffffffff168173ffffffffffffffffffffffffffffffffffffffff167f8be0079c531659141344cd1fd0a4f28419497f9722a3daafe3b4186f6b6457e060405160405180910390a35050565b60008183612e629190615d58565b905092915050565b6001601260146101000a81548160ff0219169083151502179055506000479050612e9382613805565b6000612ea88247612d7a90919063ffffffff16565b9050601160009054906101000a900473ffffffffffffffffffffffffffffffffffffffff1673ffffffffffffffffffffffffffffffffffffffff166108fc829081150290604051600060405180830381858888f19350505050158015612f12573d6000803e3d6000fd5b5050506000601260146101000a81548160ff02191690831515021790555050565b6001601260146101000a81548160ff0219169083151502179055506000612f64600283612ce790919063ffffffff16565b90506000612f7b8284612d7a90919063ffffffff16565b90506000479050612f8b83613805565b6000612fa08247612d7a90919063ffffffff16565b9050612fac8382613a57565b7f17bbfb9a6069321b6ded73bd96327c9e6b7212a5cd51ff219cd61370acafb561848285604051612fdf93929190615db2565b60405180910390a1505050506000601260146101000a81548160ff02191690831515021790555050565b613011613b4b565b80156130d657601060009054906101000a900473ffffffffffffffffffffffffffffffffffffffff1673ffffffffffffffffffffffffffffffffffffffff168473ffffffffffffffffffffffffffffffffffffffff16141561307657613075613bc5565b5b601060009054906101000a900473ffffffffffffffffffffffffffffffffffffffff1673ffffffffffffffffffffffffffffffffffffffff168373ffffffffffffffffffffffffffffffffffffffff1614156130d5576130d4613c87565b5b5b600560008573ffffffffffffffffffffffffffffffffffffffff1673ffffffffffffffffffffffffffffffffffffffff16815260200190815260200160002060009054906101000a900460ff1680156131795750600560008473ffffffffffffffffffffffffffffffffffffffff1673ffffffffffffffffffffffffffffffffffffffff16815260200190815260200160002060009054906101000a900460ff16155b1561318e57613189848484613d49565b6133c5565b600560008573ffffffffffffffffffffffffffffffffffffffff1673ffffffffffffffffffffffffffffffffffffffff16815260200190815260200160002060009054906101000a900460ff161580156132315750600560008473ffffffffffffffffffffffffffffffffffffffff1673ffffffffffffffffffffffffffffffffffffffff16815260200190815260200160002060009054906101000a900460ff165b1561324657613241848484613fc3565b6133c4565b600560008573ffffffffffffffffffffffffffffffffffffffff1673ffffffffffffffffffffffffffffffffffffffff16815260200190815260200160002060009054906101000a900460ff161580156132ea5750600560008473ffffffffffffffffffffffffffffffffffffffff1673ffffffffffffffffffffffffffffffffffffffff16815260200190815260200160002060009054906101000a900460ff16155b156132ff576132fa84848461423d565b6133c3565b600560008573ffffffffffffffffffffffffffffffffffffffff1673ffffffffffffffffffffffffffffffffffffffff16815260200190815260200160002060009054906101000a900460ff1680156133a15750600560008473ffffffffffffffffffffffffffffffffffffffff1673ffffffffffffffffffffffffffffffffffffffff16815260200190815260200160002060009054906101000a900460ff165b156133b6576133b1848484614422565b6133c2565b6133c184848461423d565b5b5b5b5b50505050565b600080600060085490506000600754905060005b600680549050811015613641578260016000600684815481106134055761340461544e565b5b9060005260206000200160009054906101000a900473ffffffffffffffffffffffffffffffffffffffff1673ffffffffffffffffffffffffffffffffffffffff1673ffffffffffffffffffffffffffffffffffffffff1681526020019081526020016000205411806134f3575081600260006006848154811061348b5761348a61544e565b5b9060005260206000200160009054906101000a900473ffffffffffffffffffffffffffffffffffffffff1673ffffffffffffffffffffffffffffffffffffffff1673ffffffffffffffffffffffffffffffffffffffff16815260200190815260200160002054115b1561350a576008546007549450945050505061367a565b61359a60016000600684815481106135255761352461544e565b5b9060005260206000200160009054906101000a900473ffffffffffffffffffffffffffffffffffffffff1673ffffffffffffffffffffffffffffffffffffffff1673ffffffffffffffffffffffffffffffffffffffff1681526020019081526020016000205484612d7a90919063ffffffff16565b925061362c60026000600684815481106135b7576135b661544e565b5b9060005260206000200160009054906101000a900473ffffffffffffffffffffffffffffffffffffffff1673ffffffffffffffffffffffffffffffffffffffff1673ffffffffffffffffffffffffffffffffffffffff1681526020019081526020016000205483612d7a90919063ffffffff16565b915080806136399061550f565b9150506133df565b50613659600754600854612ce790919063ffffffff16565b8210156136715760085460075493509350505061367a565b81819350935050505b9091565b60008060008060008061369087614731565b9050600061369d88614774565b905060006136aa896147b7565b905060006136b78a6147fa565b905060006136e0846136d2878e612d7a90919063ffffffff16565b612d7a90919063ffffffff16565b9050613707826136f98584612d7a90919063ffffffff16565b612d7a90919063ffffffff16565b9050808585858599509950995099509950505050505091939590929450565b60008060008061373f858b612e5490919063ffffffff16565b90506000613756868b612e5490919063ffffffff16565b9050600061376d878b612e5490919063ffffffff16565b90506000613784888b612e5490919063ffffffff16565b9050600061379b898b612e5490919063ffffffff16565b905060006137e8826137da856137cc886137be8b8d612d7a90919063ffffffff16565b612d7a90919063ffffffff16565b612d7a90919063ffffffff16565b612d7a90919063ffffffff16565b905085818698509850985050505050505096509650969350505050565b6000600267ffffffffffffffff81111561382257613821615de9565b5b6040519080825280602002602001820160405280156138505781602001602082028036833780820191505090505b50905030816000815181106138685761386761544e565b5b602002602001019073ffffffffffffffffffffffffffffffffffffffff16908173ffffffffffffffffffffffffffffffffffffffff1681525050600f60089054906101000a900473ffffffffffffffffffffffffffffffffffffffff1673ffffffffffffffffffffffffffffffffffffffff1663ad5c46486040518163ffffffff1660e01b815260040160206040518083038186803b15801561390a57600080fd5b505afa15801561391e573d6000803e3d6000fd5b505050506040513d601f19601f8201168201806040525081019061394291906156fd565b816001815181106139565761395561544e565b5b602002602001019073ffffffffffffffffffffffffffffffffffffffff16908173ffffffffffffffffffffffffffffffffffffffff16815250506139bd30600f60089054906101000a900473ffffffffffffffffffffffffffffffffffffffff1684612649565b600f60089054906101000a900473ffffffffffffffffffffffffffffffffffffffff1673ffffffffffffffffffffffffffffffffffffffff1663791ac9478360008430426040518663ffffffff1660e01b8152600401613a21959493929190615f11565b600060405180830381600087803b158015613a3b57600080fd5b505af1158015613a4f573d6000803e3d6000fd5b505050505050565b613a8430600f60089054906101000a900473ffffffffffffffffffffffffffffffffffffffff1684612649565b600f60089054906101000a900473ffffffffffffffffffffffffffffffffffffffff1673ffffffffffffffffffffffffffffffffffffffff1663f305d719823085600080613ad0611919565b426040518863ffffffff1660e01b8152600401613af296959493929190615f6b565b6060604051808303818588803b158015613b0b57600080fd5b505af1158015613b1f573d6000803e3d6000fd5b50505050506040513d601f19601f82011682018060405250810190613b449190615fcc565b5050505050565b6000600f60006101000a81548161ffff021916908361ffff1602179055506000600f60026101000a81548161ffff021916908361ffff1602179055506000600f60066101000a81548161ffff021916908361ffff1602179055506000600f60046101000a81548161ffff021916908361ffff160217905550565b600d60000160069054906101000a900461ffff16600f60006101000a81548161ffff021916908361ffff160217905550600d60000160009054906101000a900461ffff16600f60026101000a81548161ffff021916908361ffff160217905550600d60000160049054906101000a900461ffff16600f60066101000a81548161ffff021916908361ffff160217905550600d60000160029054906101000a900461ffff16600f60046101000a81548161ffff021916908361ffff160217905550565b600e60000160069054906101000a900461ffff16600f60006101000a81548161ffff021916908361ffff160217905550600e60000160009054906101000a900461ffff16600f60026101000a81548161ffff021916908361ffff160217905550600e60000160049054906101000a900461ffff16600f60066101000a81548161ffff021916908361ffff160217905550600e60000160029054906101000a900461ffff16600f60046101000a81548161ffff021916908361ffff160217905550565b600080600080600080613d5b87612d13565b955095509550955095509550613db987600260008c73ffffffffffffffffffffffffffffffffffffffff1673ffffffffffffffffffffffffffffffffffffffff16815260200190815260200160002054612d7a90919063ffffffff16565b600260008b73ffffffffffffffffffffffffffffffffffffffff1673ffffffffffffffffffffffffffffffffffffffff16815260200190815260200160002081905550613e4e86600160008c73ffffffffffffffffffffffffffffffffffffffff1673ffffffffffffffffffffffffffffffffffffffff16815260200190815260200160002054612d7a90919063ffffffff16565b600160008b73ffffffffffffffffffffffffffffffffffffffff1673ffffffffffffffffffffffffffffffffffffffff16815260200190815260200160002081905550613ee385600160008b73ffffffffffffffffffffffffffffffffffffffff1673ffffffffffffffffffffffffffffffffffffffff16815260200190815260200160002054612cfd90919063ffffffff16565b600160008a73ffffffffffffffffffffffffffffffffffffffff1673ffffffffffffffffffffffffffffffffffffffff16815260200190815260200160002081905550613f2f8161483d565b613f49613f3b886147b7565b613f44896147fa565b6149e2565b613f538483614cff565b8773ffffffffffffffffffffffffffffffffffffffff168973ffffffffffffffffffffffffffffffffffffffff167fddf252ad1be2c89b69c2b068fc378daa952ba7f163c4a11628f55a4df523b3ef85604051613fb09190614f12565b60405180910390a3505050505050505050565b600080600080600080613fd587612d13565b95509550955095509550955061403386600160008c73ffffffffffffffffffffffffffffffffffffffff1673ffffffffffffffffffffffffffffffffffffffff16815260200190815260200160002054612d7a90919063ffffffff16565b600160008b73ffffffffffffffffffffffffffffffffffffffff1673ffffffffffffffffffffffffffffffffffffffff168152602001908152602001600020819055506140c883600260008b73ffffffffffffffffffffffffffffffffffffffff1673ffffffffffffffffffffffffffffffffffffffff16815260200190815260200160002054612cfd90919063ffffffff16565b600260008a73ffffffffffffffffffffffffffffffffffffffff1673ffffffffffffffffffffffffffffffffffffffff1681526020019081526020016000208190555061415d85600160008b73ffffffffffffffffffffffffffffffffffffffff1673ffffffffffffffffffffffffffffffffffffffff16815260200190815260200160002054612cfd90919063ffffffff16565b600160008a73ffffffffffffffffffffffffffffffffffffffff1673ffffffffffffffffffffffffffffffffffffffff168152602001908152602001600020819055506141a98161483d565b6141c36141b5886147b7565b6141be896147fa565b6149e2565b6141cd8483614cff565b8773ffffffffffffffffffffffffffffffffffffffff168973ffffffffffffffffffffffffffffffffffffffff167fddf252ad1be2c89b69c2b068fc378daa952ba7f163c4a11628f55a4df523b3ef8560405161422a9190614f12565b60405180910390a3505050505050505050565b60008060008060008061424f87612d13565b9550955095509550955095506142ad86600160008c73ffffffffffffffffffffffffffffffffffffffff1673ffffffffffffffffffffffffffffffffffffffff16815260200190815260200160002054612d7a90919063ffffffff16565b600160008b73ffffffffffffffffffffffffffffffffffffffff1673ffffffffffffffffffffffffffffffffffffffff1681526020019081526020016000208190555061434285600160008b73ffffffffffffffffffffffffffffffffffffffff1673ffffffffffffffffffffffffffffffffffffffff16815260200190815260200160002054612cfd90919063ffffffff16565b600160008a73ffffffffffffffffffffffffffffffffffffffff1673ffffffffffffffffffffffffffffffffffffffff1681526020019081526020016000208190555061438e8161483d565b6143a861439a886147b7565b6143a3896147fa565b6149e2565b6143b28483614cff565b8773ffffffffffffffffffffffffffffffffffffffff168973ffffffffffffffffffffffffffffffffffffffff167fddf252ad1be2c89b69c2b068fc378daa952ba7f163c4a11628f55a4df523b3ef8560405161440f9190614f12565b60405180910390a3505050505050505050565b60008060008060008061443487612d13565b95509550955095509550955061449287600260008c73ffffffffffffffffffffffffffffffffffffffff1673ffffffffffffffffffffffffffffffffffffffff16815260200190815260200160002054612d7a90919063ffffffff16565b600260008b73ffffffffffffffffffffffffffffffffffffffff1673ffffffffffffffffffffffffffffffffffffffff1681526020019081526020016000208190555061452786600160008c73ffffffffffffffffffffffffffffffffffffffff1673ffffffffffffffffffffffffffffffffffffffff16815260200190815260200160002054612d7a90919063ffffffff16565b600160008b73ffffffffffffffffffffffffffffffffffffffff1673ffffffffffffffffffffffffffffffffffffffff168152602001908152602001600020819055506145bc83600260008b73ffffffffffffffffffffffffffffffffffffffff1673ffffffffffffffffffffffffffffffffffffffff16815260200190815260200160002054612cfd90919063ffffffff16565b600260008a73ffffffffffffffffffffffffffffffffffffffff1673ffffffffffffffffffffffffffffffffffffffff1681526020019081526020016000208190555061465185600160008b73ffffffffffffffffffffffffffffffffffffffff1673ffffffffffffffffffffffffffffffffffffffff16815260200190815260200160002054612cfd90919063ffffffff16565b600160008a73ffffffffffffffffffffffffffffffffffffffff1673ffffffffffffffffffffffffffffffffffffffff1681526020019081526020016000208190555061469d8161483d565b6146b76146a9886147b7565b6146b2896147fa565b6149e2565b6146c18483614cff565b8773ffffffffffffffffffffffffffffffffffffffff168973ffffffffffffffffffffffffffffffffffffffff167fddf252ad1be2c89b69c2b068fc378daa952ba7f163c4a11628f55a4df523b3ef8560405161471e9190614f12565b60405180910390a3505050505050505050565b600061476d606461475f600f60009054906101000a900461ffff1661ffff1685612e5490919063ffffffff16565b612ce790919063ffffffff16565b9050919050565b60006147b060646147a2600f60029054906101000a900461ffff1661ffff1685612e5490919063ffffffff16565b612ce790919063ffffffff16565b9050919050565b60006147f360646147e5600f60069054906101000a900461ffff1661ffff1685612e5490919063ffffffff16565b612ce790919063ffffffff16565b9050919050565b60006148366064614828600f60049054906101000a900461ffff1661ffff1685612e5490919063ffffffff16565b612ce790919063ffffffff16565b9050919050565b6000614847612cbc565b9050600061485e8284612e5490919063ffffffff16565b90506148b281600160003073ffffffffffffffffffffffffffffffffffffffff1673ffffffffffffffffffffffffffffffffffffffff16815260200190815260200160002054612cfd90919063ffffffff16565b600160003073ffffffffffffffffffffffffffffffffffffffff1673ffffffffffffffffffffffffffffffffffffffff16815260200190815260200160002081905550600560003073ffffffffffffffffffffffffffffffffffffffff1673ffffffffffffffffffffffffffffffffffffffff16815260200190815260200160002060009054906101000a900460ff16156149dd5761499983600260003073ffffffffffffffffffffffffffffffffffffffff1673ffffffffffffffffffffffffffffffffffffffff16815260200190815260200160002054612cfd90919063ffffffff16565b600260003073ffffffffffffffffffffffffffffffffffffffff1673ffffffffffffffffffffffffffffffffffffffff168152602001908152602001600020819055505b505050565b60006149ec612cbc565b90506000614a038285612e5490919063ffffffff16565b90506000614a1a8385612e5490919063ffffffff16565b9050614a908260016000601260009054906101000a900473ffffffffffffffffffffffffffffffffffffffff1673ffffffffffffffffffffffffffffffffffffffff1673ffffffffffffffffffffffffffffffffffffffff16815260200190815260200160002054612cfd90919063ffffffff16565b60016000601260009054906101000a900473ffffffffffffffffffffffffffffffffffffffff1673ffffffffffffffffffffffffffffffffffffffff1673ffffffffffffffffffffffffffffffffffffffff16815260200190815260200160002081905550614b4781600160003073ffffffffffffffffffffffffffffffffffffffff1673ffffffffffffffffffffffffffffffffffffffff16815260200190815260200160002054612cfd90919063ffffffff16565b600160003073ffffffffffffffffffffffffffffffffffffffff1673ffffffffffffffffffffffffffffffffffffffff16815260200190815260200160002081905550614bfe8560026000601260009054906101000a900473ffffffffffffffffffffffffffffffffffffffff1673ffffffffffffffffffffffffffffffffffffffff1673ffffffffffffffffffffffffffffffffffffffff16815260200190815260200160002054612cfd90919063ffffffff16565b60026000601260009054906101000a900473ffffffffffffffffffffffffffffffffffffffff1673ffffffffffffffffffffffffffffffffffffffff1673ffffffffffffffffffffffffffffffffffffffff16815260200190815260200160002081905550614cb584600260003073ffffffffffffffffffffffffffffffffffffffff1673ffffffffffffffffffffffffffffffffffffffff16815260200190815260200160002054612cfd90919063ffffffff16565b600260003073ffffffffffffffffffffffffffffffffffffffff1673ffffffffffffffffffffffffffffffffffffffff168152602001908152602001600020819055505050505050565b614d1482600854612d7a90919063ffffffff16565b600881905550614d2f81600954612cfd90919063ffffffff16565b6009819055505050565b600081519050919050565b600082825260208201905092915050565b60005b83811015614d73578082015181840152602081019050614d58565b83811115614d82576000848401525b50505050565b6000601f19601f8301169050919050565b6000614da482614d39565b614dae8185614d44565b9350614dbe818560208601614d55565b614dc781614d88565b840191505092915050565b60006020820190508181036000830152614dec8184614d99565b905092915050565b600080fd5b600073ffffffffffffffffffffffffffffffffffffffff82169050919050565b6000614e2482614df9565b9050919050565b614e3481614e19565b8114614e3f57600080fd5b50565b600081359050614e5181614e2b565b92915050565b6000819050919050565b614e6a81614e57565b8114614e7557600080fd5b50565b600081359050614e8781614e61565b92915050565b60008060408385031215614ea457614ea3614df4565b5b6000614eb285828601614e42565b9250506020614ec385828601614e78565b9150509250929050565b60008115159050919050565b614ee281614ecd565b82525050565b6000602082019050614efd6000830184614ed9565b92915050565b614f0c81614e57565b82525050565b6000602082019050614f276000830184614f03565b92915050565b6000819050919050565b6000614f52614f4d614f4884614df9565b614f2d565b614df9565b9050919050565b6000614f6482614f37565b9050919050565b6000614f7682614f59565b9050919050565b614f8681614f6b565b82525050565b6000602082019050614fa16000830184614f7d565b92915050565b600080600060608486031215614fc057614fbf614df4565b5b6000614fce86828701614e42565b9350506020614fdf86828701614e42565b9250506040614ff086828701614e78565b9150509250925092565b600061ffff82169050919050565b61501181614ffa565b82525050565b600060808201905061502c6000830187615008565b6150396020830186615008565b6150466040830185615008565b6150536060830184615008565b95945050505050565b60006020828403121561507257615071614df4565b5b600061508084828501614e78565b91505092915050565b600060ff82169050919050565b61509f81615089565b82525050565b60006020820190506150ba6000830184615096565b92915050565b6000602082840312156150d6576150d5614df4565b5b60006150e484828501614e42565b91505092915050565b6150f681614ecd565b811461510157600080fd5b50565b600081359050615113816150ed565b92915050565b600080604083850312156151305761512f614df4565b5b600061513e85828601614e78565b925050602061514f85828601615104565b9150509250929050565b61516281614e19565b82525050565b600060208201905061517d6000830184615159565b92915050565b61518c81614ffa565b811461519757600080fd5b50565b6000813590506151a981615183565b92915050565b600080600080608085870312156151c9576151c8614df4565b5b60006151d78782880161519a565b94505060206151e88782880161519a565b93505060406151f98782880161519a565b925050606061520a8782880161519a565b91505092959194509250565b60006020828403121561522c5761522b614df4565b5b600061523a84828501615104565b91505092915050565b6000806040838503121561525a57615259614df4565b5b600061526885828601614e42565b925050602061527985828601614e42565b9150509250929050565b7f4e487b7100000000000000000000000000000000000000000000000000000000600052602260045260246000fd5b600060028204905060018216806152ca57607f821691505b602082108114156152de576152dd615283565b5b50919050565b7f416d6f756e74206d757374206265206c657373207468616e20746f74616c207260008201527f65666c656374696f6e7300000000000000000000000000000000000000000000602082015250565b6000615340602a83614d44565b915061534b826152e4565b604082019050919050565b6000602082019050818103600083015261536f81615333565b9050919050565b7f4f776e61626c653a2063616c6c6572206973206e6f7420746865206f776e6572600082015250565b60006153ac602083614d44565b91506153b782615376565b602082019050919050565b600060208201905081810360008301526153db8161539f565b9050919050565b7f4163636f756e7420697320616c7265616479206578636c756465640000000000600082015250565b6000615418601b83614d44565b9150615423826153e2565b602082019050919050565b600060208201905081810360008301526154478161540b565b9050919050565b7f4e487b7100000000000000000000000000000000000000000000000000000000600052603260045260246000fd5b7f4e487b7100000000000000000000000000000000000000000000000000000000600052601160045260246000fd5b60006154b782614e57565b91506154c283614e57565b9250828210156154d5576154d461547d565b5b828203905092915050565b7f4e487b7100000000000000000000000000000000000000000000000000000000600052603160045260246000fd5b600061551a82614e57565b91507fffffffffffffffffffffffffffffffffffffffffffffffffffffffffffffffff82141561554d5761554c61547d565b5b600182019050919050565b7f4578636c75646564206164647265737365732063616e6e6f742063616c6c207460008201527f6869732066756e6374696f6e0000000000000000000000000000000000000000602082015250565b60006155b4602c83614d44565b91506155bf82615558565b604082019050919050565b600060208201905081810360008301526155e3816155a7565b9050919050565b7f416d6f756e74206d757374206265206c657373207468616e20737570706c7900600082015250565b6000615620601f83614d44565b915061562b826155ea565b602082019050919050565b6000602082019050818103600083015261564f81615613565b9050919050565b7f544f4b454e3a2054686520726f7574657220616c72656164792068617320746860008201527f6174206164647265737300000000000000000000000000000000000000000000602082015250565b60006156b2602a83614d44565b91506156bd82615656565b604082019050919050565b600060208201905081810360008301526156e1816156a5565b9050919050565b6000815190506156f781614e2b565b92915050565b60006020828403121561571357615712614df4565b5b6000615721848285016156e8565b91505092915050565b600060408201905061573f6000830185615159565b61574c6020830184615159565b9392505050565b7f4f776e61626c653a206e6577206f776e657220697320746865207a65726f206160008201527f6464726573730000000000000000000000000000000000000000000000000000602082015250565b60006157af602683614d44565b91506157ba82615753565b604082019050919050565b600060208201905081810360008301526157de816157a2565b9050919050565b7f4e6f207275672070756c6c73203a290000000000000000000000000000000000600082015250565b600061581b600f83614d44565b9150615826826157e5565b602082019050919050565b6000602082019050818103600083015261584a8161580e565b9050919050565b60008151905061586081614e61565b92915050565b60006020828403121561587c5761587b614df4565b5b600061588a84828501615851565b91505092915050565b60006040820190506158a86000830185615159565b6158b56020830184614f03565b9392505050565b6000815190506158cb816150ed565b92915050565b6000602082840312156158e7576158e6614df4565b5b60006158f5848285016158bc565b91505092915050565b7f45524332303a20617070726f76652066726f6d20746865207a65726f2061646460008201527f7265737300000000000000000000000000000000000000000000000000000000602082015250565b600061595a602483614d44565b9150615965826158fe565b604082019050919050565b600060208201905081810360008301526159898161594d565b9050919050565b7f45524332303a20617070726f766520746f20746865207a65726f20616464726560008201527f7373000000000000000000000000000000000000000000000000000000000000602082015250565b60006159ec602283614d44565b91506159f782615990565b604082019050919050565b60006020820190508181036000830152615a1b816159df565b9050919050565b7f45524332303a207472616e736665722066726f6d20746865207a65726f20616460008201527f6472657373000000000000000000000000000000000000000000000000000000602082015250565b6000615a7e602583614d44565b9150615a8982615a22565b604082019050919050565b60006020820190508181036000830152615aad81615a71565b9050919050565b7f45524332303a207472616e7366657220746f20746865207a65726f206164647260008201527f6573730000000000000000000000000000000000000000000000000000000000602082015250565b6000615b10602383614d44565b9150615b1b82615ab4565b604082019050919050565b60006020820190508181036000830152615b3f81615b03565b9050919050565b7f5472616e7366657220616d6f756e74206d75737420626520677265617465722060008201527f7468616e207a65726f0000000000000000000000000000000000000000000000602082015250565b6000615ba2602983614d44565b9150615bad82615b46565b604082019050919050565b60006020820190508181036000830152615bd181615b95565b9050919050565b7f5472616e7366657220616d6f756e74206578636565647320746865206d61785460008201527f78416d6f756e742e000000000000000000000000000000000000000000000000602082015250565b6000615c34602883614d44565b9150615c3f82615bd8565b604082019050919050565b60006020820190508181036000830152615c6381615c27565b9050919050565b6000615c7582614ffa565b9150615c8083614ffa565b92508261ffff03821115615c9757615c9661547d565b5b828201905092915050565b7f4e487b7100000000000000000000000000000000000000000000000000000000600052601260045260246000fd5b6000615cdc82614e57565b9150615ce783614e57565b925082615cf757615cf6615ca2565b5b828204905092915050565b6000615d0d82614e57565b9150615d1883614e57565b9250827fffffffffffffffffffffffffffffffffffffffffffffffffffffffffffffffff03821115615d4d57615d4c61547d565b5b828201905092915050565b6000615d6382614e57565b9150615d6e83614e57565b9250817fffffffffffffffffffffffffffffffffffffffffffffffffffffffffffffffff0483118215151615615da757615da661547d565b5b828202905092915050565b6000606082019050615dc76000830186614f03565b615dd46020830185614f03565b615de16040830184614f03565b949350505050565b7f4e487b7100000000000000000000000000000000000000000000000000000000600052604160045260246000fd5b6000819050919050565b6000615e3d615e38615e3384615e18565b614f2d565b614e57565b9050919050565b615e4d81615e22565b82525050565b600081519050919050565b600082825260208201905092915050565b6000819050602082019050919050565b615e8881614e19565b82525050565b6000615e9a8383615e7f565b60208301905092915050565b6000602082019050919050565b6000615ebe82615e53565b615ec88185615e5e565b9350615ed383615e6f565b8060005b83811015615f04578151615eeb8882615e8e565b9750615ef683615ea6565b925050600181019050615ed7565b5085935050505092915050565b600060a082019050615f266000830188614f03565b615f336020830187615e44565b8181036040830152615f458186615eb3565b9050615f546060830185615159565b615f616080830184614f03565b9695505050505050565b600060c082019050615f806000830189615159565b615f8d6020830188614f03565b615f9a6040830187615e44565b615fa76060830186615e44565b615fb46080830185615159565b615fc160a0830184614f03565b979650505050505050565b600080600060608486031215615fe557615fe4614df4565b5b6000615ff386828701615851565b935050602061600486828701615851565b925050604061601586828701615851565b915050925092509256fe45524332303a207472616e7366657220616d6f756e74206578636565647320616c6c6f77616e636545524332303a2064656372656173656420616c6c6f77616e63652062656c6f77207a65726fa2646970667358221220526341bd9c92feddb3f8efbf07431a9f358fdd33e42fb4fcf3d3957760cf7b0564736f6c63430008090033",
  "linkReferences": {},
  "deployedLinkReferences": {}
}