{
  "_format": "hh-sol-artifact-1",
  "contractName": "Mollacoin",
  "sourceName": "contracts/MOC.sol",
  "abi": [
    {
      "inputs": [],
      "stateMutability": "nonpayable",
      "type": "constructor"
    },
    {
      "anonymous": false,
      "inputs": [
        {
          "indexed": true,
          "internalType": "address",
          "name": "owner",
          "type": "address"
        },
        {
          "indexed": true,
          "internalType": "address",
          "name": "spender",
          "type": "address"
        },
        {
          "indexed": false,
          "internalType": "uint256",
          "name": "value",
          "type": "uint256"
        }
      ],
      "name": "Approval",
      "type": "event"
    },
    {
      "anonymous": false,
      "inputs": [
        {
          "indexed": true,
          "internalType": "address",
          "name": "previousOwner",
          "type": "address"
        },
        {
          "indexed": true,
          "internalType": "address",
          "name": "newOwner",
          "type": "address"
        }
      ],
      "name": "OwnershipTransferred",
      "type": "event"
    },
    {
      "anonymous": false,
      "inputs": [
        {
          "indexed": true,
          "internalType": "address",
          "name": "from",
          "type": "address"
        },
        {
          "indexed": true,
          "internalType": "address",
          "name": "to",
          "type": "address"
        },
        {
          "indexed": false,
          "internalType": "uint256",
          "name": "value",
          "type": "uint256"
        }
      ],
      "name": "Transfer",
      "type": "event"
    },
    {
      "inputs": [],
      "name": "DOMAIN_SEPARATOR",
      "outputs": [
        {
          "internalType": "bytes32",
          "name": "",
          "type": "bytes32"
        }
      ],
      "stateMutability": "view",
      "type": "function"
    },
    {
      "inputs": [
        {
          "internalType": "address",
          "name": "owner",
          "type": "address"
        },
        {
          "internalType": "address",
          "name": "spender",
          "type": "address"
        }
      ],
      "name": "allowance",
      "outputs": [
        {
          "internalType": "uint256",
          "name": "",
          "type": "uint256"
        }
      ],
      "stateMutability": "view",
      "type": "function"
    },
    {
      "inputs": [
        {
          "internalType": "address",
          "name": "spender",
          "type": "address"
        },
        {
          "internalType": "uint256",
          "name": "amount",
          "type": "uint256"
        }
      ],
      "name": "approve",
      "outputs": [
        {
          "internalType": "bool",
          "name": "",
          "type": "bool"
        }
      ],
      "stateMutability": "nonpayable",
      "type": "function"
    },
    {
      "inputs": [
        {
          "internalType": "address",
          "name": "account",
          "type": "address"
        }
      ],
      "name": "balanceOf",
      "outputs": [
        {
          "internalType": "uint256",
          "name": "",
          "type": "uint256"
        }
      ],
      "stateMutability": "view",
      "type": "function"
    },
    {
      "inputs": [
        {
          "internalType": "uint256",
          "name": "amount",
          "type": "uint256"
        }
      ],
      "name": "burn",
      "outputs": [],
      "stateMutability": "nonpayable",
      "type": "function"
    },
    {
      "inputs": [
        {
          "internalType": "address",
          "name": "account",
          "type": "address"
        },
        {
          "internalType": "uint256",
          "name": "amount",
          "type": "uint256"
        }
      ],
      "name": "burnFrom",
      "outputs": [],
      "stateMutability": "nonpayable",
      "type": "function"
    },
    {
      "inputs": [],
      "name": "decimals",
      "outputs": [
        {
          "internalType": "uint8",
          "name": "",
          "type": "uint8"
        }
      ],
      "stateMutability": "view",
      "type": "function"
    },
    {
      "inputs": [
        {
          "internalType": "address",
          "name": "spender",
          "type": "address"
        },
        {
          "internalType": "uint256",
          "name": "subtractedValue",
          "type": "uint256"
        }
      ],
      "name": "decreaseAllowance",
      "outputs": [
        {
          "internalType": "bool",
          "name": "",
          "type": "bool"
        }
      ],
      "stateMutability": "nonpayable",
      "type": "function"
    },
    {
      "inputs": [
        {
          "internalType": "address",
          "name": "spender",
          "type": "address"
        },
        {
          "internalType": "uint256",
          "name": "addedValue",
          "type": "uint256"
        }
      ],
      "name": "increaseAllowance",
      "outputs": [
        {
          "internalType": "bool",
          "name": "",
          "type": "bool"
        }
      ],
      "stateMutability": "nonpayable",
      "type": "function"
    },
    {
      "inputs": [
        {
          "internalType": "address",
          "name": "to",
          "type": "address"
        },
        {
          "internalType": "uint256",
          "name": "amount",
          "type": "uint256"
        }
      ],
      "name": "mint",
      "outputs": [],
      "stateMutability": "nonpayable",
      "type": "function"
    },
    {
      "inputs": [],
      "name": "name",
      "outputs": [
        {
          "internalType": "string",
          "name": "",
          "type": "string"
        }
      ],
      "stateMutability": "view",
      "type": "function"
    },
    {
      "inputs": [
        {
          "internalType": "address",
          "name": "owner",
          "type": "address"
        }
      ],
      "name": "nonces",
      "outputs": [
        {
          "internalType": "uint256",
          "name": "",
          "type": "uint256"
        }
      ],
      "stateMutability": "view",
      "type": "function"
    },
    {
      "inputs": [],
      "name": "owner",
      "outputs": [
        {
          "internalType": "address",
          "name": "",
          "type": "address"
        }
      ],
      "stateMutability": "view",
      "type": "function"
    },
    {
      "inputs": [
        {
          "internalType": "address",
          "name": "owner",
          "type": "address"
        },
        {
          "internalType": "address",
          "name": "spender",
          "type": "address"
        },
        {
          "internalType": "uint256",
          "name": "value",
          "type": "uint256"
        },
        {
          "internalType": "uint256",
          "name": "deadline",
          "type": "uint256"
        },
        {
          "internalType": "uint8",
          "name": "v",
          "type": "uint8"
        },
        {
          "internalType": "bytes32",
          "name": "r",
          "type": "bytes32"
        },
        {
          "internalType": "bytes32",
          "name": "s",
          "type": "bytes32"
        }
      ],
      "name": "permit",
      "outputs": [],
      "stateMutability": "nonpayable",
      "type": "function"
    },
    {
      "inputs": [],
      "name": "renounceOwnership",
      "outputs": [],
      "stateMutability": "nonpayable",
      "type": "function"
    },
    {
      "inputs": [],
      "name": "symbol",
      "outputs": [
        {
          "internalType": "string",
          "name": "",
          "type": "string"
        }
      ],
      "stateMutability": "view",
      "type": "function"
    },
    {
      "inputs": [],
      "name": "totalSupply",
      "outputs": [
        {
          "internalType": "uint256",
          "name": "",
          "type": "uint256"
        }
      ],
      "stateMutability": "view",
      "type": "function"
    },
    {
      "inputs": [
        {
          "internalType": "address",
          "name": "recipient",
          "type": "address"
        },
        {
          "internalType": "uint256",
          "name": "amount",
          "type": "uint256"
        }
      ],
      "name": "transfer",
      "outputs": [
        {
          "internalType": "bool",
          "name": "",
          "type": "bool"
        }
      ],
      "stateMutability": "nonpayable",
      "type": "function"
    },
    {
      "inputs": [
        {
          "internalType": "address",
          "name": "sender",
          "type": "address"
        },
        {
          "internalType": "address",
          "name": "recipient",
          "type": "address"
        },
        {
          "internalType": "uint256",
          "name": "amount",
          "type": "uint256"
        }
      ],
      "name": "transferFrom",
      "outputs": [
        {
          "internalType": "bool",
          "name": "",
          "type": "bool"
        }
      ],
      "stateMutability": "nonpayable",
      "type": "function"
    },
    {
      "inputs": [
        {
          "internalType": "address",
          "name": "newOwner",
          "type": "address"
        }
      ],
      "name": "transferOwnership",
      "outputs": [],
      "stateMutability": "nonpayable",
      "type": "function"
    }
  ],
  "bytecode": "0x6101606040527f6e71edae12b1b97f4d1f60370fef10105fa2faae0126114a169c64845d6126c9610140908152503480156200003a57600080fd5b506040518060400160405280600981526020017f4d6f6c6c61636f696e0000000000000000000000000000000000000000000000815250806040518060400160405280600181526020017f31000000000000000000000000000000000000000000000000000000000000008152506040518060400160405280600981526020017f4d6f6c6c61636f696e00000000000000000000000000000000000000000000008152506040518060400160405280600381526020017f4d4f43000000000000000000000000000000000000000000000000000000000081525081600390805190602001906200012c929190620004fa565b50806004908051906020019062000145929190620004fa565b505050620001686200015c6200026460201b60201c565b6200026c60201b60201c565b60008280519060200120905060008280519060200120905060007f8b73c3c69bb8fe3d512ecc4cf759cc79239f7b179b0ffacaa9a75d522b39400f90508260e081815250508161010081815250504660a08181525050620001d18184846200033260201b60201c565b608081815250503073ffffffffffffffffffffffffffffffffffffffff1660c08173ffffffffffffffffffffffffffffffffffffffff1660601b815250508061012081815250505050505050506200025e33620002336200036e60201b60201c565b600a62000241919062000769565b633b9aca00620002529190620008a6565b6200037760201b60201c565b62000a26565b600033905090565b6000600560009054906101000a900473ffffffffffffffffffffffffffffffffffffffff16905081600560006101000a81548173ffffffffffffffffffffffffffffffffffffffff021916908373ffffffffffffffffffffffffffffffffffffffff1602179055508173ffffffffffffffffffffffffffffffffffffffff168173ffffffffffffffffffffffffffffffffffffffff167f8be0079c531659141344cd1fd0a4f28419497f9722a3daafe3b4186f6b6457e060405160405180910390a35050565b600083838346306040516020016200034f95949392919062000604565b6040516020818303038152906040528051906020012090509392505050565b60006012905090565b600073ffffffffffffffffffffffffffffffffffffffff168273ffffffffffffffffffffffffffffffffffffffff161415620003ea576040517f08c379a0000000000000000000000000000000000000000000000000000000008152600401620003e19062000661565b60405180910390fd5b620003fe60008383620004f060201b60201c565b8060026000828254620004129190620006b1565b92505081905550806000808473ffffffffffffffffffffffffffffffffffffffff1673ffffffffffffffffffffffffffffffffffffffff1681526020019081526020016000206000828254620004699190620006b1565b925050819055508173ffffffffffffffffffffffffffffffffffffffff16600073ffffffffffffffffffffffffffffffffffffffff167fddf252ad1be2c89b69c2b068fc378daa952ba7f163c4a11628f55a4df523b3ef83604051620004d0919062000683565b60405180910390a3620004ec60008383620004f560201b60201c565b5050565b505050565b505050565b82805462000508906200095c565b90600052602060002090601f0160209004810192826200052c576000855562000578565b82601f106200054757805160ff191683800117855562000578565b8280016001018555821562000578579182015b82811115620005775782518255916020019190600101906200055a565b5b5090506200058791906200058b565b5090565b5b80821115620005a65760008160009055506001016200058c565b5090565b620005b58162000907565b82525050565b620005c6816200091b565b82525050565b6000620005db601f83620006a0565b9150620005e882620009fd565b602082019050919050565b620005fe8162000945565b82525050565b600060a0820190506200061b6000830188620005bb565b6200062a6020830187620005bb565b620006396040830186620005bb565b620006486060830185620005f3565b620006576080830184620005aa565b9695505050505050565b600060208201905081810360008301526200067c81620005cc565b9050919050565b60006020820190506200069a6000830184620005f3565b92915050565b600082825260208201905092915050565b6000620006be8262000945565b9150620006cb8362000945565b9250827fffffffffffffffffffffffffffffffffffffffffffffffffffffffffffffffff0382111562000703576200070262000992565b5b828201905092915050565b6000808291508390505b6001851115620007605780860481111562000738576200073762000992565b5b6001851615620007485780820291505b80810290506200075885620009f0565b945062000718565b94509492505050565b6000620007768262000945565b915062000783836200094f565b9250620007b27fffffffffffffffffffffffffffffffffffffffffffffffffffffffffffffffff8484620007ba565b905092915050565b600082620007cc57600190506200089f565b81620007dc57600090506200089f565b8160018114620007f55760028114620008005762000836565b60019150506200089f565b60ff84111562000815576200081462000992565b5b8360020a9150848211156200082f576200082e62000992565b5b506200089f565b5060208310610133831016604e8410600b8410161715620008705782820a9050838111156200086a576200086962000992565b5b6200089f565b6200087f84848460016200070e565b9250905081840481111562000899576200089862000992565b5b81810290505b9392505050565b6000620008b38262000945565b9150620008c08362000945565b9250817fffffffffffffffffffffffffffffffffffffffffffffffffffffffffffffffff0483118215151615620008fc57620008fb62000992565b5b828202905092915050565b6000620009148262000925565b9050919050565b6000819050919050565b600073ffffffffffffffffffffffffffffffffffffffff82169050919050565b6000819050919050565b600060ff82169050919050565b600060028204905060018216806200097557607f821691505b602082108114156200098c576200098b620009c1565b5b50919050565b7f4e487b7100000000000000000000000000000000000000000000000000000000600052601160045260246000fd5b7f4e487b7100000000000000000000000000000000000000000000000000000000600052602260045260246000fd5b60008160011c9050919050565b7f45524332303a206d696e7420746f20746865207a65726f206164647265737300600082015250565b60805160a05160c05160601c60e051610100516101205161014051612d7462000a846000396000610ab601526000611232015260006112740152600061125301526000611188015260006111de015260006112070152612d746000f3fe608060405234801561001057600080fd5b506004361061012c5760003560e01c8063715018a6116100ad578063a457c2d711610071578063a457c2d714610333578063a9059cbb14610363578063d505accf14610393578063dd62ed3e146103af578063f2fde38b146103df5761012c565b8063715018a6146102a157806379cc6790146102ab5780637ecebe00146102c75780638da5cb5b146102f757806395d89b41146103155761012c565b80633644e515116100f45780633644e515146101eb578063395093511461020957806340c10f191461023957806342966c681461025557806370a08231146102715761012c565b806306fdde0314610131578063095ea7b31461014f57806318160ddd1461017f57806323b872dd1461019d578063313ce567146101cd575b600080fd5b6101396103fb565b604051610146919061231a565b60405180910390f35b61016960048036038101906101649190611ddd565b61048d565b60405161017691906121eb565b60405180910390f35b6101876104ab565b604051610194919061259c565b60405180910390f35b6101b760048036038101906101b29190611cf0565b6104b5565b6040516101c491906121eb565b60405180910390f35b6101d56105ad565b6040516101e291906125b7565b60405180910390f35b6101f36105b6565b6040516102009190612206565b60405180910390f35b610223600480360381019061021e9190611ddd565b6105c5565b60405161023091906121eb565b60405180910390f35b610253600480360381019061024e9190611ddd565b610671565b005b61026f600480360381019061026a9190611e19565b6106fb565b005b61028b60048036038101906102869190611c8b565b61070f565b604051610298919061259c565b60405180910390f35b6102a9610757565b005b6102c560048036038101906102c09190611ddd565b6107df565b005b6102e160048036038101906102dc9190611c8b565b61085a565b6040516102ee919061259c565b60405180910390f35b6102ff6108aa565b60405161030c91906121d0565b60405180910390f35b61031d6108d4565b60405161032a919061231a565b60405180910390f35b61034d60048036038101906103489190611ddd565b610966565b60405161035a91906121eb565b60405180910390f35b61037d60048036038101906103789190611ddd565b610a51565b60405161038a91906121eb565b60405180910390f35b6103ad60048036038101906103a89190611d3f565b610a6f565b005b6103c960048036038101906103c49190611cb4565b610bb1565b6040516103d6919061259c565b60405180910390f35b6103f960048036038101906103f49190611c8b565b610c38565b005b60606003805461040a90612715565b80601f016020809104026020016040519081016040528092919081815260200182805461043690612715565b80156104835780601f1061045857610100808354040283529160200191610483565b820191906000526020600020905b81548152906001019060200180831161046657829003601f168201915b5050505050905090565b60006104a161049a610d30565b8484610d38565b6001905092915050565b6000600254905090565b60006104c2848484610f03565b6000600160008673ffffffffffffffffffffffffffffffffffffffff1673ffffffffffffffffffffffffffffffffffffffff168152602001908152602001600020600061050d610d30565b73ffffffffffffffffffffffffffffffffffffffff1673ffffffffffffffffffffffffffffffffffffffff1681526020019081526020016000205490508281101561058d576040517f08c379a00000000000000000000000000000000000000000000000000000000081526004016105849061249c565b60405180910390fd5b6105a185610599610d30565b858403610d38565b60019150509392505050565b60006012905090565b60006105c0611184565b905090565b60006106676105d2610d30565b8484600160006105e0610d30565b73ffffffffffffffffffffffffffffffffffffffff1673ffffffffffffffffffffffffffffffffffffffff16815260200190815260200160002060008873ffffffffffffffffffffffffffffffffffffffff1673ffffffffffffffffffffffffffffffffffffffff1681526020019081526020016000205461066291906125f9565b610d38565b6001905092915050565b610679610d30565b73ffffffffffffffffffffffffffffffffffffffff166106976108aa565b73ffffffffffffffffffffffffffffffffffffffff16146106ed576040517f08c379a00000000000000000000000000000000000000000000000000000000081526004016106e4906124bc565b60405180910390fd5b6106f7828261129e565b5050565b61070c610706610d30565b826113fe565b50565b60008060008373ffffffffffffffffffffffffffffffffffffffff1673ffffffffffffffffffffffffffffffffffffffff168152602001908152602001600020549050919050565b61075f610d30565b73ffffffffffffffffffffffffffffffffffffffff1661077d6108aa565b73ffffffffffffffffffffffffffffffffffffffff16146107d3576040517f08c379a00000000000000000000000000000000000000000000000000000000081526004016107ca906124bc565b60405180910390fd5b6107dd60006115d5565b565b60006107f2836107ed610d30565b610bb1565b905081811015610837576040517f08c379a000000000000000000000000000000000000000000000000000000000815260040161082e906124dc565b60405180910390fd5b61084b83610843610d30565b848403610d38565b61085583836113fe565b505050565b60006108a3600660008473ffffffffffffffffffffffffffffffffffffffff1673ffffffffffffffffffffffffffffffffffffffff16815260200190815260200160002061169b565b9050919050565b6000600560009054906101000a900473ffffffffffffffffffffffffffffffffffffffff16905090565b6060600480546108e390612715565b80601f016020809104026020016040519081016040528092919081815260200182805461090f90612715565b801561095c5780601f106109315761010080835404028352916020019161095c565b820191906000526020600020905b81548152906001019060200180831161093f57829003601f168201915b5050505050905090565b60008060016000610975610d30565b73ffffffffffffffffffffffffffffffffffffffff1673ffffffffffffffffffffffffffffffffffffffff16815260200190815260200160002060008573ffffffffffffffffffffffffffffffffffffffff1673ffffffffffffffffffffffffffffffffffffffff16815260200190815260200160002054905082811015610a32576040517f08c379a0000000000000000000000000000000000000000000000000000000008152600401610a299061255c565b60405180910390fd5b610a46610a3d610d30565b85858403610d38565b600191505092915050565b6000610a65610a5e610d30565b8484610f03565b6001905092915050565b83421115610ab2576040517f08c379a0000000000000000000000000000000000000000000000000000000008152600401610aa9906123fc565b60405180910390fd5b60007f0000000000000000000000000000000000000000000000000000000000000000888888610ae18c6116a9565b89604051602001610af796959493929190612221565b6040516020818303038152906040528051906020012090506000610b1a82611707565b90506000610b2a82878787611721565b90508973ffffffffffffffffffffffffffffffffffffffff168173ffffffffffffffffffffffffffffffffffffffff1614610b9a576040517f08c379a0000000000000000000000000000000000000000000000000000000008152600401610b919061247c565b60405180910390fd5b610ba58a8a8a610d38565b50505050505050505050565b6000600160008473ffffffffffffffffffffffffffffffffffffffff1673ffffffffffffffffffffffffffffffffffffffff16815260200190815260200160002060008373ffffffffffffffffffffffffffffffffffffffff1673ffffffffffffffffffffffffffffffffffffffff16815260200190815260200160002054905092915050565b610c40610d30565b73ffffffffffffffffffffffffffffffffffffffff16610c5e6108aa565b73ffffffffffffffffffffffffffffffffffffffff1614610cb4576040517f08c379a0000000000000000000000000000000000000000000000000000000008152600401610cab906124bc565b60405180910390fd5b600073ffffffffffffffffffffffffffffffffffffffff168173ffffffffffffffffffffffffffffffffffffffff161415610d24576040517f08c379a0000000000000000000000000000000000000000000000000000000008152600401610d1b906123bc565b60405180910390fd5b610d2d816115d5565b50565b600033905090565b600073ffffffffffffffffffffffffffffffffffffffff168373ffffffffffffffffffffffffffffffffffffffff161415610da8576040517f08c379a0000000000000000000000000000000000000000000000000000000008152600401610d9f9061253c565b60405180910390fd5b600073ffffffffffffffffffffffffffffffffffffffff168273ffffffffffffffffffffffffffffffffffffffff161415610e18576040517f08c379a0000000000000000000000000000000000000000000000000000000008152600401610e0f906123dc565b60405180910390fd5b80600160008573ffffffffffffffffffffffffffffffffffffffff1673ffffffffffffffffffffffffffffffffffffffff16815260200190815260200160002060008473ffffffffffffffffffffffffffffffffffffffff1673ffffffffffffffffffffffffffffffffffffffff168152602001908152602001600020819055508173ffffffffffffffffffffffffffffffffffffffff168373ffffffffffffffffffffffffffffffffffffffff167f8c5be1e5ebec7d5bd14f71427d1e84f3dd0314c0f7b2291e5b200ac8c7c3b92583604051610ef6919061259c565b60405180910390a3505050565b600073ffffffffffffffffffffffffffffffffffffffff168373ffffffffffffffffffffffffffffffffffffffff161415610f73576040517f08c379a0000000000000000000000000000000000000000000000000000000008152600401610f6a9061251c565b60405180910390fd5b600073ffffffffffffffffffffffffffffffffffffffff168273ffffffffffffffffffffffffffffffffffffffff161415610fe3576040517f08c379a0000000000000000000000000000000000000000000000000000000008152600401610fda9061235c565b60405180910390fd5b610fee83838361174c565b60008060008573ffffffffffffffffffffffffffffffffffffffff1673ffffffffffffffffffffffffffffffffffffffff16815260200190815260200160002054905081811015611074576040517f08c379a000000000000000000000000000000000000000000000000000000000815260040161106b9061241c565b60405180910390fd5b8181036000808673ffffffffffffffffffffffffffffffffffffffff1673ffffffffffffffffffffffffffffffffffffffff16815260200190815260200160002081905550816000808573ffffffffffffffffffffffffffffffffffffffff1673ffffffffffffffffffffffffffffffffffffffff168152602001908152602001600020600082825461110791906125f9565b925050819055508273ffffffffffffffffffffffffffffffffffffffff168473ffffffffffffffffffffffffffffffffffffffff167fddf252ad1be2c89b69c2b068fc378daa952ba7f163c4a11628f55a4df523b3ef8460405161116b919061259c565b60405180910390a361117e848484611751565b50505050565b60007f000000000000000000000000000000000000000000000000000000000000000073ffffffffffffffffffffffffffffffffffffffff163073ffffffffffffffffffffffffffffffffffffffff1614801561120057507f000000000000000000000000000000000000000000000000000000000000000046145b1561122d577f0000000000000000000000000000000000000000000000000000000000000000905061129b565b6112987f00000000000000000000000000000000000000000000000000000000000000007f00000000000000000000000000000000000000000000000000000000000000007f0000000000000000000000000000000000000000000000000000000000000000611756565b90505b90565b600073ffffffffffffffffffffffffffffffffffffffff168273ffffffffffffffffffffffffffffffffffffffff16141561130e576040517f08c379a00000000000000000000000000000000000000000000000000000000081526004016113059061257c565b60405180910390fd5b61131a6000838361174c565b806002600082825461132c91906125f9565b92505081905550806000808473ffffffffffffffffffffffffffffffffffffffff1673ffffffffffffffffffffffffffffffffffffffff168152602001908152602001600020600082825461138191906125f9565b925050819055508173ffffffffffffffffffffffffffffffffffffffff16600073ffffffffffffffffffffffffffffffffffffffff167fddf252ad1be2c89b69c2b068fc378daa952ba7f163c4a11628f55a4df523b3ef836040516113e6919061259c565b60405180910390a36113fa60008383611751565b5050565b600073ffffffffffffffffffffffffffffffffffffffff168273ffffffffffffffffffffffffffffffffffffffff16141561146e576040517f08c379a0000000000000000000000000000000000000000000000000000000008152600401611465906124fc565b60405180910390fd5b61147a8260008361174c565b60008060008473ffffffffffffffffffffffffffffffffffffffff1673ffffffffffffffffffffffffffffffffffffffff16815260200190815260200160002054905081811015611500576040517f08c379a00000000000000000000000000000000000000000000000000000000081526004016114f79061237c565b60405180910390fd5b8181036000808573ffffffffffffffffffffffffffffffffffffffff1673ffffffffffffffffffffffffffffffffffffffff168152602001908152602001600020819055508160026000828254611557919061264f565b92505081905550600073ffffffffffffffffffffffffffffffffffffffff168373ffffffffffffffffffffffffffffffffffffffff167fddf252ad1be2c89b69c2b068fc378daa952ba7f163c4a11628f55a4df523b3ef846040516115bc919061259c565b60405180910390a36115d083600084611751565b505050565b6000600560009054906101000a900473ffffffffffffffffffffffffffffffffffffffff16905081600560006101000a81548173ffffffffffffffffffffffffffffffffffffffff021916908373ffffffffffffffffffffffffffffffffffffffff1602179055508173ffffffffffffffffffffffffffffffffffffffff168173ffffffffffffffffffffffffffffffffffffffff167f8be0079c531659141344cd1fd0a4f28419497f9722a3daafe3b4186f6b6457e060405160405180910390a35050565b600081600001549050919050565b600080600660008473ffffffffffffffffffffffffffffffffffffffff1673ffffffffffffffffffffffffffffffffffffffff16815260200190815260200160002090506116f68161169b565b915061170181611790565b50919050565b600061171a611714611184565b836117a6565b9050919050565b6000806000611732878787876117d9565b9150915061173f816118e6565b8192505050949350505050565b505050565b505050565b60008383834630604051602001611771959493929190612282565b6040516020818303038152906040528051906020012090509392505050565b6001816000016000828254019250508190555050565b600082826040516020016117bb929190612199565b60405160208183030381529060405280519060200120905092915050565b6000807f7fffffffffffffffffffffffffffffff5d576e7357a4501ddfe92f46681b20a08360001c11156118145760006003915091506118dd565b601b8560ff161415801561182c5750601c8560ff1614155b1561183e5760006004915091506118dd565b60006001878787876040516000815260200160405260405161186394939291906122d5565b6020604051602081039080840390855afa158015611885573d6000803e3d6000fd5b505050602060405103519050600073ffffffffffffffffffffffffffffffffffffffff168173ffffffffffffffffffffffffffffffffffffffff1614156118d4576000600192509250506118dd565b80600092509250505b94509492505050565b60006004811115611920577f4e487b7100000000000000000000000000000000000000000000000000000000600052602160045260246000fd5b816004811115611959577f4e487b7100000000000000000000000000000000000000000000000000000000600052602160045260246000fd5b141561196457611c34565b6001600481111561199e577f4e487b7100000000000000000000000000000000000000000000000000000000600052602160045260246000fd5b8160048111156119d7577f4e487b7100000000000000000000000000000000000000000000000000000000600052602160045260246000fd5b1415611a18576040517f08c379a0000000000000000000000000000000000000000000000000000000008152600401611a0f9061233c565b60405180910390fd5b60026004811115611a52577f4e487b7100000000000000000000000000000000000000000000000000000000600052602160045260246000fd5b816004811115611a8b577f4e487b7100000000000000000000000000000000000000000000000000000000600052602160045260246000fd5b1415611acc576040517f08c379a0000000000000000000000000000000000000000000000000000000008152600401611ac39061239c565b60405180910390fd5b60036004811115611b06577f4e487b7100000000000000000000000000000000000000000000000000000000600052602160045260246000fd5b816004811115611b3f577f4e487b7100000000000000000000000000000000000000000000000000000000600052602160045260246000fd5b1415611b80576040517f08c379a0000000000000000000000000000000000000000000000000000000008152600401611b779061243c565b60405180910390fd5b600480811115611bb9577f4e487b7100000000000000000000000000000000000000000000000000000000600052602160045260246000fd5b816004811115611bf2577f4e487b7100000000000000000000000000000000000000000000000000000000600052602160045260246000fd5b1415611c33576040517f08c379a0000000000000000000000000000000000000000000000000000000008152600401611c2a9061245c565b60405180910390fd5b5b50565b600081359050611c4681612ce2565b92915050565b600081359050611c5b81612cf9565b92915050565b600081359050611c7081612d10565b92915050565b600081359050611c8581612d27565b92915050565b600060208284031215611c9d57600080fd5b6000611cab84828501611c37565b91505092915050565b60008060408385031215611cc757600080fd5b6000611cd585828601611c37565b9250506020611ce685828601611c37565b9150509250929050565b600080600060608486031215611d0557600080fd5b6000611d1386828701611c37565b9350506020611d2486828701611c37565b9250506040611d3586828701611c61565b9150509250925092565b600080600080600080600060e0888a031215611d5a57600080fd5b6000611d688a828b01611c37565b9750506020611d798a828b01611c37565b9650506040611d8a8a828b01611c61565b9550506060611d9b8a828b01611c61565b9450506080611dac8a828b01611c76565b93505060a0611dbd8a828b01611c4c565b92505060c0611dce8a828b01611c4c565b91505092959891949750929550565b60008060408385031215611df057600080fd5b6000611dfe85828601611c37565b9250506020611e0f85828601611c61565b9150509250929050565b600060208284031215611e2b57600080fd5b6000611e3984828501611c61565b91505092915050565b611e4b81612683565b82525050565b611e5a81612695565b82525050565b611e69816126a1565b82525050565b611e80611e7b826126a1565b612747565b82525050565b6000611e91826125d2565b611e9b81856125dd565b9350611eab8185602086016126e2565b611eb4816127af565b840191505092915050565b6000611ecc6018836125dd565b9150611ed7826127c0565b602082019050919050565b6000611eef6023836125dd565b9150611efa826127e9565b604082019050919050565b6000611f126022836125dd565b9150611f1d82612838565b604082019050919050565b6000611f35601f836125dd565b9150611f4082612887565b602082019050919050565b6000611f586026836125dd565b9150611f63826128b0565b604082019050919050565b6000611f7b6022836125dd565b9150611f86826128ff565b604082019050919050565b6000611f9e6002836125ee565b9150611fa98261294e565b600282019050919050565b6000611fc1601d836125dd565b9150611fcc82612977565b602082019050919050565b6000611fe46026836125dd565b9150611fef826129a0565b604082019050919050565b60006120076022836125dd565b9150612012826129ef565b604082019050919050565b600061202a6022836125dd565b915061203582612a3e565b604082019050919050565b600061204d601e836125dd565b915061205882612a8d565b602082019050919050565b60006120706028836125dd565b915061207b82612ab6565b604082019050919050565b60006120936020836125dd565b915061209e82612b05565b602082019050919050565b60006120b66024836125dd565b91506120c182612b2e565b604082019050919050565b60006120d96021836125dd565b91506120e482612b7d565b604082019050919050565b60006120fc6025836125dd565b915061210782612bcc565b604082019050919050565b600061211f6024836125dd565b915061212a82612c1b565b604082019050919050565b60006121426025836125dd565b915061214d82612c6a565b604082019050919050565b6000612165601f836125dd565b915061217082612cb9565b602082019050919050565b612184816126cb565b82525050565b612193816126d5565b82525050565b60006121a482611f91565b91506121b08285611e6f565b6020820191506121c08284611e6f565b6020820191508190509392505050565b60006020820190506121e56000830184611e42565b92915050565b60006020820190506122006000830184611e51565b92915050565b600060208201905061221b6000830184611e60565b92915050565b600060c0820190506122366000830189611e60565b6122436020830188611e42565b6122506040830187611e42565b61225d606083018661217b565b61226a608083018561217b565b61227760a083018461217b565b979650505050505050565b600060a0820190506122976000830188611e60565b6122a46020830187611e60565b6122b16040830186611e60565b6122be606083018561217b565b6122cb6080830184611e42565b9695505050505050565b60006080820190506122ea6000830187611e60565b6122f7602083018661218a565b6123046040830185611e60565b6123116060830184611e60565b95945050505050565b600060208201905081810360008301526123348184611e86565b905092915050565b6000602082019050818103600083015261235581611ebf565b9050919050565b6000602082019050818103600083015261237581611ee2565b9050919050565b6000602082019050818103600083015261239581611f05565b9050919050565b600060208201905081810360008301526123b581611f28565b9050919050565b600060208201905081810360008301526123d581611f4b565b9050919050565b600060208201905081810360008301526123f581611f6e565b9050919050565b6000602082019050818103600083015261241581611fb4565b9050919050565b6000602082019050818103600083015261243581611fd7565b9050919050565b6000602082019050818103600083015261245581611ffa565b9050919050565b600060208201905081810360008301526124758161201d565b9050919050565b6000602082019050818103600083015261249581612040565b9050919050565b600060208201905081810360008301526124b581612063565b9050919050565b600060208201905081810360008301526124d581612086565b9050919050565b600060208201905081810360008301526124f5816120a9565b9050919050565b60006020820190508181036000830152612515816120cc565b9050919050565b60006020820190508181036000830152612535816120ef565b9050919050565b6000602082019050818103600083015261255581612112565b9050919050565b6000602082019050818103600083015261257581612135565b9050919050565b6000602082019050818103600083015261259581612158565b9050919050565b60006020820190506125b1600083018461217b565b92915050565b60006020820190506125cc600083018461218a565b92915050565b600081519050919050565b600082825260208201905092915050565b600081905092915050565b6000612604826126cb565b915061260f836126cb565b9250827fffffffffffffffffffffffffffffffffffffffffffffffffffffffffffffffff0382111561264457612643612751565b5b828201905092915050565b600061265a826126cb565b9150612665836126cb565b92508282101561267857612677612751565b5b828203905092915050565b600061268e826126ab565b9050919050565b60008115159050919050565b6000819050919050565b600073ffffffffffffffffffffffffffffffffffffffff82169050919050565b6000819050919050565b600060ff82169050919050565b60005b838110156127005780820151818401526020810190506126e5565b8381111561270f576000848401525b50505050565b6000600282049050600182168061272d57607f821691505b6020821081141561274157612740612780565b5b50919050565b6000819050919050565b7f4e487b7100000000000000000000000000000000000000000000000000000000600052601160045260246000fd5b7f4e487b7100000000000000000000000000000000000000000000000000000000600052602260045260246000fd5b6000601f19601f8301169050919050565b7f45434453413a20696e76616c6964207369676e61747572650000000000000000600082015250565b7f45524332303a207472616e7366657220746f20746865207a65726f206164647260008201527f6573730000000000000000000000000000000000000000000000000000000000602082015250565b7f45524332303a206275726e20616d6f756e7420657863656564732062616c616e60008201527f6365000000000000000000000000000000000000000000000000000000000000602082015250565b7f45434453413a20696e76616c6964207369676e6174757265206c656e67746800600082015250565b7f4f776e61626c653a206e6577206f776e657220697320746865207a65726f206160008201527f6464726573730000000000000000000000000000000000000000000000000000602082015250565b7f45524332303a20617070726f766520746f20746865207a65726f20616464726560008201527f7373000000000000000000000000000000000000000000000000000000000000602082015250565b7f1901000000000000000000000000000000000000000000000000000000000000600082015250565b7f45524332305065726d69743a206578706972656420646561646c696e65000000600082015250565b7f45524332303a207472616e7366657220616d6f756e742065786365656473206260008201527f616c616e63650000000000000000000000000000000000000000000000000000602082015250565b7f45434453413a20696e76616c6964207369676e6174757265202773272076616c60008201527f7565000000000000000000000000000000000000000000000000000000000000602082015250565b7f45434453413a20696e76616c6964207369676e6174757265202776272076616c60008201527f7565000000000000000000000000000000000000000000000000000000000000602082015250565b7f45524332305065726d69743a20696e76616c6964207369676e61747572650000600082015250565b7f45524332303a207472616e7366657220616d6f756e742065786365656473206160008201527f6c6c6f77616e6365000000000000000000000000000000000000000000000000602082015250565b7f4f776e61626c653a2063616c6c6572206973206e6f7420746865206f776e6572600082015250565b7f45524332303a206275726e20616d6f756e74206578636565647320616c6c6f7760008201527f616e636500000000000000000000000000000000000000000000000000000000602082015250565b7f45524332303a206275726e2066726f6d20746865207a65726f2061646472657360008201527f7300000000000000000000000000000000000000000000000000000000000000602082015250565b7f45524332303a207472616e736665722066726f6d20746865207a65726f20616460008201527f6472657373000000000000000000000000000000000000000000000000000000602082015250565b7f45524332303a20617070726f76652066726f6d20746865207a65726f2061646460008201527f7265737300000000000000000000000000000000000000000000000000000000602082015250565b7f45524332303a2064656372656173656420616c6c6f77616e63652062656c6f7760008201527f207a65726f000000000000000000000000000000000000000000000000000000602082015250565b7f45524332303a206d696e7420746f20746865207a65726f206164647265737300600082015250565b612ceb81612683565b8114612cf657600080fd5b50565b612d02816126a1565b8114612d0d57600080fd5b50565b612d19816126cb565b8114612d2457600080fd5b50565b612d30816126d5565b8114612d3b57600080fd5b5056fea2646970667358221220711491a3a647870caf8da71bff7933180f88cb843fa1b43e150fd5259696ac9b64736f6c63430008020033",
  "linkReferences": {},
  "deployedLinkReferences": {}
}